:100000000C948C040C94D4040C941A080C94D4040E
:100010000C94D4040C94D4040C94D4040C94D40400
:100020000C94D4040C94D4040C94670E0C94D40453
:100030000C94C11D0C94D4040C94D4040C94D404DA
:100040000C94D4040C94D4040C94D4040C94D404D0
:100050000C94D4040C94071E0C94D4040C94D40473
:100060000C94D4040C94D4040C94D4040C94D404B0
:100070000C94D4040C94D4040C94D4040C94D404A0
:100080000C94D4040C94D4040C94D4040C94D40490
:100090000C94D4040C94D4040C94D4040C94D40480
:1000A0000C94D4040C94D4040C94D404000670066C
:1000B00052069406A806AE06B206B606BA06BE06F4
:1000C000C206C506C906CD065D0F7F0F72107F0FF1
:1000D0007210C40FE70F72103C104F10BD13BD1308
:1000E000E713E71342146D166D166D1676146D1630
:1000F0006115611527166D163C165A162CA135028E
:100100000042003E3C3A3B456843413F3D2B2900BD
:1001100069E2E188E0141E006A001D16041A1F003F
:100120006B061B07082120006CC019091715220057
:100130006D11050B0A1C23006E00100D18242500FC
:100140006F360E0C122726007037380F33132D0030
:10015000718734002F2E007239E52830003100738A
:10016000006400678A002A8BA559895C5F850000BE
:1001700062635A5D5E60295344575B565561470080
:10018000000000400000000000000000000000002F
:10019000B6E60000E4AC0000BC000000000000E394
:1001A000BBAA00A8000000E7BA0000B40000006588
:1001B000B900A900B00000A5B800B7AF000000A6C4
:1001C000B500000000000000B300540000AB0000C8
:1001D000B200000000000000000058000000A7006E
:1001E0000000000000000000004D00504A00000028
:1001F000494C51004F52000000004E00464B480051
:100200000042003E3C3A3B456843413F3D013500DA
:100210006901018801013A006A00010101013B0006
:100220006B010101293D3C006C01010101013E000F
:100230006D4E2C4B01013F006E0035504A4041008D
:100240006FC151524D4342007001654F0146440059
:1002500071870100474500720101014800490073A0
:10026000006400678A004C8BA559895C5F8500009B
:1002700062635A5D5E60295344575B56556147007F
:10028000000000400000000000000000000000002E
:10029000B601000001AC0000BC000000000000013D
:1002A000BBAA00A800000001BA0000B400000001D1
:1002B000B900A900B00000A5B800B7AF000000A6C3
:1002C000B500000000000000B300540000AB0000C7
:1002D000B200000000000000000058000000A7006D
:1002E0000000000000000000004D00504A00000027
:1002F000494C51004F52000000004E00464B480050
:10030000756E6578706563746564207363616E20D3
:10031000636F64652061742045305F46303A202564
:100320003032580A00756E657870656374656420B4
:100330007363616E20636F64652061742046303A98
:1003400020253032580A00756E65787065637465D3
:1003500064207363616E20636F646520617420465E
:10036000303A20463028636C65617220616E6420EB
:10037000636F6E742E290A00756E657870656374FC
:100380006564207363616E20636F6465206174200F
:1003900045303A20253032580A00756E6578706510
:1003A00063746564207363616E20636F64652061AC
:1003B0007420494E49543A20253032580A004F766D
:1003C000657272756E0A0025690D0A0070627566A5
:1003D0003A2066756C6C0A000A4B6579626F61722F
:1003E000642073746172742E0A000A5553422063AC
:1003F0006F6E666967757265642E0A000A0A544D4D
:100400004B3A30366337656132392B2F4C554641B4
:100410000A0A003003500053002F00320020006B06
:10042000006500790062006F0061007200640020C6
:100430000063006F006E0076006500720074006556
:1004400000720000000E0374002E006D002E006B81
:10045000002E0000000403090409027400040100D6
:10046000A03209040000010301010009211101006B
:10047000012240000705810308000A090401000168
:100480000300000009211101000122360007058246
:100490000308000A090402000203000000092111F8
:1004A0000100012222000705830320000107050344
:1004B00003200001090403000103000000092111C9
:1004C00001000122390007058403200001120110F8
:1004D0000100000008EDFE126501000102000105A7
:1004E000010906A101050719E029E7150025019575
:1004F0000875018102050819012905950575019105
:10050000029501750391010507190029F7150025CA
:100510000195F875018102C00631FF0974A1010936
:1005200075150026FF0095207508810209761500D3
:1005300026FF00952075089102C005010980A101E0
:1005400085021601002637001A81002AB7007510AF
:1005500095018100C0050C0901A101850316010068
:10056000269C021A01002A9C02751095018100C088
:1005700005010906A101050719E029E71500250174
:100580009508750181029501750881010508190119
:1005900029059505750191029501750391010507DE
:1005A000190029FF150026FF00950675088100C077
:1005B000636F6E73756D65723A20253034580A008A
:1005C00073797374656D3A20253034580A000A0037
:1005D0002530325820006B6579626F6172643A2071
:1005E000004C45443A20253032580A002530325814
:1005F0003A202530386225730A00722F632030318B
:100600003233343536370A0064656C5F6B65795F69
:100610006269743A2063616E27742064656C3A20C5
:10062000253032580A006164645F6B65795F6269E6
:10063000743A2063616E2774206164643A20253027
:1006400032580A003F00433E20004C25640A000A4D
:10065000092D20436F6E736F6C65202D0A4553433F
:100660002F713A09717569740A000A092D204D61CC
:10067000676963202D0A643A0964656275670A78C0
:100680003A096465627567206D61747269780A6BF6
:100690003A096465627567206B6579626F6172649F
:1006A0000A6D3A096465627567206D6F7573650A36
:1006B000763A0976657273696F6E0A733A097374D4
:1006C000617475730A633A09636F6E736F6C6520AA
:1006D0006D6F64650A302D343A096C61796572304A
:1006E0002D34284631302D4634290A506175733A2D
:1006F00009626F6F746C6F616465720A6E3A094EBD
:100700004B524F0A003F004E4B524F3A206F6666E5
:100710000A004E4B524F3A206F6E0A0074696D65A5
:10072000725F72656164333228293A202530346C57
:10073000580A006B6579626F6172645F6E6B726FED
:100740003A2025580A006B6579626F6172645F69AF
:10075000646C653A2025580A006B6579626F617296
:10076000645F70726F746F636F6C3A2025580A0073
:10077000686F73745F6B6579626F6172645F6C65DB
:10078000647328293A2025580A000A092D20537439
:1007900061747573202D0A004743433A20352E3487
:1007A0002E30204156522D4C4942433A20322E30B1
:1007B0002E30204156525F415243483A20617672B2
:1007C000350A004F5054494F4E533A204C5546413C
:1007D0002045585452414B455920434F4E534F4C9E
:1007E0004520434F4D4D414E44204E4B524F2034F7
:1007F0003039360A004255494C443A203036633786
:10080000656132392B202831383A33353A35332077
:100810004E6F762031302032303139290A00564966
:10082000443A2030784645454428742E6D2E6B2E70
:1008300029205049443A20307836353132285053F7
:100840002F32206B6579626F61726420636F6E7600
:10085000657274657229205645523A2030783030DE
:1008600030310A00444553433A20636F6E76657217
:10087000742050532F32206B6579626F617264204F
:10088000746F205553420A000A092D205665727371
:10089000696F6E202D0A000A6D6F7573653A206FBF
:1008A00066660A000A6D6F7573653A206F6E0A00FE
:1008B0000A6B6579626F6172643A206F66660A003E
:1008C0000A6B6579626F6172643A206F6E0A000A82
:1008D0006D61747269783A206F66660A000A6D610C
:1008E000747269783A206F6E0A000A6465627567EF
:1008F0003A206F6E0A000A64656275673A206F6677
:10090000660A000A0A626F6F746C6F616465722E0A
:100910002E2E2000433E200011241FBECFEFDAE030
:10092000DEBFCDBF04B603FE28C08091690490915C
:100930006A04A0916B04B0916C048730904BA7407F
:10094000B04BD9F41092690410926A0410926B04AF
:1009500010926C0414BE0FB6F894A89580916000B4
:10096000886180936000109260000FBE10920108B1
:1009700010920008E0E0F8E3099511E0A0E0B1E092
:10098000ECE5F7E402C005900D92A633B107D9F764
:1009900024E0A6E3B1E001C01D92A936B207E1F759
:1009A0000E94250B0C94AC230C940000FF93EF9352
:1009B000E0913601F0913701309709F00995EF91F8
:1009C000FF910895FC018591803011F0EFDFFBCF9E
:1009D0000895FF27E0E230E247FF0CC0419597FF02
:1009E00009C0EDE26095709580959095611D711D2F
:1009F000811D911D27FF02C0219530E350E2AA27F7
:100A0000660F771F881F991FAA1FA41710F0A41B39
:100A100063955A95A9F7AA3008F0A95FA05DAF9336
:100A2000F395611571058105910541F7ED3211F4DA
:100A3000EF93F395F21718F43F93F395FBCF8F9153
:100A4000B5DFFA95E1F70895E991F9918591803044
:100A500021F0853219F0AADFF9CF089520E0E8945B
:100A600055915532C1F3503311F4689455915A336E
:100A700048F4505390F3220F022E220F220F200D24
:100A8000250FF4CF0EF4219589919991533619F3DE
:100A9000533729F1533559F1BC0188279927E89438
:100AA0005C3621F48991999168945591543639F4C2
:100AB00046EF7EF077FF0DC08FEF9FEF0AC05537EE
:100AC0004AE039F0583540E121F0523642E009F071
:100AD0000895FF93EF937DDFEF91FF91B7CFFF93E1
:100AE000EF93FC0181918030B9F360DFFBCFFF937E
:100AF000EF9368DFF1CFDF93CF93CDB7DEB72596C5
:100B0000A3DFCF91DF910895E82FE695E695E6956E
:100B1000F0E0E75CFE4F4081282F277081E090E0F5
:100B200002C0880F991F2A95E2F7242F30E028236E
:100B30003923232B11F4842B80830895E82FE69525
:100B4000E695E695F0E0E75CFE4F2081382F3770A0
:100B500081E090E002C0880F991F3A95E2F7422F9A
:100B600050E048235923452B19F080958223808338
:100B70000895809150048160809350040E94290759
:100B8000E9E3F1E0119281E0E935F807D9F708953A
:100B9000E82FF0E0E75CFE4F80810895E9E3F1E0A3
:100BA000119281E0E935F807D9F70895CF93809144
:100BB000580186FF03C08EEF0E949E050E94020826
:100BC000C82F882361F01F928F9387EC93E09F9347
:100BD0008F930E947B050F900F900F900F90809144
:100BE0005B018111E1C0E09138018E2F90E08E30E1
:100BF000910508F0D7C0FC01EA5AFF4F0C94C820B9
:100C0000CA3A31F178F4C338F9F0C438F9F0C111B7
:100C100034C00E94CE050E946D138EEB93E00E94BB
:100C2000E204C0C0C13E71F020F4C03E31F582E064
:100C300092C0C03F29F0CC3F01F587E191E00AC0A6
:100C400081E089C084E087C083E8AAC08CEFA8C097
:100C500084E191E09F938F938AE191E09F938F933A
:100C60000E94CE200E94AA100E94D706109238013E
:100C70000F900F900F900F9097C0C7FD02C08C2F60
:100C80008FC00E94CE050E946D131F92CF938AE9F8
:100C900093E09F938F930E947B050F900F900F908E
:100CA0000F9080C0C93509F47DC020F4C23109F429
:100CB00079C008C0CE3721F0C03F21F483E04BC09B
:100CC0008BE049C0C7FD03C08C2F806869C00E94BB
:100CD000CE050E946D131F92CF9388E793E0D9CF82
:100CE000C43831F0C03F31F0C33889F483E824C000
:100CF0008CEF22C00E94CE050E946D1387E493E022
:100D00009F938F930E947B050F900F904DC0C7FD5E
:100D100002C08C2F11C00E94CE050E946D131F923D
:100D2000CF9385E293E0B5CFC231E1F1C935D1F17E
:100D3000C7FD05C08C2F80680E949E0533C00E94AD
:100D4000CE050E946D131F92CF9380E093E0A1CF58
:100D5000C43141F585E08093380126C0C73711F5CD
:100D600086E0F9CFC13EF1F487E0F5CFC03FD1F482
:100D700088E0F1CFC431B1F489E0EDCFC03F91F408
:100D80008AE0E9CFC73771F40AC0C03E59F48CE05D
:100D9000E2CFC03F39F48DE0DECFCE3719F48EEFCD
:100DA0000E9484051092380181E0CF910895982F18
:100DB00082FB882780F990FD826091FD84600C940D
:100DC000AD084FB7F89420915C0130915D0180919E
:100DD0005E0190915F018217930781F0F901EE0F98
:100DE000FF1FE05AFE4F808191812F5F3F4F2F718F
:100DF000332730935D0120935C0102C080E090E0D6
:100E00004FBF0895CF93DF93EC010E94BC08882365
:100E100041F0209731F085E08A95F1F700002197A5
:100E2000F4CFCE01DF91CF910895CF93DF93C2E34A
:100E3000D0E00E94BC08811108C0209731F085E005
:100E40008A95F1F700002197F4CFCE01DF91CF9181
:100E500008950E94B9080E94C908E9E6F0E080817F
:100E600088608083E99A08958AE1815019F40E948C
:100E7000E10608959FB7F89440915E0150915F019B
:100E800020915C0130915D019FBF4217530779F7B4
:100E9000EFE9FFE03197F1F700C00000E6CFEF92F5
:100EA000FF920F931F93CF93DF93E82E10925B0175
:100EB000E9980E94B6080E94C9088FE891E001975E
:100EC000F1F700C000000E94C6080E94B90880E146
:100ED00097E20E940207892B11F48AE077C0C0E0F4
:100EE000D0E011E0F12C01E090E59A95F1F7C7010F
:100EF0000C2E02C0959587950A94E2F780FF04C0F6
:100F000010270E94C90802C00E94C6080E94150747
:100F1000892B11F482E05AC082E390E00E9402071C
:100F2000892B11F483E052C02196C830D105E1F637
:100F300080E58A95F1F7112319F00E94C90802C0D3
:100F40000E94C6080E941507892B11F484E03EC058
:100F500082E390E00E940207892B11F485E036C0FD
:100F600090E59A95F1F70E94C908C2E3D0E00E948B
:100F7000CC08882341F0209741F025E02A95F1F72D
:100F800000002197F4CFCD2B11F486E01FC082E33F
:100F900090E00E940207892B11F487E017C00E949D
:100FA0001507892B19F0C2E3D0E009C088E00EC014
:100FB000209759F085E08A95F1F7000021970E946B
:100FC000CC088823A9F3CD2B81F489E080935B01C1
:100FD0000E94B9080E94C908E99A80E0DF91CF9188
:100FE0001F910F91FF90EF9008950E94B9080E9401
:100FF000C908E99ADF91CF911F910F91FF90EF906F
:101000000C9434074FB7F89420915E0130915F0142
:1010100080915C0190915D014FBF2817390729F03D
:1010200010925B010E94E106089580E280935B01CB
:1010300080E008951F920F920FB60F9211242F9304
:101040003F934F935F936F937F938F939F93AF9350
:10105000BF93CF93EF93FF930E94BC0881116BC0A5
:1010600080915A018F5F80935A018A3028F4823030
:1010700068F4813031F054C08A30D9F08B3029F1D6
:101080004FC00E94CC0881114BC055C080915901BE
:101090008695809359010E94CC08882309F44BC09F
:1010A00080915901806880935901809100018F5F80
:1010B00040C00E94CC0890910001882319F090FF55
:1010C0002FC039C090FD2CC036C00E94CC088823A8
:1010D00039F14091590150E0CFB7F89480915E0109
:1010E00090915F019C012F5F3F4F2F7133276091DB
:1010F0005C0170915D012617370761F0880F991F19
:10110000FC01E05AFE4F5183408330935F012093EE
:101110005E0104C08CEC93E00E94E204CFBF04C0E7
:1011200080915A0180935B0110925A0110925901EB
:1011300081E080930001FF91EF91CF91BF91AF913A
:101140009F918F917F916F915F914F913F912F91DF
:101150000F900FBE0F901F901895CF93C82F8DEE54
:101160000E944F078C2FCF910C944F075998519A9A
:1011700008955198599A08955198599A85E08A95F9
:10118000F1F7000089B18695817008955898509ABA
:1011900008955098589A08955098589A85E08A95DD
:1011A000F1F7000089B1817008958091C40208951B
:1011B0000895CF93DF9300D01F92CDB7DEB7209173
:1011C0005A04243021F523E029839B838A8382E01B
:1011D0008093E9008FEF9091E800815095FD06C063
:1011E00095ED9A95F1F700008111F5CF8091E80017
:1011F00085FF0DC040E050E063E070E0CE01019655
:101200000E94590C8091E8008E778093E8000F903F
:101210000F900F90DF91CF910895CF93DF9300D07F
:101220001F92CDB7DEB720915A04243029F522E071
:101230002983805891099B838A832093E9008FEF4B
:101240009091E800815095FD06C095ED9A95F1F7D3
:1012500000008111F5CF8091E80085FF0DC040E0CE
:1012600050E063E070E0CE0101960E94590C80913D
:10127000E8008E778093E8000F900F900F90DF9139
:10128000CF910895CF93DF93EC0190915A0494305D
:1012900009F048C0809110018823D9F08091110194
:1012A0008823B9F09093E90081E8815049F090914A
:1012B000E80095FD05C09AE29A95F1F700C0F5CFD8
:1012C0008091E80085FF2EC040E050E060E270E0D1
:1012D00019C081E08093E90081E8815059F0909134
:1012E000E80095FD07C0EFE3F1E03197F1F700C0AA
:1012F0000000F3CF8091E80085FF14C040E050E08B
:1013000068E070E0CE010E94590C8091E8008E7771
:101310008093E80080E2FE01A4EAB2E001900D9221
:101320008A95E1F7DF91CF910895CF93C091A20103
:10133000C1110BC00E94FB1D643C794081059105E1
:1013400020F081E08093A201C1E08C2FCF9108951D
:10135000CF93C82F0E949509882309F448C00FB67F
:1013600007FE45C080915A04843009F040C0809146
:10137000E9008F702091EC00922F917020FD90E891
:10138000892B93E09093E9009091EB0090FF2CC0A3
:101390009091EE0097FF28C09091040120910301E5
:1013A000291709F447C02091E80025FF1DC0E091EE
:1013B0000101F0910201E90FF11D30819F5F209141
:1013C00005019223909304013093F1009091E8007D
:1013D00095FDE2CF9091E80090FFDECF9091E8007C
:1013E0009E779093E800D8CF8F708093E90080912A
:1013F000030190E0AC014F5F5F4F30910501232F57
:1014000030E0242335234091040150E024173507B0
:10141000D1F02091010130910201F901E80FF91F8B
:10142000C083809103018F5F909105018923809390
:10143000030109C09091E80095FFD6CFC093F10059
:101440008F708093E90080E0CF91089580915904D6
:10145000811109C00E94EC0D0E94490E8091E200AA
:1014600084608093E20008951092590408950895CD
:10147000089542E061EC81E00E94650D42E061EC7C
:1014800082E00E94650D42E261EC83E00E94650DFE
:1014900042E261EC84E00C94650D80915C04833041
:1014A00009F455C030F4813071F0823009F48EC0F7
:1014B00008958A3009F47AC08B3009F460C089300D
:1014C00009F09CC020C080915B04813A09F096C06D
:1014D0008091E800877F8093E80080915F0490917D
:1014E0006004892B21F460E284EA92E003C060E0AA
:1014F00080E090E070E00E94A60C8091E8008B777D
:101500008093E800089580915B04813209F076C0F1
:1015100080915F0490916004009719F0039709F09F
:101520006DC08091E800877F8093E8008091E8009B
:1015300082FD05C080915A048111F8CF5FC080916F
:10154000F1008093C4028091E8008B7753C08091B2
:101550005B04813A09F052C080915F04909160046D
:10156000892B09F04BC08091E800877F8093E800C9
:101570008091E80080FFFCCF8091100136C08091FF
:101580005B048132D9F580915F0490916004892BCE
:10159000A9F58091E800877F8093E8000E949A0D6A
:1015A00080915D04809310010C946D1380915B0415
:1015B000813221F58091E800877F8093E8000E94C6
:1015C0009A0D80915E048093C502089580915B041A
:1015D000813AA1F48091E800877F8093E8008091B0
:1015E000E80080FFFCCF8091C5028093F1008091DC
:1015F000E8008E778093E8000C949A0D089580910E
:10160000C4028093A3011092C4020E94CE050C94E0
:101610006D130C94FF0A0E949C1D8091580488232E
:1016200029F00E94A91D81110C94430C08950E9479
:10163000BD1D8091A3018093C40208950C94170BE3
:1016400008950C94200B0C94200BCF9384B7877FC4
:1016500084BF0FB6F894A89580916000886180934C
:101660006000109260000FBE90E080E80FB6F89422
:1016700080936100909361000FBE88EA99E00E9418
:101680006F1D86E091E00E94A5108CEF93E00E9410
:10169000E2040E94230B0E9459110E94EC0D0E944B
:1016A000490E8091E20084608093E20078940E9469
:1016B0005B1180915A04843029F00E948A100E94A4
:1016C000200BF7CF8AEE93E00E94E2040E94210BE8
:1016D00088ED93E00E94E204C3E080915A048530D3
:1016E00019F40E940B0BF9CF0E945F112091E400C6
:1016F0003091E5008091A0019091A1012817390750
:1017000009F468C08091E4009091E5009093A101F4
:101710008093A0010E949509882309F45BC0809101
:101720005A04843009F056C08091E9008F702091EE
:10173000EC00922F917020FD90E8892BC093E90076
:101740009091EB0090FF43C09091EE0097FF3FC057
:101750009091040120910301291709F12091E800DB
:1017600025FF1DC0E0910101F0910201E90FF11D7B
:1017700030819F5F20910501922390930401309363
:10178000F1009091E80095FDE3CF9091E80090FF83
:10179000DFCF9091E8009E779093E800D9CF9091A9
:1017A000F3002091F20030E0392B232B81F090914F
:1017B000E80090FF0CC09091E80095FF03C01092E4
:1017C000F100F9CF9091E8009E779093E8008F7038
:1017D0008093E9000E948A1080CF292F332723307D
:1017E0003105C9F060F42130310581F02230310536
:1017F00009F041C084E790E029E534E040C021329F
:101800003105E1F02232310531F135C082E190E05D
:101810002DEC34E034C099278130910549F028F04F
:10182000029749F5E3E1F4E005C0E5E5F4E002C024
:10183000E5E4F4E0849190E09F0121C06430D8F4A5
:10184000E62FF0E0EE0FFF1FE25DFE4F20813181B9
:1018500089E090E014C0643070F470E0FB01EE0F9A
:10186000FF1FEA5DFE4F20813181FB01EE5DFE4FDF
:10187000808190E004C080E090E020E030E0FA0158
:1018800031832083089580E189BD82E189BD09B457
:1018900000FEFDCF8091D8008F7D8093D80080918D
:1018A000E00082608093E0008091E00081FDFCCF49
:1018B0000895CF92DF92EF92FF920F931F93CF93F1
:1018C000DF93EC018B017A010E94B90D811135C0C3
:1018D000E114F10439F0F70180819181081B190BA3
:1018E000C80FD91FC12CD12C0115110529F18091E8
:1018F000E80085FD18C08091E8008E778093E800AD
:101900000E948A10E114F10449F0F701808191816D
:10191000C80ED91ED182C08285E00FC00E94B90DC9
:10192000882311F30AC089918093F10001501109B5
:10193000FFEFCF1ADF0AD8CF80E0DF91CF911F9160
:101940000F91FF90EF90DF90CF9008952091610468
:10195000309162042617370748F06115710539F494
:101960002091E8002E772093E80001C0B901FC0126
:1019700020E06115710579F180915A048823F1F115
:101980008530F1F18091E80083FD3CC08091E80052
:1019900082FD2EC08091E80080FFEBCF2091F30004
:1019A0008091F20090E0922B6115710551F0883022
:1019B000910538F421912093F1006150710901964D
:1019C000F3CF21E0089709F020E08091E8008E77BE
:1019D0008093E800CECF2111CFCF0AC080915A0466
:1019E000882361F0853061F08091E80083FD0AC0B2
:1019F0008091E80082FFF2CF80E0089582E00895B0
:101A000083E0089581E0089520916104309162049B
:101A10002617370748F06115710539F42091E80061
:101A20002E772093E80001C0B901FC0120E0611588
:101A3000710591F180915A04882309F440C08530E2
:101A400009F43FC08091E80083FD3DC08091E8002B
:101A500082FD2FC08091E80080FFE9CF2091F30044
:101A60008091F20090E0922B6115710559F0883059
:101A7000910540F424912093F10031966150710951
:101A80000196F2CF21E0089709F020E08091E8006C
:101A90008E778093E800CBCF2111CCCF0AC0809104
:101AA0005A04882361F0853061F08091E80083FD5D
:101AB0000AC08091E80082FFF2CF80E0089582E0C2
:101AC000089583E0089581E00895982F973068F590
:101AD0009093E900981739F07091EC002091ED0097
:101AE0005091F00003C0242F762F50E021FD02C05A
:101AF0009F5FECCF3091EB003E7F3093EB00309155
:101B0000ED003D7F3093ED003091EB00316030937C
:101B1000EB007093EC002093ED005093F0002091C7
:101B2000EE0027FDE5CF80E008958F708093E900F7
:101B300081E0089580915B0487FF11C08091E800E7
:101B400082FD05C080915A048111F8CF11C08091A7
:101B5000E8008B770BC080915A04882349F080916C
:101B6000E80080FFF8CF8091E8008E778093E8004E
:101B700008952091E4003091E50095E64091EC0055
:101B8000842F817040FF23C08091E80080FD1DC03C
:101B900080915A04882399F0853099F08091EB0068
:101BA00085FD11C04091E4005091E50024173507F0
:101BB00029F3915011F09A01E1CF84E0089582E079
:101BC000089583E0089581E0089580E008954091AC
:101BD000E80042FFDDCF08950E945A0E0E94620E77
:101BE000E0EEF0E0808181608083E8EDF0E08081CC
:101BF0008F77808319BCA7EDB0E08C918E7F8C939A
:101C000080818F7E80831092590408950F931F93D3
:101C1000CF93DF930E945A0E0E94620EC8EDD0E06F
:101C200088818F77888388818068888388818F7D89
:101C3000888319BC10925A041092560410925804CA
:101C40001092570400EE10E0F80180818B7F8083B2
:101C500088818160888342E060E080E00E94650DB9
:101C6000E1EEF0E080818E7F8083E2EEF0E0808123
:101C700081608083808188608083F80180818E7F8D
:101C80008083888180618883DF91CF911F910F913C
:101C90000895E8EDF0E080818F7E8083E7EDF0E04D
:101CA00080818160808384E082BF81E080935904D9
:101CB0000C94060EE8EDF0E080818E7F8083109218
:101CC000E20008951092DA001092E10008951F9248
:101CD0000F920FB60F9211242F933F934F935F9360
:101CE0006F937F938F939F93AF93BF93EF93FF93E4
:101CF0008091E10082FF0BC08091E20082FF07C06B
:101D00008091E1008B7F8093E1000E94380A8091EE
:101D1000DA0080FF1FC08091D80080FF1BC0809137
:101D2000DA008E7F8093DA008091D90080FF0DC0A9
:101D300080E189BD82E189BD09B400FEFDCF81E06B
:101D400080935A040E94260A05C019BC10925A04B6
:101D50000E94340A8091E10080FF19C08091E20066
:101D600080FF15C08091E2008E7F8093E200809119
:101D7000E20080618093E2008091D80080628093CD
:101D8000D80019BC85E080935A040E94090B809109
:101D9000E10084FF30C08091E20084FF2CC080E12C
:101DA00089BD82E189BD09B400FEFDCF8091D800D4
:101DB0008F7D8093D8008091E1008F7E8093E10039
:101DC0008091E2008F7E8093E2008091E20081604A
:101DD0008093E20080915604882311F084E007C0CC
:101DE0008091E30087FD02C081E001C083E0809321
:101DF0005A040E941E0B8091E10083FF24C0809151
:101E0000E20083FF20C08091E100877F8093E100A2
:101E100082E080935A04109256048091E1008E7FF4
:101E20008093E1008091E2008E7F8093E2008091B8
:101E3000E20080618093E20042E060E080E00E9486
:101E4000650D0E94370AFF91EF91BF91AF919F916D
:101E50008F917F916F915F914F913F912F910F9053
:101E60000FBE0F901F9018951F93CF93DF93CDB7A0
:101E7000DEB7AA970FB6F894DEBF0FBECDBFEBE575
:101E8000F4E08091F100819324E0E336F207C9F792
:101E90000E944D0A8091E80083FF24C180915B0479
:101EA00090915C04492F50E04A30510508F01AC166
:101EB000FA01EC59FF4F0C94C820803881F0823829
:101EC00009F010C180915F048F708093E9008091C8
:101ED000EB0085FB882780F91092E90006C080910D
:101EE000570490915804911182609091E800977F77
:101EF0009093E8008093F1001092F100C8C0282F61
:101F00002D7F09F0EFC0882319F0823061F0EAC01C
:101F100080915D04813009F0E5C0933009F080E0E4
:101F2000809358042BC080915D04811127C080915B
:101F30005F048F7009F4D6C08093E9002091EB0014
:101F400020FF1CC0933021F48091EB00806214C00C
:101F50009091EB0090619093EB0021E030E0A901BB
:101F600002C0440F551F8A95E2F74093EA00109291
:101F7000EA008091EB0088608093EB001092E9000A
:101F80008091E800877F86C08111ACC010915D040C
:101F90001F778091E3008078812B8093E30080910C
:101FA000E800877F8093E8000E949A0D8091E80006
:101FB00080FFFCCF8091E30080688093E3001111E3
:101FC00002C082E001C083E080935A048BC0805835
:101FD000823008F087C080915D0490915E048C3D52
:101FE00053E0950779F583E08A838AE289834FB7C6
:101FF000F894DE01139620E03EE051E2E32FF0E09A
:1020000050935700E49120FF03C0E295EF703F5FCB
:10201000EF708E2F90E0EA3010F0C79601C0C096A6
:102020008D939D932F5F243149F74FBF8091E80036
:10203000877F8093E8006AE270E0CE0101960E94FB
:10204000A60C14C0AE014F5F5F4F60915F040E9409
:10205000ED0BBC01892B09F445C09091E800977FF6
:102060009093E80089819A810E94040D8091E80094
:102070008B778093E80036C08038A1F58091E80026
:10208000877F8093E800809156048093F1008091CF
:10209000E8008E778093E8000E949A0D23C081119A
:1020A00021C080915D0490915E0499270297D4F439
:1020B0008091E800877F8093E80080915D048093A1
:1020C00056040E949A0D80915604811106C0809199
:1020D000E30087FD02C081E001C084E080935A04E0
:1020E0000E94390A8091E80083FF0AC08091E800CD
:1020F000877F8093E8008091EB0080628093EB0003
:10210000AA960FB6F894DEBF0FBECDBFDF91CF9178
:102110001F910895CF9380915A048823A1F0C09114
:10212000E900CF709091EC00892F817090FD80E8DC
:10213000C82B1092E9008091E80083FD0E94340FC3
:10214000CF70C093E900CF9108959093CB02809314
:10215000CA020895E091CA02F091CB02309721F0B3
:102160000190F081E02D099480E00895EF92FF92B4
:102170000F931F93CF93DF93E091CA02F091CB02AC
:102180003097B1F18C010280F381E02D09958091A7
:10219000500482FF2DC080FF04C086ED95E00E94B0
:1021A000E204E80110E280EDE82E85E0F82E80914F
:1021B000500480FF0BC088811F928F93FF92EF9293
:1021C0000E947B050F900F900F900F901150219659
:1021D0001111EDCF8091500480FF0AC08EEC95E084
:1021E000DF91CF911F910F91FF90EF900C94E2043B
:1021F000DF91CF911F910F91FF90EF900895CF93B2
:10220000DF932091C8023091C9022817390709F1DC
:102210009093C9028093C802E091CA02F091CB0268
:102220003097B9F0EC010680F781E02D0995809197
:10223000500482FF0EC080FF0CC0DF93CF9380EC70
:1022400095E09F938F930E947B050F900F900F90C6
:102250000F90DF91CF910895CF93DF932091C60225
:102260003091C7022817390709F19093C70280936C
:10227000C602E091CA02F091CB023097B9F0EC01AE
:102280000084F185E02D09958091500482FF0EC0F5
:1022900080FF0CC0DF93CF9380EB95E09F938F93EB
:1022A0000E947B050F900F900F900F90DF91CF91C0
:1022B00008950C9402120E94E61D0C94B905BF9279
:1022C000CF92DF92EF92FF920F931F93CF93DF9302
:1022D00000D000D01F92CDB7DEB70E94D6050DEC1E
:1022E00012E0F12C8F2D0E94C805B82EF801C08095
:1022F000C82639F4F3940F5F1F4FF0E2FF12F2CFBC
:1023000030C08091500481FD0E940312D12CEE2434
:10231000E3948C2D8E21F9F0D982FA8291E08B2DF5
:102320008E2109F490E09B830E94EF1D8160782F3D
:102330009D838C8349815A816B818D810E943912E2
:1023400049815A816B817C818D810E94871DF801B2
:1023500080818E258083D394EE0CF8E0DF12D9CFF4
:10236000C9CF8FEF89838A831B820E94EF1D816012
:10237000782F9D838C8349815A816B818D810E9446
:1023800039120E94861D0E94AA109091CC028917D2
:1023900041F10E94AA108093CC029091500492FFC8
:1023A0000EC090FF0CC01F928F9381EE95E09F931B
:1023B0008F930E947B050F900F900F900F9080914C
:1023C000CC020F900F900F900F900F90DF91CF9154
:1023D0001F910F91FF90EF90DF90CF90BF900C94E2
:1023E000981D0F900F900F900F900F90DF91CF914D
:1023F0001F910F91FF90EF90DF90CF90BF900895C5
:102400000C94D7060895EF92FF920F931F93CF93EA
:10241000DF938AEF95E00E94E204C0E0D0E081E221
:10242000E82E81E0F82E0CEE15E08C2F0E94C805F6
:102430000E94741DFF92EF921F928F93DF93CF93B0
:102440001F930F930E947B0521968DB79EB7089628
:102450000FB6F8949EBF0FBE8DBFC032D10529F7CD
:10246000DF91CF911F910F91FF90EF900895089504
:102470000895CF93DF93CDB7DEB72B970FB6F894BF
:10248000DEBF0FBECDBF942F4F83252F588769879E
:102490007A878B874A855B85452B31F02F3F31F456
:1024A00081E09F3F19F403C081E001C080E080FD1E
:1024B00007C04F81588569857A858B850E94871D65
:1024C000DE01119686E0FD0111928A95E9F785E01B
:1024D000FE01379601900D928A95E1F749815A8164
:1024E0006B817C818D819E810E9482192B960FB613
:1024F000F894DEBF0FBECDBFDF91CF910895CF938B
:10250000882309F4A4C0C82F8CEF8C0F813A48F4BB
:102510008C2F0E94752081119AC08C2F0E946A1CFA
:102520000CC080E28C0F883058F4C77081E001C085
:10253000880FCA95EAF70E940F1DCF910C94491D90
:102540008BE58C0F833078F4C53A29F0C63A31F028
:1025500083E890E005C081E890E002C082E890E066
:10256000CF910C94FF1088E58C0F853108F06FC077
:10257000C83A61F1C93A69F1CA3A71F1CB3A79F1D5
:10258000CC3A81F1CD3A89F1CE3A91F1CF3A99F135
:10259000C13BA1F1C03BA9F1C23BB1F1C33BB9F1D1
:1025A000C43BC1F1C53BC9F1C63BD1F1C73BD9F131
:1025B000C83BE1F1C93BE9F1CA3BF1F1CB3BF9F191
:1025C000CC3B09F43FC080E090E03EC082EE90E05A
:1025D0003BC089EE90E038C08AEE90E035C085EBD4
:1025E00090E032C086EB90E02FC083EB90E02CC0EF
:1025F00084EB90E029C087EB90E026C08CEC90E063
:1026000023C08DEC90E020C083E891E01DC08AE8F3
:1026100091E01AC082E991E017C084E991E014C00A
:1026200081E292E011C083E292E00EC084E292E087
:102630000BC085E292E008C086E292E005C087E226
:1026400092E002C08AE292E0CF910C942C11CF91DB
:102650000895882329F19CEF980F913A18F40E946D
:10266000BA1C0DC090E2980F983058F4877091E032
:1026700001C0990F8A95EAF7892F0E94151D0C94C5
:10268000491D9BE5980F933020F480E090E00C9476
:10269000FF10885A853120F480E090E00C942C11D2
:1026A0000895882321F00E940F1D0C94491D089560
:1026B000882321F00E94151D0C94491D08950E9445
:1026C0002F1D0E94FE1C0E94491D80E090E00E9488
:1026D000FF1080E090E00C942C110E941F1D0C94C0
:1026E0005F13CF92DF92EF92FF920F931F93CF93DE
:1026F000DF9300D000D01F92CDB7DEB76C010E94EF
:102700009A1D8111EAC285E0F601DE011196019061
:102710000D928A95E1F7F601408151812381348140
:102720002115310531F05F3F31F481E04F3F19F45D
:1027300003C081E001C080E080FDCFC2F601F280DD
:10274000E580E2948FE0E82249835A83FB82722F6E
:102750003D832C836F2D8D810E94E61B8C010E948E
:10276000E51B0E94D51AE12FE295EF708E2F90E0C5
:10277000FC01E259FF4F0C94C820812F807F1F700D
:10278000882311F01295107FFF2049F0112309F4DE
:102790003BC2812F0E94221D0E94491D35C2802FFD
:1027A0000E942913112309F498C2812F0E94281D29
:1027B0000F900F900F900F900F90DF91CF911F917E
:1027C0000F91FF90EF90DF90CF900C94491D812FD7
:1027D000807F1F70803211F01295107F002319F056
:1027E000013009F12BC0FF20A9F0EE2059F1F1E0F2
:1027F000812FEF1228C00F900F900F900F900F9025
:10280000DF91CF911F910F91FF90EF90DF90CF90CC
:102810000C94321DEE2021F021E0E21609F45DC295
:102820000E94351D2DC0FF20E9F085E08E1508F4CB
:1028300054C20E940C1D812329F022C0FF20F1F018
:10284000E11015C0812F0F900F900F900F900F90F7
:10285000DF91CF911F910F91FF90EF90DF90CF907C
:102860000C94511394E09E1508F437C209C0F60188
:10287000858180FFC9C18F708583E4CFE110D7C106
:10288000812F4AC1812F86958695837019F08130FA
:10289000B9F023C2FF2019F0C801937002C080E094
:1028A00090E00F900F900F900F900F90DF91CF91CD
:1028B0001F910F91FF90EF90DF90CF900C94FF103D
:1028C000FF2019F0C801937002C080E090E00F90E3
:1028D0000F900F900F900F90DF91CF911F910F915C
:1028E000FF90EF90DF90CF900C942C11812F83708C
:1028F00009F070C0F110F1C1202F229526952770A4
:10290000220F220F602F6F70862F90E0A0E0B0E0C2
:102910006C017D01022E04C0CC0CDD1CEE1CFF1CE2
:102920000A94D2F704FF12C08FE090E0A0E0B0E07C
:1029300004C0880F991FAA1FBB1F2A95D2F7BC019C
:10294000CD01609570958095909503C060E070E032
:10295000CB011695169513701230B1F040F56C2925
:102960007D298E299F29113031F10F900F900F9002
:102970000F900F90DF91CF911F910F91FF90EF90EB
:10298000DF90CF900C94FA1A6C297D298E299F290B
:102990000F900F900F900F900F90DF91CF911F919C
:1029A0000F91FF90EF90DF90CF900C94141B0E943A
:1029B000FA1AC701B6010F900F900F900F900F9069
:1029C000DF91CF911F910F91FF90EF90DF90CF900B
:1029D0000C94E01AFF2019F0812F817001C08695B8
:1029E000882309F47AC1202F229526952770220F7B
:1029F000220F602F6F70862F90E0A0E0B0E06C0196
:102A00007D01022E04C0CC0CDD1CEE1CFF1C0A94C0
:102A1000D2F704FF12C08FE090E0A0E0B0E004C065
:102A2000880F991FAA1FBB1F2A95D2F7BC01CD01A1
:102A3000609570958095909503C060E070E0CB0143
:102A40001695169513701230B1F040F56C297D295A
:102A50008E299F29113031F10F900F900F900F9018
:102A60000F90DF91CF911F910F91FF90EF90DF902A
:102A7000CF900C94C11B6C297D298E299F290F9022
:102A80000F900F900F900F90DF91CF911F910F91AA
:102A9000FF90EF90DF90CF900C94D31B0E94C11B4E
:102AA000C701B6010F900F900F900F900F90DF911C
:102AB000CF911F910F91FF90EF90DF90CF900C94EA
:102AC000AF1B003FC1F128F480E4800F803250F04A
:102AD00096C0023F09F45EC008F449C0033F09F400
:102AE0006CC08DC0F02FF071EF2E812F8F71FF2001
:102AF00051F00E94481B802FEE2019F08295807FB4
:102B0000A2CE8F70A0CE0E94691B802FEE2019F0FC
:102B10008295807F01C08F700F900F900F900F9063
:102B20000F90DF91CF911F910F91FF90EF90DF9069
:102B3000CF900C945813FF20A9F024E02E1508F430
:102B4000CCC0812F8F710F900F900F900F900F902E
:102B5000DF91CF911F910F91FF90EF90DF90CF9079
:102B60000C948E1B85E08E1508F4B7C0EACFFF20C9
:102B700099F0812F8F710F900F900F900F900F9001
:102B8000DF91CF911F910F91FF90EF90DF90CF9049
:102B90000C94481BFF2069F3812F8F710F900F90C9
:102BA0000F900F900F90DF91CF911F910F91FF9099
:102BB000EF90DF90CF900C94691BFF2089F0812F5C
:102BC0008F710F900F900F900F900F90DF91CF911A
:102BD0001F910F91FF90EF90DF90CF900C94331BDB
:102BE0000F900F900F900F900F90DF91CF911F914A
:102BF0000F91FF90EF90DF90CF900C942E1BFF2051
:102C000099F0EE2009F4B5CF802F0F900F900F9020
:102C10000F900F90DF91CF911F910F91FF90EF9048
:102C2000DF90CF900C947F12EE2009F4B5CF802F67
:102C30000F900F900F900F900F90DF91CF911F91F9
:102C40000F91FF90EF90DF90CF900C942913412FBC
:102C50004F70602FC6010E944B1E0F900F900F9077
:102C60000F900F90DF91CF911F910F91FF90EF90F8
:102C7000DF90CF900C94301A01112FC0FF2069F122
:102C80000E946D139FEFE0E7F2E09150E040F040CA
:102C9000E1F700C000000F900F900F900F900F9081
:102CA000DF91CF911F910F91FF90EF90DF90CF9028
:102CB0000C942C1E412F4F70602FC6010F900F9067
:102CC0000F900F900F90DF91CF911F910F91FF9078
:102CD000EF90DF90CF900C944E1E0F900F900F90BE
:102CE0000F900F90DF91CF911F910F91FF90EF9078
:102CF000DF90CF9008951F93CF93DF9300D000D043
:102D00001F92CDB7DEB7942F4983252F5A836B834B
:102D10007C838D834C815D81452B31F02F3F31F4D5
:102D200081E09F3F19F403C081E001C080E0182FCB
:102D3000117080FD31C049815A816B817C818D8108
:102D40000E94E61B292F22952F702C3030F42A3058
:102D5000A0F42250223030F022C02C30C9F02F30A5
:102D6000B9F01DC0853A28F48430C0F4823028F4CC
:102D700015C090E2980F983088F0883E30F4803E7D
:102D800068F48450813A58F409C0803F41F406C089
:102D900093FB112710F903C010E001C011E0812F4F
:102DA0000F900F900F900F900F90DF91CF911F9188
:102DB0000895CF93DF9300D000D01F92CDB7DEB738
:102DC0000F900F900F900F900F90DF91CF9108957B
:102DD000CF93DF9300D000D000D0CDB7DEB72696DA
:102DE0000FB6F894DEBF0FBECDBFDF91CF9108952F
:102DF0001F93CF93DF93C091ED0216E08091EE0216
:102E0000C81799F0D0E01C9FF0011D9FF00D112410
:102E1000E151FD4F408151816281738184819581AF
:102E20000E94E8162196C770E9CFDF91CF911F91DC
:102E3000089540911F0350912003609121037091E8
:102E4000220380912303909124030C94E816CF93DE
:102E50008091240382958F7009F05FC080912103D7
:102E6000882309F45AC08091ED02B091EE0270916E
:102E70001F03A0912003409122035091230391E06E
:102E80007F3F09F090E0692FC6E08B1709F445C039
:102E90004115510521F0AF3F21F020E003C021E0B2
:102EA00001C0262F90E020FD35C0C89FF001C99FCA
:102EB000F00D1124E151FD4F21812A132BC02081F7
:102EC000271328C02281211125C023813481241792
:102ED000350710F421503109241B350B283C3105EE
:102EE000C8F4209124032F7020612093240326E04E
:102EF000289FF001299FF00D1124EC50FD4F808197
:102F00008F70806180838FE193E00E947113CF9175
:102F10000C94F81601968770B8CFCF910895AF92B0
:102F2000BF92CF92DF92EF92FF920F931F93CF93B6
:102F3000DF93CDB7DEB761970FB6F894DEBF0FBE53
:102F4000CDBF7C0185E0F701DE011D9601900D9259
:102F50008A95E1F7D7014C9111965C9111971296E1
:102F6000DC90129713960D911C91149730911F03CA
:102F7000609120038091220390912303009731F008
:102F80006F3F31F421E03F3F19F403C021E001C05D
:102F900020E0B22FB170BB2E20FD6EC1A0902103A6
:102FA000AA2009F4CCC0209124030817190728F09F
:102FB000F801E81BF90BCF0104C080959095800FB4
:102FC000911FCC24C394883C910580F0C12C207FB4
:102FD00009F0A1C0702F198B088B6D2D89890E9473
:102FE000D9168FE193E00E947113BDC0822F807FBC
:102FF00009F056C0561315C0431313C0CD2CD11081
:1030000010C02F702061209324030E9419178FE1B4
:1030100093E00E94711380912403D70115968C933D
:103020005FC10115110531F05F3F31F481E04F3F81
:1030300019F403C081E001C080E080FD03C081E09D
:103040008D2502C080E090E0B82FB170CB2E80FFBC
:103050001CC08091ED022091EE0236E0821709F447
:103060001CC190E0389FF001399FF00D1124E1510F
:10307000FD4F6181561306C06081461303C0628113
:10308000D61203C001968770E9CFCD2CDD2009F45C
:1030900027C180912403816080932403C12C20C127
:1030A000561308C0431306C0D11004C080912403F6
:1030B000D701B6C04D875E87DF86702F198B088BCE
:1030C0006D2D89890E947B16882399F1DD2089F175
:1030D00020912403822F82958F7090E0029774F0E4
:1030E00080911F039091200398878F8319861B87F7
:1030F0000A872C87CE0107960E94711386E0F7019C
:10310000AFE1B3E001900D928A95E1F70E94271795
:103110000E94191711C0561781F14D875E87DF860F
:10312000702F198B088B6D2D89890E947B16811158
:1031300038C0C7010E947113CC24C394D1C00817B2
:10314000190708F446C0F801E81BF90BCF01883CC9
:10315000910508F443C0C12C702F198B088B6D2D7D
:1031600089890E94D916EFE1F3E086E0DF011D9224
:103170008A95E9F70E941917B3C04313CECFD11037
:10318000CCCF80912403F7018583C7010E9471137E
:1031900086E0EFE1F3E0DF011D928A95E9F7CA2CA2
:1031A0009FC0DD2031F220912403822F82958F7001
:1031B00090E002970CF4A2CF80911F03909120031E
:1031C0009A8389831B821D830C832E83CE010196F3
:1031D00093CF80959095800F911FB9CFCD2CDD2096
:1031E00009F4A7CF561333C0431331C020912403F1
:1031F00020FD24C0822F82958F70482F50E041150A
:103200005105E1F0D70115962C9315974F305105D4
:1032100049F08F5F982F9295907F822F8F70892B26
:1032200015968C93C7010E94711386E0F701AFE1F8
:10323000B3E001900D928A95E1F79CCF86E0F7010B
:10324000AFE1B3E001900D928A95E1F749C04D8757
:103250005E87DF86702F198B088B6D2D89890E9400
:103260007B1681114BCF80912403816080932403CE
:10327000C7010E94711334C0DD2009F45ACF4D8775
:103280005E87DF86702F198B088B6D2D89890E94D0
:103290007B16882309F44DCF31CF702F198B088B03
:1032A0006D2D89890E94E61B292F22952F702230CF
:1032B00028F49F7039F0811105C00BC0243028F428
:1032C0009F7049F4805E883020F0C7010E9471131E
:1032D000BC2CCB2C05C0F7019581907F99F7F9CFD5
:1032E0008C2D61960FB6F894DEBF0FBECDBFDF9177
:1032F000CF911F910F91FF90EF90DF90CF90BF90F3
:10330000AF9008951F93CF93DF93CDB7DEB72C977F
:103310000FB6F894DEBF0FBECDBF4F8358876987C5
:103320007A878B879C87CE0107960E948F17882308
:10333000D1F09F8188852A853B85232B31F08F3FF3
:1033400031F481E09F3F19F403C081E001C080E0C7
:1033500080FD47C04F81588569857A858B859C851E
:103360000E94E8163EC086E0FE013796DE01119607
:1033700001900D928A95E1F7FF81E8856A857B854A
:103380006115710531F0EF3F31F481E0FF3F19F431
:1033900003C081E001C080E080FD23C02091EE02E7
:1033A00030E0C9010196877099274091ED0250E005
:1033B00084179507F1F1F983EA837D836C8396E0A6
:1033C000929FD001939FB00D1124A151BD4FFE01DA
:1033D000319601900D929A95E1F78093EE020E944A
:1033E000F81616E08091ED029091EE02891771F1C6
:1033F000189FC001112481519D4F0E948F1788236F
:1034000029F1E091ED021E9FF0011124E151FD4FE1
:103410004081518162817381848195810E94E81687
:103420008091ED0290E00196877099278093ED02DC
:10343000D9CF0E946D131092EE021092ED02EFE1CF
:10344000F3E086E0DF011D928A95E9F72C960FB62E
:10345000F894DEBF0FBECDBFDF91CF911F910895CD
:10346000DF92EF92FF920F931F93CF93DF93FC01B4
:10347000892B09F488C0E12CF12CDD24D394EF01D1
:1034800021968491853709F460C058F4843708F098
:103490004EC0843008F068C08130D1F0823071F1C4
:1034A00072C0883709F45BC050F4863709F453C002
:1034B000873709F068C08E2D0E941C1D52C09CE702
:1034C000980F903708F05FC08F770E9429134EC085
:1034D0008F010E5F1F4FFE01849190E2980F98308C
:1034E00050F48770FD2D01C0FF0F8A95EAF78F2FEA
:1034F0000E94221D15C00E947F1214C08F010E5F12
:103500001F4FFE01849190E2980F983068F4877005
:10351000FD2D01C0FF0F8A95EAF78F2F0E94281D0D
:103520000E94491DE80122C00E942913FBCFCF0150
:103530000296FE01C491CC2361F0EFE9FFE03197E0
:10354000F1F700C00000C150F6CFCF010296FE0196
:10355000F490EC010BC00E940C1DE82E07C00E94E5
:103560001F1D0E94491D02C00E947F128F2D8823BB
:1035700041F0EFE9FFE03197F1F700C00000815022
:10358000F6CFFE017CCFDF91CF911F910F91FF907D
:10359000EF90DF9008956093250470932604809344
:1035A0002704909328040C94971D08956093290490
:1035B00070932A0480932B0490932C040C94961DF2
:1035C0000F931F930091290410912A0420912B043A
:1035D00030912C04602B712B822B932B6093290448
:1035E00070932A0480932B0490932C041F910F91C5
:1035F0000C94961D0F931F930091290410912A0497
:1036000020912B0430912C04602371238223932377
:103610006093290470932A0480932B0490932C04C4
:103620001F910F910C94961D0F931F9300912904E5
:1036300010912A0420912B0430912C0460277127CB
:10364000822793276093290470932A0480932B0484
:1036500090932C041F910F910C94961D60E070E0E4
:10366000CB010C94CB1A0F931F9341E050E060E024
:1036700070E08A019B0104C0000F111F221F331F3D
:103680008A95D2F7C901B8011F910F910C94CB1AFA
:103690000F931F9341E050E060E070E004C0440FDE
:1036A000551F661F771F8A95D2F780912504909148
:1036B0002604A0912704B09128048A019B01082BBD
:1036C000192B2A2B3B2BC901B8011F910F910C9488
:1036D000CB1A0F931F9341E050E060E070E004C00C
:1036E000440F551F661F771F8A95D2F74095509556
:1036F000609570958091250490912604A0912704EF
:10370000B09128048A019B01082319232A233B2313
:10371000C901B8011F910F910C94CB1A0F931F93FD
:1037200041E050E060E070E004C0440F551F661FA8
:10373000771F8A95D2F78091250490912604A09155
:103740002704B09128048A019B01082719272A27FA
:103750003B27C901B8011F910F910C94CB1A0F930D
:103760001F93009125041091260420912704309185
:103770002804602B712B822B932B1F910F910C949B
:10378000CB1A0F931F9300912504109126042091CA
:1037900027043091280460237123822393231F91EF
:1037A0000F910C94CB1A0F931F9300912504109145
:1037B000260420912704309128046027712782274E
:1037C00093271F910F910C94CB1A08958F929F927B
:1037D000AF92BF92DF92EF92FF920F931F93CF931E
:1037E000DF9300D000D01F92CDB7DEB76B837C8310
:1037F0008D838A018C819D81892B31F01F3F31F4AB
:1038000081E04F3F19F403C081E001C080E080FFF8
:1038100003C080E090E04DC08B818823D1F180907F
:10382000250490902604A0902704B090280480914D
:10383000290490912A04A0912B04B0912C04882A89
:10384000992AAA2ABB2A8FE1E82EF12CD501C401BE
:103850000E2C04C0B695A795979587950A94D2F734
:1038600080FD06C081E0E81AF10880F7D12C07C07E
:10387000DE2CB8018E2D0E946A1E019799F388E014
:10388000189FF0011124EB5DFC4FE00FF11DD08279
:1038900009C088E0189FF0011124EB5DFC4FE00F98
:1038A000F11DD08009831A8369817A818D2D0E9450
:1038B0006A1E0F900F900F900F900F90DF91CF9195
:1038C0001F910F91FF90EF90DF90BF90AF909F906E
:1038D0008F90089590911001992379F190911101A1
:1038E000992359F1982F9695969596959F31A1F029
:1038F000E0911201F0911301E90FF11D877021E0B1
:1039000030E0A90102C0440F551F8A95E2F7CA01B1
:103910009181892B818308959091500490FF29C053
:103920001F928F9386E296E09F938F930E947B0570
:103930000F900F900F900F900895209112013091E9
:103940001301F90132969FEF40E05191851789F0FC
:103950009F3F19F4511101C0942F4F5F4E31A9F7C9
:103960009F3F39F0F901E90FF11D97FDFA95828328
:103970000895089590911001992381F1909111017A
:10398000992361F1982F9695969596959F31A9F078
:10399000E0911201F0911301E90FF11D877021E010
:1039A00030E0A90102C0440F551F8A95E2F7CA0111
:1039B000809591818923818308959091500490FF8F
:1039C0001CC01F928F9388E096E09F938F930E9474
:1039D0007B050F900F900F900F900895E0911201CA
:1039E000F09113019F01225E3F4F9281891301C024
:1039F00012823196E217F307C1F7089581E090E053
:103A0000E0911201F0911301E80FF91F1082019665
:103A100080329105A9F7089580914F0408959091FF
:103A20004F04892B80934F040895809590914F0403
:103A3000892380934F04089580934F040895109232
:103A40004F04089590914E04892B80934E0408955D
:103A5000809590914E04892380934E04089510928E
:103A60004E04089580932D04089510922D04089516
:103A70008091120190911301FC0131969C01205E0E
:103A80003F4F80E0919191118F5FE217F307D1F7DB
:103A90000895E0911201F091130180914F04808309
:103AA000E0911201F0911301908180914E04892BD5
:103AB000808380912D04882361F0E0911201F091C0
:103AC00013019081892B80830E94381D81111092EF
:103AD0002D0480911201909113010C94B6109093D3
:103AE00037018093360108958295982F937344E0AF
:103AF000949F900111248C7C86958695282B822F8B
:103B00008575880F2A7A2695822B08950895CF937C
:103B1000DF9300D000D01F92CDB7DEB70F900F908B
:103B20000F900F900F90DF91CF9108950895089511
:103B30000C94001280E0089583B7817F8C6083BF6E
:103B400083B7816083BF7894889583B78E7F83BF66
:103B50000895CF930E9437120E94D6050E94381212
:103B6000C0E08C2F0E94C805811104C0CF5FC03215
:103B7000C1F701C081E0CF9108950E94CE050C9459
:103B80006D131F920F920FB60F9211248F939F9374
:103B9000AF93BF938091510490915204A09153042C
:103BA000B09154044196A11DB11D8093510490938E
:103BB0005204A0935304B0935404BF91AF919F91CA
:103BC0008F910F900FBE0F901F90189582E084BDCB
:103BD00093E095BD9AEF97BD80936E0008952FB73F
:103BE000F8948091510490915204A0915304B091A3
:103BF00054042FBF08952FB7F89460915104709129
:103C0000520480915304909154042FBF08951F9241
:103C10000F920FB60F9211248F939F93AF93BF9380
:103C20008091510490915204A0915304B091540496
:103C30000196A11DB11D8093510490935204A0934D
:103C40005304B0935404BF91AF919F918F910F9003
:103C50000FBE0F901F9018950E94EC0DF89487E707
:103C600097E7909301088093000887E090EBDC01D0
:103C70008093690490936A04A0936B04B0936C04DE
:103C80009CE088E10FB6F894A895809360000FBE81
:103C900090936000FFCF80E090E008950895E72FB3
:103CA000F0E090E2899FE00DF11D112483E0EE0F1A
:103CB000FF1F8A95E1F7E60FF11DE050FF4F849159
:103CC0000895E82FF0E0EE0FFF1FE458F0408591D3
:103CD000949108950E944F1E90E4980F903218F42A
:103CE0000E94611E08958D3B50F4883A48F5853A4C
:103CF000D0F48430A8F4813009F492C08EC0883E9C
:103D000040F4803E68F48F3B09F087C020E030EE3D
:103D100089C0803F08F481C0282F30E0306582C020
:103D2000282F30E07FC0853A29F0863A31F023E829
:103D300030E478C021E830E475C022E830E472C095
:103D4000883A61F1893A69F18A3A71F18B3A79F1ED
:103D50008C3A81F18D3A89F18E3A91F18F3A99F14D
:103D6000813BA1F1803BA9F1823BB1F1833BB9F1E9
:103D7000843BC1F1853BC9F1863BD1F1873BD9F149
:103D8000883BE1F1893BE9F18A3BF1F18B3BF9F1A9
:103D90008C3B09F43FC020E034E444C022EE34E41C
:103DA00041C029EE34E43EC02AEE34E43BC025EBAA
:103DB00034E438C026EB34E435C023EB34E432C0BD
:103DC00024EB34E42FC027EB34E42CC02CEC34E497
:103DD00029C02DEC34E426C023E835E423C02AE8CA
:103DE00035E420C022E935E41DC024E935E41AC0D9
:103DF00021E236E417C023E236E414C024E236E4BC
:103E000011C025E236E40EC026E236E40BC027E2FC
:103E100036E408C02AE236E405C020E030E002C003
:103E200021E030E0C9010895CF93C82F1F928F93EE
:103E30008AE496E09F938F930E947B0581E090E057
:103E4000A0E0B0E0BC01CD0104C0660F771F881F61
:103E5000991FCA95D2F70E94D61A0F900F900F9013
:103E60000F90CF910C946D13CF938732A8F58E31BC
:103E700008F02BC1803109F49FC0F8F4873009F4B1
:103E800064C0A8F4863009F024C180915004817F79
:103E90008E7F809350048FE496E00E94E20484E1D8
:103EA00099E00E94E20481E0809355044CC08B307D
:103EB000F1F18E3009F46CC00CC1863109F4B0C048
:103EC00020F4813109F4EDC004C1893109F491C0B5
:103ED0008B3109F449C0FDC0883349F150F489326F
:103EE00009F4F1C0853309F4EEC0873209F0F1C05E
:103EF000EAC0833409F4E7C028F48A3308F4E9C03F
:103F00008953E4C0883409F0E4C00E946D1383E053
:103F100099E00E94E2042FEF83ED90E3215080406E
:103F20009040E1F700C000000E942C1E0CC08AE601
:103F300096E05CC08AEE98E00E94E2048091500412
:103F4000816080935004C1E0C9C080915004C82FA3
:103F5000C17080FFEFCF86EF98E00E94E20480916D
:103F60005004817F8E7F3DC09091500491FBCC27FF
:103F7000C0F981E0C827892FC0FB81F980935004E4
:103F8000CC2319F08DED98E027C08FEC98E02EC07F
:103F90009091500492FBCC27C0F981E0C827892F6B
:103FA000C0FB82F980935004CC2319F080EC98E098
:103FB00013C080EB98E01AC09091500493FBCC277B
:103FC000C0F981E0C827892FC0FB83F98093500492
:103FD000CC2351F084EA98E00E94E20480915004DE
:103FE0008160809350047AC087E998E00E94E204DF
:103FF000AACF88E898E00E94E20484E698E00E9454
:10400000E2048EE198E00E94E20485EF97E00E94CE
:10401000E20483EC97E00E94E20488E997E0E6CFAF
:104020008AE897E00E94E2040E94AA101F928F93F0
:1040300080E797E09F938F930E947B05809110010A
:104040001F928F9389E597E09F938F930E947B0542
:104050008091C5021F928F9386E497E09F938F9380
:104060000E947B05809111011F928F9383E397E05B
:104070009F938F930E947B050E94FB1D9F938F93BC
:104080007F936F938CE197E09F938F930E947B05C2
:104090008DB79EB746960FB6F8949EBF0FBE8DBFE4
:1040A00052CF0E946D13C091110181E0C827C093C7
:1040B0001101CC2329F082E197E00E94E2040EC0B6
:1040C00087E097E093CF80E001C08D510E94141FDC
:1040D0003ACF85E097E00E94E204C0E08C2FCF91B8
:1040E000089580E008950C947120CF93C82F80919B
:1040F0005504882319F0813059F042C0E091120133
:10410000F09113018081823261F08434D9F509C0C5
:10411000E0911201F09113018081823211F0843418
:1041200061F48C2F0E947320811104C08C2F0E9497
:10413000341F24C081E090E021C08C2F0E947120A8
:1041400081111BC0C43189F018F4CB3029F010C0A4
:10415000C93259F0C83361F48FE496E00E94E2045A
:1041600086E496E00E94E20408C0109255040CC058
:1041700084E496E00E94E20407C081E0817006C0FA
:104180001092550480E002C080E0F8CFCF910895EE
:10419000EE0FFF1F0590F491E02D0994A0E0B0E030
:1041A000E4EDF0E20C948523AE014B5F5F4FFA0122
:1041B00061917191AF0180916504909166040E94B4
:1041C000E420E2E00C94A123ABE0B0E0EAEEF0E200
:1041D0000C9475236C017B018A01FC011782168205
:1041E000838181FFCCC1CE0101963C01F601938110
:1041F000F70193FD859193FF81917F01882309F455
:10420000BAC1853239F493FD859193FF81917F0185
:10421000853229F4B60190E00E94DB22E7CF912C91
:10422000212C312CFFE1F315D8F08B3279F038F4E2
:10423000803279F08332A1F4232D20611DC08D32AC
:1042400061F0803369F4232D216016C0832D8260D4
:10425000382EE32DE4603E2E2AC0F32DF8601DC0F9
:1042600037FC2DC020ED280F2A3040F08E32B9F4F3
:1042700036FC81C1232D2064322E19C036FE06C0C3
:104280008AE0989E200D1124922E11C0EAE02E9E05
:10429000200D1124222EF32DF0623F2E08C08C3603
:1042A00021F4832D8068382E02C0883641F4F7014E
:1042B00093FD859193FF81917F018111B3CF982F59
:1042C0009F7D9554933028F40C5F1F4F9FE3998393
:1042D0000DC0833631F0833771F0833509F059C052
:1042E00021C0F801808189830E5F1F4F8824839449
:1042F000912C530113C02801F2E04F0E511CF8011C
:10430000A080B18036FE03C0692D70E002C06FEF5F
:104310007FEFC5010E94D0224C018201F32DFF776F
:104320003F2E16C0280122E0420E511CF801A08049
:10433000B18036FE03C0692D70E002C06FEF7FEFE1
:10434000C5010E94C5224C01F32DF0683F2E820169
:1043500033FC1BC0822D90E088169906B0F4B6019C
:1043600080E290E00E94DB222A94F4CFF50137FC32
:10437000859137FE81915F01B60190E00E94DB22BA
:1043800021102A9421E0821A91088114910471F776
:10439000E8C0843611F0893641F5F80137FE07C0D0
:1043A00060817181828193810C5F1F4F08C06081A1
:1043B0007181072E000C880B990B0E5F1F4FF32D98
:1043C000FF763F2E97FF09C0909580957095619577
:1043D0007F4F8F4F9F4FF0683F2E2AE030E0A301C0
:1043E0000E941723882E861845C0853731F4232D67
:1043F0002F7EB22E2AE030E025C0932D997FB92E72
:104400008F36C1F018F4883579F0B5C0803719F0CF
:10441000883721F0B0C0E92FE061BE2EB4FE0DC098
:10442000FB2DF460BF2E09C034FE0AC0292F266080
:10443000B22E06C028E030E005C020E130E002C026
:1044400020E132E0F801B7FE07C06081718182810E
:1044500093810C5F1F4F06C06081718180E090E006
:104460000E5F1F4FA3010E941723882E8618FB2D75
:10447000FF773F2E36FE0DC0232D2E7FA22E8914EE
:1044800058F434FE0BC032FC09C0832D8E7EA82E5A
:1044900005C0B82CA32C03C0B82C01C0B92CA4FEB5
:1044A0000FC0FE01E80DF11D8081803321F49A2DAB
:1044B000997EA92E09C0A2FE06C0B394B39404C08D
:1044C0008A2D867809F0B394A3FC11C0A0FE06C023
:1044D000B21488F4280C922C9B180EC0B21460F40D
:1044E000B60180E290E00E94DB22B394F7CFB214D1
:1044F00018F42B1802C0982C212CA4FE10C0B60171
:1045000080E390E00E94DB22A2FE17C0A1FC03C062
:1045100088E790E002C088E590E0B6010CC08A2DE3
:10452000867859F0A1FE02C08BE201C080E2A7FCB0
:104530008DE2B60190E00E94DB22891438F4B601C6
:1045400080E390E00E94DB229A94F7CF8A94F301F3
:10455000E80DF11D8081B60190E00E94DB22811000
:10456000F5CF222009F442CEB60180E290E00E940D
:10457000DB222A94F6CFF6018681978102C08FEF65
:104580009FEF2B96E2E10C949123FC010590615082
:1045900070400110D8F7809590958E0F9F1F089559
:1045A000FC016150704001900110D8F78095909502
:1045B0008E0F9F1F08950F931F93CF93DF93FB01DF
:1045C000238121FD03C08FEF9FEF2CC022FF16C077
:1045D00046815781248135814217530744F4A081D5
:1045E000B1819D012F5F3F4F318320838C932681C2
:1045F00037812F5F3F4F3783268314C08B01EC0137
:10460000FB010084F185E02D0995892BE1F6D801A5
:1046100016968D919C911797019617969C938E9361
:104620001697CE01DF91CF911F910F910895FA0156
:10463000AA27283051F1203181F1E8946F936E7FE1
:104640006E5F7F4F8F4F9F4FAF4FB1E03ED0B4E0D2
:104650003CD0670F781F891F9A1FA11D680F791F13
:104660008A1F911DA11D6A0F711D811D911DA11D24
:1046700020D009F468943F912AE0269F1124301934
:10468000305D3193DEF6CF010895462F4770405DCF
:104690004193B3E00FD0C9F7F6CF462F4F70405D7E
:1046A0004A3318F0495D31FD4052419302D0A9F7D9
:1046B000EACFB4E0A6959795879577956795BA95D3
:1046C000C9F700976105710508959B01AC010A2E99
:1046D00006945795479537952795BA95C9F7620F70
:1046E000731F841F951FA01D08952F923F924F9214
:1046F0005F926F927F928F929F92AF92BF92CF9272
:10470000DF92EF92FF920F931F93CF93DF93CDB77A
:10471000DEB7CA1BDB0B0FB6F894DEBF0FBECDBFF2
:1047200009942A88398848885F846E847D848C84C3
:104730009B84AA84B984C884DF80EE80FD800C81CC
:104740001B81AA81B981CE0FD11D0FB6F894DEBFAF
:0C4750000FBECDBFED010895F894FFCF1F
:10475C0001A4010000FFD5084209D8080D09D908A9
:10476C0001012E044F4B004E47004241542025734B
:10477C000A004036223970053A051805DF046B042F
:06478C0084049D04BD043D
:00000001FF
