:100000000C94F3050C943B060C9481090C943B066C
:100010000C943B060C943B060C943B060C943B065C
:100020000C943B060C943B060C94F70F0C943B0687
:100030000C943E1F0C943B060C943B060C943B0620
:100040000C943B060C943B060C943B060C943B062C
:100050000C943B060C94AE1F0C943B060C943B0690
:100060000C943B060C943B060C943B060C943B060C
:100070000C943B060C943B060C943B060C943B06FC
:100080000C943B060C943B060C943B060C943B06EC
:100090000C943B060C943B060C943B060C943B06DC
:1000A0000C943B060C943B060C943B066707D70761
:1000B000B907FB070F08150819081D0821082508AE
:1000C00029082C0830083408ED100F1102120F1106
:1000D0000212541177110212CC11DF1123152315CE
:1000E0004D154D15A815DC15EA17EA17F315EA1793
:1000F000DE16DE16A417EA17B917D7178042803E1E
:100100003C3A3B456843413F3D2B3580697A790055
:1001100078141E806A801D16041A1F806B061B0748
:10012000082120806C2C1909171522806D11050BF0
:100130000A1C23806E80100D182425806F360E0C4B
:10014000122726807037380F33132D807175348055
:100150002F2E8072397D28308031807380648067D3
:1001600076802A773259745C5F66808062635A5D5C
:100170005E60295344575B565561478080808040BC
:10018000808080808080808080808080807E808071
:100190007C808080808080808080807B8001800364
:1001A0008080807F808080808080806580800280E9
:1001B000808080808080808080808080808080803F
:1001C000808080808080548080808080808080805B
:1001D0008080808080805880808080808080808047
:1001E00080808080804D80504A808080494C518042
:1001F0004F52808080804E80464B4880756E657877
:10020000706563746564207363616E20636F6465F9
:100210002061742045305F46303A20253032580A3C
:1002200000756E6578706563746564207363616ED4
:1002300020636F64652061742046303A2025303297
:10024000580A00756E657870656374656420736321
:10025000616E20636F64652061742046303A2046E9
:100260003028636C65617220616E6420636F6E7408
:100270002E290A00756E6578706563746564207355
:1002800063616E20636F64652061742045303A209D
:10029000253032580A00756E657870656374656440
:1002A000207363616E20636F646520617420494E22
:1002B00049543A20253032580A004F7665727275DB
:1002C0006E0A0025690D0A00706275663A2066752F
:1002D0006C6C0A000A4B6579626F617264207374FA
:1002E0006172742E0A000A55534220636F6E66696C
:1002F00067757265642E0A000A0A544D4B3A30360F
:100300006337656132392F4C5546410A0A00300384
:10031000500053002F00320020006B006500790070
:1003200062006F00610072006400200063006F00D3
:100330006E007600650072007400650072000000B7
:100340000E0374002E006D002E006B002E000000C6
:100350000403090409028D00050100A0320904000C
:1003600000010301010009211101000122400007E1
:1003700005810308000A09040100010301020009C4
:100380002111010001224D000705820308000A091E
:1003900004020001030000000921110100012236BE
:1003A000000705830308000A090403000203000094
:1003B0000009211101000122220007058403200009
:1003C00001070504032000010904040001030000E3
:1003D00000092111010001223900070585032000D1
:1003E000011201100100000008EDFE12650100017C
:1003F00002000105010906A101050719E029E71519
:100400000025019508750181020508190129059546
:1004100005750191029501750391010507190029E0
:10042000F71500250195F875018102C00631FF0915
:1004300074A1010975150026FF0095207508810239
:100440000976150026FF00952075089102C0050168
:100450000980A10185021601002637001A81002AB1
:10046000B700751095018100C0050C0901A1018537
:1004700003160100269C021A01002A9C02751095A1
:10048000018100C005010902A1010901A1000509BE
:1004900019012905150025019505750181029501B0
:1004A000750381010501093009311581257F950208
:1004B0007508810609381581257F95017508810623
:1004C000050C0A38021581257F950175088106C043
:1004D000C005010906A101050719E029E715002556
:1004E00001950875018102950175088101050819BA
:1004F0000129059505750191029501750391010585
:1005000007190029FF150026FF00950675088100D0
:10051000C0636F6E73756D65723A20253034580A6A
:100520000073797374656D3A20253034580A000AD7
:10053000002530325820006B6579626F6172643A31
:1005400020004C45443A20253032580A00253032EC
:10055000583A202530386225730A00722F63203004
:10056000313233343536370A0064656C5F6B657938
:100570005F6269743A2063616E27742064656C3A27
:1005800020253032580A006164645F6B65795F62D0
:1005900069743A2063616E2774206164643A20258F
:1005A0003032580A00290A002575002F00257500F1
:1005B0005D280025640020002564002000256400DB
:1005C00020002564007C0025303258006D6F757363
:1005D000656B6579205B62746E7C7820792076206B
:1005E000685D287265702F61636C293A205B006D2D
:1005F0006B5F776865656C5F74696D655F746F5F6D
:100600006D6178203D2025640A006D6B5F77686519
:10061000656C5F6D61785F7370656564203D202552
:10062000640A006D6B5F74696D655F746F5F6D6107
:1006300078203D2025640A006D6B5F6D61785F73E3
:1006400070656564203D2025640A006D6B5F696EEE
:1006500074657276616C203D2025640A006D6B5FC5
:1006600064656C6179203D2025640A006D6B5F77BD
:100670006865656C5F74696D655F746F5F6D6178E7
:10068000203D2025640A006D6B5F776865656C5FAF
:100690006D61785F7370656564203D2025640A0094
:1006A0006D6B5F74696D655F746F5F6D6178203D20
:1006B0002025640A006D6B5F6D61785F73706565FE
:1006C00064203D2025640A006D6B5F696E7465725D
:1006D00076616C203D2025640A006D6B5F64656C5B
:1006E0006179203D2025640A000A00257500363A0C
:1006F00020776865656C5F74696D655F746F5F6DA9
:1007000061783A20000A00257500353A207768653F
:10071000656C5F6D61785F73706565643A20000A8F
:1007200000257500343A2074696D655F746F5F6DE4
:1007300061783A20000A00257500333A206D61780F
:100740005F73706565643A20000A00257500323ACF
:1007500020696E74657276616C286D73293A200089
:100760000A00257500313A2064656C6179282A31C8
:10077000306D73293A20000A092D2056616C756589
:1007800073202D0A004D3E004D25643E20003F00A1
:100790007365742064656661756C740A00433E205D
:1007A0000077686572652064656C74613A206375D2
:1007B00072736F723D25642C20776865656C3D25EA
:1007C000640A53656520687474703A2F2F656E2E25
:1007D00077696B6970656469612E6F72672F7769DD
:1007E0006B692F4D6F7573655F6B6579730A000ACE
:1007F000092D204D6F7573656B6579202D0A455362
:10080000432F713A09717569740A313A0964656C4C
:100810006179282A31306D73290A323A09696E7478
:10082000657276616C286D73290A333A096D6178B7
:100830005F73706565640A343A0974696D655F7445
:100840006F5F6D61780A353A09776865656C5F6D31
:1008500061785F73706565640A363A097768656523
:100860006C5F74696D655F746F5F6D61780A0A70A3
:100870003A097072696E742076616C7565730A64EA
:100880003A097365742064656661756C74730A75E2
:10089000703A092B310A646F776E3A092D310A706C
:1008A0006775703A092B31300A7067646F776E3A5A
:1008B000092D31300A0A7370656564203D20646536
:1008C0006C7461202A206D61785F737065656420A7
:1008D0002A2028726570656174202F2074696D6507
:1008E0005F746F5F6D6178290A003F004D3E200004
:1008F000433E20004C25640A000A092D20436F6EF8
:10090000736F6C65202D0A4553432F713A09717539
:1009100069740A6D3A096D6F7573656B65790A00C4
:100920000A092D204D61676963202D0A643A096424
:10093000656275670A783A096465627567206D615A
:10094000747269780A6B3A096465627567206B6531
:1009500079626F6172640A6D3A0964656275672035
:100960006D6F7573650A763A0976657273696F6E95
:100970000A733A097374617475730A633A09636F91
:100980006E736F6C65206D6F64650A302D343A09A3
:100990006C61796572302D34284631302D4634290A
:1009A0000A506175733A09626F6F746C6F616465A8
:1009B000720A6E3A094E4B524F0A003F004E4B529C
:1009C0004F3A206F66660A004E4B524F3A206F6EC8
:1009D0000A0074696D65725F72656164333228293B
:1009E0003A202530346C580A006B6579626F617269
:1009F000645F6E6B726F3A2025580A006B657962EE
:100A00006F6172645F69646C653A2025580A006BF7
:100A10006579626F6172645F70726F746F636F6C1F
:100A20003A2025580A00686F73745F6B6579626FAE
:100A30006172645F6C65647328293A2025580A0046
:100A40000A092D20537461747573202D0A004743E1
:100A5000433A20352E342E30204156522D4C4942F7
:100A6000433A20322E302E30204156525F415243BD
:100A7000483A20617672350A004F5054494F4E5320
:100A80003A204C554641204D4F5553454B45592032
:100A900045585452414B455920434F4E534F4C45B6
:100AA00020434F4D4D414E44204E4B524F204B451D
:100AB000594D41505F53454354494F4E20343039CE
:100AC000360A004255494C443A2030366337656156
:100AD0003239202831363A32333A3034204E6F766C
:100AE0002031302032303139290A005649443A2029
:100AF00030784645454428742E6D2E6B2E292050A3
:100B000049443A203078363531322850532F32203C
:100B10006B6579626F61726420636F6E7665727463
:100B2000657229205645523A203078303030310AEB
:100B300000444553433A20636F6E766572742050CB
:100B4000532F32206B6579626F61726420746F205D
:100B50005553420A000A092D2056657273696F6E5B
:100B6000202D0A000A6D6F7573653A206F66660A5C
:100B7000000A6D6F7573653A206F6E0A000A6B6527
:100B800079626F6172643A206F66660A000A6B656B
:100B900079626F6172643A206F6E0A000A6D617447
:100BA0007269783A206F66660A000A6D617472692C
:100BB000783A206F6E0A000A64656275673A206FA2
:100BC0006E0A000A64656275673A206F66660A00FD
:100BD0000A0A626F6F746C6F616465722E2E2E202C
:100BE00000433E20000011241FBECFEFDAE0DEBF3D
:100BF000CDBF04B603FE28C08091890490918A0479
:100C0000A0918B04B0918C048730904BA740B04BDF
:100C1000D9F41092890410928A0410928B041092D5
:100C20008C0414BE0FB6F894A8958091600088617A
:100C300080936000109260000FBE10920108109225
:100C40000008E0E0F8E3099511E0A0E0B1E0E8E198
:100C5000F6E502C005900D92AC34B107D9F724E057
:100C6000ACE4B1E001C01D92A938B207E1F70E94DF
:100C7000B50C0C940A2B0C940000FF93EF93E091B9
:100C80004C01F0914D01309709F00995EF91FF91DA
:100C90000895FC018591803011F0EFDFFBCF0895BE
:100CA000FF27E0E230E247FF0CC0419597FF09C003
:100CB000EDE26095709580959095611D711D811D87
:100CC000911D27FF02C0219530E350E2AA27660F4D
:100CD000771F881F991FAA1FA41710F0A41B6395E4
:100CE0005A95A9F7AA3008F0A95FA05DAF93F395D4
:100CF000611571058105910541F7ED3211F4EF930E
:100D0000F395F21718F43F93F395FBCF8F91B5DF6E
:100D1000FA95E1F70895E991F9918591803021F0F4
:100D2000853219F0AADFF9CF089520E0E8945591B3
:100D30005532C1F3503311F4689455915A3348F445
:100D4000505390F3220F022E220F220F200D250F59
:100D5000F4CF0EF4219589919991533619F35337B5
:100D600029F1533559F1BC0188279927E8945C365D
:100D700021F48991999168945591543639F446EF4C
:100D80007EF077FF0DC08FEF9FEF0AC055374AE026
:100D900039F0583540E121F0523642E009F008952B
:100DA000FF93EF937DDFEF91FF91B7CFFF93EF9329
:100DB000FC0181918030B9F360DFFBCFFF93EF93AB
:100DC00068DFF1CFDF93CF93CDB7DEB72596A3DFF2
:100DD000CF91DF910895E82FE695E695E695F0E04E
:100DE000E15BFE4F4081282F277081E090E002C038
:100DF000880F991F2A95E2F7242F30E02823392302
:100E0000232B11F4842B80830895E82FE695E69533
:100E1000E695F0E0E15BFE4F2081382F377081E0EE
:100E200090E002C0880F991F3A95E2F7422F50E0F8
:100E300048235923452B19F08095822380830895F8
:100E4000809166048160809366040E949008EFE4BC
:100E5000F1E0119281E0EF36F807D9F70895E82F15
:100E6000F0E0E15BFE4F80810895EFE4F1E0119244
:100E700081E0EF36F807D9F70895CF9380916E019E
:100E800086FF03C08EEF0E9405070E946909C82FE4
:100E9000882361F01F928F9383EC92E09F938F934E
:100EA0000E94E2060F900F900F900F9080917101B9
:100EB0008111E1C0E0914E018E2F90E08E309105BE
:100EC00008F0D7C0FC01EA5AFF4F0C941228CA3A26
:100ED00031F178F4C338F9F0C438F9F0C11134C0F5
:100EE0000E9435070E94D3148AEB92E00E944906C3
:100EF000C0C0C13E71F020F4C03E31F582E092C026
:100F0000C03F29F0CC3F01F58DE191E00AC081E0BE
:100F100089C084E087C083E8AAC08CEFA8C08AE1BA
:100F200091E09F938F9380E291E09F938F930E9433
:100F30002C280E943A120E943E0810924E010F90F7
:100F40000F900F900F9097C0C7FD02C08C2F8FC0DD
:100F50000E9435070E94D3141F92CF9386E992E036
:100F60009F938F930E94E2060F900F900F900F9027
:100F700080C0C93509F47DC020F4C23109F479C0BC
:100F800008C0CE3721F0C03F21F483E04BC08BE096
:100F900049C0C7FD03C08C2F806869C00E94350717
:100FA0000E94D3141F92CF9384E792E0D9CFC43824
:100FB00031F0C03F31F0C33889F483E824C08CEFAE
:100FC00022C00E9435070E94D31483E492E09F93CD
:100FD0008F930E94E2060F900F904DC0C7FD02C094
:100FE0008C2F11C00E9435070E94D3141F92CF93FB
:100FF00081E292E0B5CFC231E1F1C935D1F1C7FD4F
:1010000005C08C2F80680E94050733C00E943507F9
:101010000E94D3141F92CF938CEF91E0A1CFC431E3
:1010200041F585E080934E0126C0C73711F586E073
:10103000F9CFC13EF1F487E0F5CFC03FD1F488E0AD
:10104000F1CFC431B1F489E0EDCFC03F91F48AE033
:10105000E9CFC73771F40AC0C03E59F48CE0E2CF43
:10106000C03F39F48DE0DECFCE3719F48EEF0E9409
:10107000EB0610924E0181E0CF910895982F82FBEC
:10108000882780F990FD826091FD84600C94140A99
:101090004FB7F894209172013091730180917401DF
:1010A000909175018217930781F0F901EE0FFF1FF0
:1010B000EA58FE4F808191812F5F3F4F2F71332778
:1010C000309373012093720102C080E090E04FBF23
:1010D0000895CF93DF93EC010E94230A882341F007
:1010E000209731F085E08A95F1F700002197F4CF41
:1010F000CE01DF91CF910895CF93DF93C2E3D0E08B
:101100000E94230A811108C0209731F085E08A955A
:10111000F1F700002197F4CFCE01DF91CF91089530
:101120000E94200A0E94300AE9E6F0E0808188608F
:101130008083E99A08958AE1815019F40E94480851
:1011400008959FB7F89440917401509175012091D2
:101150007201309173019FBF4217530779F7EFE98E
:10116000FFE03197F1F700C00000E6CFEF92FF9269
:101170000F931F93CF93DF93E82E10927101E9989C
:101180000E941D0A0E94300A8FE891E00197F1F752
:1011900000C000000E942D0A0E94200A80E197E210
:1011A0000E946908892B11F48AE077C0C0E0D0E082
:1011B00011E0F12C01E090E59A95F1F7C7010C2EB2
:1011C00002C0959587950A94E2F780FF04C0102726
:1011D0000E94300A02C00E942D0A0E947C08892BBE
:1011E00011F482E05AC082E390E00E946908892BE2
:1011F00011F483E052C02196C830D105E1F680E5B4
:101200008A95F1F7112319F00E94300A02C00E945A
:101210002D0A0E947C08892B11F484E03EC082E3F1
:1012200090E00E946908892B11F485E036C090E5B2
:101230009A95F1F70E94300AC2E3D0E00E94330A87
:10124000882341F0209741F025E02A95F1F700002E
:101250002197F4CFCD2B11F486E01FC082E390E0FC
:101260000E946908892B11F487E017C00E947C084E
:10127000892B19F0C2E3D0E009C088E00EC02097A6
:1012800059F085E08A95F1F7000021970E94330A12
:101290008823A9F3CD2B81F489E0809371010E940A
:1012A000200A0E94300AE99A80E0DF91CF911F91D5
:1012B0000F91FF90EF9008950E94200A0E94300A3B
:1012C000E99ADF91CF911F910F91FF90EF900C94CD
:1012D0009B084FB7F894209174013091750180916B
:1012E0007201909173014FBF2817390729F01092AE
:1012F00071010E944808089580E28093710180E0A6
:1013000008951F920F920FB60F9211242F933F93BF
:101310004F935F936F937F938F939F93AF93BF93FD
:10132000CF93EF93FF930E94230A81116BC08091AA
:1013300070018F5F809370018A3028F4823068F4E6
:10134000813031F054C08A30D9F08B3029F14FC050
:101350000E94330A81114BC055C080916F01869560
:1013600080936F010E94330A882309F44BC0809157
:101370006F01806880936F01809100018F5F40C092
:101380000E94330A90910001882319F090FF2FC02A
:1013900039C090FD2CC036C00E94330A882339F131
:1013A00040916F0150E0CFB7F89480917401909113
:1013B00075019C012F5F3F4F2F71332760917201A0
:1013C000709173012617370761F0880F991FFC0190
:1013D000EA58FE4F51834083309375012093740186
:1013E00004C088EC92E00E944906CFBF04C08091FF
:1013F0007001809371011092700110926F0181E071
:1014000080930001FF91EF91CF91BF91AF919F9198
:101410008F917F916F915F914F913F912F910F909D
:101420000FBE0F901F901895CF93C82F8DEE0E947E
:10143000B6088C2FCF910C94B6085998519A0895FC
:101440005198599A08955198599A85E08A95F1F7DB
:10145000000089B18695817008955898509A089532
:101460005098589A08955098589A85E08A95F1F7BF
:10147000000089B1817008958091DA020895CF93B8
:10148000DF9300D01F92CDB7DEB79C0180917A0424
:10149000843019F593E099833B832A839093E90084
:1014A0008FEF9091E800815095FD06C095ED9A95DB
:1014B000F1F700008111F5CF8091E80085FF0DC0A4
:1014C00040E050E063E070E0CE0101960E94E90D3B
:1014D0008091E8008E778093E8000F900F900F9036
:1014E000DF91CF910895CF93DF9300D01F92CDB7B6
:1014F000DEB720917A04243031F522E02983805828
:1015000091099B838A8383E08093E9008FEF909118
:10151000E800815095FD06C095ED9A95F1F7000021
:101520008111F5CF8091E80085FF0DC040E050E0CB
:1015300063E070E0CE0101960E94E90D8091E80021
:101540008E778093E8000F900F900F90DF91CF91EE
:10155000089520917A042430F1F422E02093E900E8
:101560002FEF3091E800215035FD06C035ED3A955A
:10157000F1F700002111F5CF2091E80025FF0BC005
:1015800040E050E065E070E00E94E90D8091E800E5
:101590008E778093E8000895CF93DF9320917A04AB
:1015A000243009F04AC0EC01809110018823E1F059
:1015B000809111018823C1F085E08093E90081E8E2
:1015C000815049F09091E80095FD05C09AE29A9506
:1015D000F1F700C0F5CF8091E80085FF2EC040E014
:1015E00050E060E270E019C081E08093E90081E89A
:1015F000815059F09091E80095FD07C0EFE3F1E0CC
:101600003197F1F700C00000F3CF8091E80085FF2B
:1016100014C040E050E068E070E0CE010E94E90DA7
:101620008091E8008E778093E80080E2FE01AAEBCB
:10163000B2E001900D928A95E1F7DF91CF91089584
:10164000CF93C091B801C1110BC00E94781F643CB8
:1016500079408105910520F081E08093B801C1E0D7
:101660008C2FCF910895CF93C82F0E94200B8823F1
:1016700009F448C00FB607FE45C080917A04843053
:1016800009F040C08091E9008F702091EC00922F0A
:10169000917020FD90E8892B94E09093E90090915F
:1016A000EB0090FF2CC09091EE0097FF28C0909126
:1016B000040120910301291709F447C02091E80093
:1016C00025FF1DC0E0910101F0910201E90FF11D1C
:1016D00030819F5F20910501922390930401309304
:1016E000F1009091E80095FDE2CF9091E80090FF25
:1016F000DECF9091E8009E779093E800D8CF8F706E
:101700008093E9008091030190E0AC014F5F5F4F4F
:1017100030910501232F30E024233523409104012B
:1017200050E024173507D1F02091010130910201DA
:10173000F901E80FF91FC083809103018F5F909139
:10174000050189238093030109C09091E80095FF6A
:10175000D6CFC093F1008F708093E90080E0CF91E5
:10176000089580917904811109C00E947C0F0E9424
:10177000D90F8091E20084608093E2000895109276
:10178000790408950895089542E061EC81E00E9493
:10179000F50E42E061EC82E00E94F50E42E061EC61
:1017A00083E00E94F50E42E261EC84E00E94F50EB7
:1017B00042E261EC85E00C94F50E80917C0483306C
:1017C00009F455C030F4813071F0823009F48EC0D4
:1017D00008958A3009F47AC08B3009F460C08930EA
:1017E00009F09CC020C080917B04813A09F096C02A
:1017F0008091E800877F8093E80080917F0490913A
:101800008004892B21F460E28AEB92E003C060E05F
:1018100080E090E070E00E94360E8091E8008B77C7
:101820008093E800089580917B04813209F076C0AE
:1018300080917F0490918004009719F0049709F03B
:101840006DC08091E800877F8093E8008091E80078
:1018500082FD05C080917A048111F8CF5FC080912C
:10186000F1008093DA028091E8008B7753C0809179
:101870007B04813A09F052C080917F0490918004EA
:10188000892B09F04BC08091E800877F8093E800A6
:101890008091E80080FFFCCF8091100136C08091DC
:1018A0007B048132D9F580917F0490918004892B4B
:1018B000A9F58091E800877F8093E8000E942A0FB5
:1018C00080917D04809310010C94D31480917B044B
:1018D000813221F58091E800877F8093E8000E94A3
:1018E0002A0F80917E048093DB02089580917B040F
:1018F000813AA1F48091E800877F8093E80080918D
:10190000E80080FFFCCF8091DB028093F1008091A2
:10191000E8008E778093E8000C942A0F0895809158
:10192000DA028093B9011092DA020E9435070C9412
:10193000D3140C948F0C0E94191F80917804882373
:1019400029F00E94261F81110C94D30D08950E9446
:101950003A1F8091B9018093DA0208950C94A70C84
:1019600008950C94B00C0C94B00CCF9384B7877F7F
:1019700084BF0FB6F894A895809160008861809329
:101980006000109260000FBE90E080E80FB6F894FF
:1019900080936100909361000FBE83E39BE00E94FF
:1019A000EC1E86E091E00E94351288EF92E00E94E2
:1019B00049060E94B30C0E94F4120E947C0F0E9400
:1019C000D90F8091E20084608093E20078940E94B5
:1019D000F61280917A04843029F00E941A120E9433
:1019E000B00CF7CF86EE92E00E9449060E94B10C3F
:1019F00084ED92E00E944906C4E080917A0485302B
:101A000019F40E949B0CF9CF0E94FA122091E40075
:101A10003091E5008091B6019091B7012817390700
:101A200009F468C08091E4009091E5009093B701BB
:101A30008093B6010E94200B882309F45BC080913B
:101A40007A04843009F056C08091E9008F702091AB
:101A5000EC00922F917020FD90E8892BC093E90053
:101A60009091EB0090FF43C09091EE0097FF3FC034
:101A70009091040120910301291709F12091E800B8
:101A800025FF1DC0E0910101F0910201E90FF11D58
:101A900030819F5F20910501922390930401309340
:101AA000F1009091E80095FDE3CF9091E80090FF60
:101AB000DFCF9091E8009E779093E800D9CF909186
:101AC000F3002091F20030E0392B232B81F090912C
:101AD000E80090FF0CC09091E80095FF03C01092C1
:101AE000F100F9CF9091E8009E779093E8008F7015
:101AF0008093E9000E941A1280CF292F33272330C8
:101B00003105C9F060F42130310581F02230310512
:101B100009F041C08DE890E024E533E040C0213277
:101B20003105E1F02232310531F135C082E190E03A
:101B300021EE33E034C099278130910549F028F037
:101B4000029749F5EEE0F3E005C0E0E5F3E002C0FE
:101B5000E0E4F3E0849190E09F0121C06530D8F487
:101B6000E62FF0E0EE0FFF1FE95CFE4F2081318190
:101B700089E090E014C0653070F470E0FB01EE0F76
:101B8000FF1FE35DFE4F20813181FB01E85DFE4FC9
:101B9000808190E004C080E090E020E030E0FA0135
:101BA00031832083089580E189BD82E189BD09B434
:101BB00000FEFDCF8091D8008F7D8093D80080916A
:101BC000E00082608093E0008091E00081FDFCCF26
:101BD0000895CF92DF92EF92FF920F931F93CF93CE
:101BE000DF93EC018B017A010E94490F811135C00E
:101BF000E114F10439F0F70180819181081B190B80
:101C0000C80FD91FC12CD12C0115110529F18091C4
:101C1000E80085FD18C08091E8008E778093E80089
:101C20000E941A12E114F10449F0F70180819181B8
:101C3000C80ED91ED182C08285E00FC00E94490F14
:101C4000882311F30AC089918093F1000150110992
:101C5000FFEFCF1ADF0AD8CF80E0DF91CF911F913D
:101C60000F91FF90EF90DF90CF9008952091810425
:101C7000309182042617370748F06115710539F451
:101C80002091E8002E772093E80001C0B901FC0103
:101C900020E06115710579F180917A048823F1F1D2
:101CA0008530F1F18091E80083FD3CC08091E8002F
:101CB00082FD2EC08091E80080FFEBCF2091F300E1
:101CC0008091F20090E0922B6115710551F08830FF
:101CD000910538F421912093F1006150710901962A
:101CE000F3CF21E0089709F020E08091E8008E779B
:101CF0008093E800CECF2111CFCF0AC080917A0423
:101D0000882361F0853061F08091E80083FD0AC08E
:101D10008091E80082FFF2CF80E0089582E008958C
:101D200083E0089581E00895209181043091820438
:101D30002617370748F06115710539F42091E8003E
:101D40002E772093E80001C0B901FC0120E0611565
:101D5000710591F180917A04882309F440C085309F
:101D600009F43FC08091E80083FD3DC08091E80008
:101D700082FD2FC08091E80080FFE9CF2091F30021
:101D80008091F20090E0922B6115710559F0883036
:101D9000910540F424912093F1003196615071092E
:101DA0000196F2CF21E0089709F020E08091E80049
:101DB0008E778093E800CBCF2111CCCF0AC08091E1
:101DC0007A04882361F0853061F08091E80083FD1A
:101DD0000AC08091E80082FFF2CF80E0089582E09F
:101DE000089583E0089581E00895982F973068F56D
:101DF0009093E900981739F07091EC002091ED0074
:101E00005091F00003C0242F762F50E021FD02C036
:101E10009F5FECCF3091EB003E7F3093EB00309131
:101E2000ED003D7F3093ED003091EB003160309359
:101E3000EB007093EC002093ED005093F0002091A4
:101E4000EE0027FDE5CF80E008958F708093E900D4
:101E500081E0089580917B0487FF11C08091E800A4
:101E600082FD05C080917A048111F8CF11C0809164
:101E7000E8008B770BC080917A04882349F0809129
:101E8000E80080FFF8CF8091E8008E778093E8002B
:101E900008952091E4003091E50095E64091EC0032
:101EA000842F817040FF23C08091E80080FD1DC019
:101EB00080917A04882399F0853099F08091EB0025
:101EC00085FD11C04091E4005091E50024173507CD
:101ED00029F3915011F09A01E1CF84E0089582E056
:101EE000089583E0089581E0089580E00895409189
:101EF000E80042FFDDCF08950E94EA0F0E94F20F32
:101F0000E0EEF0E0808181608083E8EDF0E08081A8
:101F10008F77808319BCA7EDB0E08C918E7F8C9376
:101F200080818F7E80831092790408950F931F9390
:101F3000CF93DF930E94EA0F0E94F20FC8EDD0E02A
:101F400088818F77888388818068888388818F7D66
:101F5000888319BC10927A04109276041092780447
:101F60001092770400EE10E0F80180818B7F80836F
:101F700088818160888342E060E080E00E94F50E05
:101F8000E1EEF0E080818E7F8083E2EEF0E0808100
:101F900081608083808188608083F80180818E7F6A
:101FA0008083888180618883DF91CF911F910F9119
:101FB0000895E8EDF0E080818F7E8083E7EDF0E02A
:101FC00080818160808384E082BF81E08093790496
:101FD0000C94960FE8EDF0E080818E7F8083109264
:101FE000E20008951092DA001092E10008951F9225
:101FF0000F920FB60F9211242F933F934F935F933D
:102000006F937F938F939F93AF93BF93EF93FF93C0
:102010008091E10082FF0BC08091E20082FF07C047
:102020008091E1008B7F8093E1000E94C30B80913F
:10203000DA0080FF1FC08091D80080FF1BC0809114
:10204000DA008E7F8093DA008091D90080FF0DC086
:1020500080E189BD82E189BD09B400FEFDCF81E048
:1020600080937A040E94B10B05C019BC10927A04C7
:102070000E94BF0B8091E10080FF19C08091E200B7
:1020800080FF15C08091E2008E7F8093E2008091F6
:10209000E20080618093E2008091D80080628093AA
:1020A000D80019BC85E080937A040E94990C809135
:1020B000E10084FF30C08091E20084FF2CC080E109
:1020C00089BD82E189BD09B400FEFDCF8091D800B1
:1020D0008F7D8093D8008091E1008F7E8093E10016
:1020E0008091E2008F7E8093E2008091E200816027
:1020F0008093E20080917604882311F084E007C089
:102100008091E30087FD02C081E001C083E08093FD
:102110007A040E94AE0C8091E10083FF24C080917C
:10212000E20083FF20C08091E100877F8093E1007F
:1021300082E080937A04109276048091E1008E7F91
:102140008093E1008091E2008E7F8093E200809195
:10215000E20080618093E20042E060E080E00E9463
:10216000F50E0E94C20BFF91EF91BF91AF919F912D
:102170008F917F916F915F914F913F912F910F9030
:102180000FBE0F901F9018951F93CF93DF93CDB77D
:10219000DEB7AA970FB6F894DEBF0FBECDBFEBE750
:1021A000F4E08091F100819324E0E338F207C9F76D
:1021B0000E94DD0B8091E80083FF24C180917B04A5
:1021C00090917C04492F50E04A30510508F01AC123
:1021D000FA01EC59FF4F0C941228803881F08238B4
:1021E00009F010C180917F048F708093E900809185
:1021F000EB0085FB882780F91092E90006C08091EA
:10220000770490917804911182609091E800977F13
:102210009093E8008093F1001092F100C8C0282F3D
:102220002D7F09F0EFC0882319F0823061F0EAC0F9
:1022300080917D04813009F0E5C0933009F080E0A1
:10224000809378042BC080917D04811127C08091F8
:102250007F048F7009F4D6C08093E9002091EB00D1
:1022600020FF1CC0933021F48091EB00806214C0E9
:102270009091EB0090619093EB0021E030E0A90198
:1022800002C0440F551F8A95E2F74093EA0010926E
:10229000EA008091EB0088608093EB001092E900E7
:1022A0008091E800877F86C08111ACC010917D04C9
:1022B0001F778091E3008078812B8093E3008091E9
:1022C000E800877F8093E8000E942A0F8091E80051
:1022D00080FFFCCF8091E30080688093E3001111C0
:1022E00002C082E001C083E080937A048BC08058F2
:1022F000823008F087C080917D0490917E048C3DEF
:1023000053E0950779F583E08A838AE289834FB7A2
:10231000F894DE01139620E03EE051E2E32FF0E076
:1023200050935700E49120FF03C0E295EF703F5FA8
:10233000EF708E2F90E0EA3010F0C79601C0C09683
:102340008D939D932F5F243149F74FBF8091E80013
:10235000877F8093E8006AE270E0CE0101960E94D8
:10236000360E14C0AE014F5F5F4F60917F040E9434
:102370007D0DBC01892B09F445C09091E800977F41
:102380009093E80089819A810E94940E8091E800E0
:102390008B778093E80036C08038A1F58091E80003
:1023A000877F8093E800809176048093F10080918C
:1023B000E8008E778093E8000E942A0F23C08111E5
:1023C00021C080917D0490917E0499270297D4F4D6
:1023D0008091E800877F8093E80080917D0480935E
:1023E00076040E942A0F80917604811106C08091A4
:1023F000E30087FD02C081E001C084E080937A049D
:102400000E94C40B8091E80083FF0AC08091E8001D
:10241000877F8093E8008091EB0080628093EB00DF
:10242000AA960FB6F894DEBF0FBECDBFDF91CF9155
:102430001F910895CF9380917A048823A1F0C091D1
:10244000E900CF709091EC00892F817090FD80E8B9
:10245000C82B1092E9008091E80083FD0E94C4100F
:10246000CF70C093E900CF9108959093E1028093DB
:10247000E0020895E091E002F091E102309721F04E
:102480000190F081E02D099480E00895EF92FF9291
:102490000F931F93CF93DF93E091E002F091E1025D
:1024A0003097B1F18C010280F381E02D0995809184
:1024B000660482FF2DC080FF04C087E395E00E9480
:1024C0004906E80110E281E3E82E85E0F82E8091CC
:1024D000660480FF0BC088811F928F93FF92EF925A
:1024E0000E94E2060F900F900F900F9011502196CE
:1024F0001111EDCF8091660480FF0AC08FE295E054
:10250000DF91CF911F910F91FF90EF900C944906AE
:10251000DF91CF911F910F91FF90EF900895E0917F
:10252000E002F091E102309721F00480F581E02D86
:1025300009940895CF93DF932091DE023091DF025A
:102540002817390709F19093DF028093DE02E091AA
:10255000E002F091E1023097B9F0EC010680F781DA
:10256000E02D09958091660482FF0EC080FF0CC0AB
:10257000DF93CF9381E295E09F938F930E94E206D1
:102580000F900F900F900F90DF91CF910895CF9300
:10259000DF932091DC023091DD022817390709F121
:1025A0009093DD028093DC02E091E002F091E10281
:1025B0003097B9F0EC010084F185E02D0995809108
:1025C000660482FF0EC080FF0CC0DF93CF9381E1D1
:1025D00095E09F938F930E94E2060F900F900F90CB
:1025E0000F90DF91CF9108950C949F130E94631F69
:1025F0000C942007BF92CF92DF92EF92FF920F933D
:102600001F93CF93DF9300D000D01F92CDB7DEB7DA
:102610000E943D0703EE12E0F12C8F2D0E942F0740
:10262000B82EF801C080C82639F4F3940F5F1F4F0D
:10263000F0E2FF12F2CF30C08091660481FD0E946B
:10264000A013D12CEE24E3948C2D8E21F9F0D982A5
:10265000FA8291E08B2D8E2109F490E09B830E94F9
:102660006C1F8160782F9D838C8349815A816B8197
:102670008D810E94D61349815A816B817C818D8125
:102680000E94041FF80180818E258083D394EE0C74
:10269000F8E0DF12D9CFC9CF8FEF89838A831B82FD
:1026A0000E946C1F8160782F9D838C8349815A81A1
:1026B0006B818D810E94D6130E94031F0E942A22E3
:1026C0000E943A129091E202891741F10E943A1257
:1026D0008093E2029091660492FF0EC090FF0CC0BE
:1026E0001F928F9382E495E09F938F930E94E2065E
:1026F0000F900F900F900F908091E2020F900F902B
:102700000F900F900F90DF91CF911F910F91FF903D
:10271000EF90DF90CF90BF900C94151F0F900F900B
:102720000F900F900F90DF91CF911F910F91FF901D
:10273000EF90DF90CF90BF9008950C943E080895DD
:10274000EF92FF920F931F93CF93DF938BE595E06A
:102750000E944906C0E0D0E087E2E82E81E0F82E32
:102760000DE415E08C2F0E942F070E94F11EFF92AE
:10277000EF921F928F93DF93CF931F930F930E943B
:10278000E20621968DB79EB708960FB6F8949EBFC5
:102790000FBE8DBFC032D10529F7DF91CF911F91B8
:1027A0000F91FF90EF90089508950895CF93DF93D0
:1027B000CDB7DEB72B970FB6F894DEBF0FBECDBFF7
:1027C000942F4F83252F588769877A878B874A856F
:1027D0005B85452B31F02F3F31F481E09F3F19F4A9
:1027E00003C081E001C080E080FD07C04F815885B3
:1027F00069857A858B850E94041FDE01119686E02B
:10280000FD0111928A95E9F785E0FE013796019066
:102810000D928A95E1F749815A816B817C818D8186
:102820009E810E94FF1A2B960FB6F894DEBF0FBE52
:10283000CDBFDF91CF910895CF93882309F465C070
:10284000C82F8CEF8C0F813A20F080E58C0F8E32F0
:1028500048F48C2F0E947425811157C08C2F0E9440
:10286000E71D0CC080E28C0F883058F4C77081E0FF
:1028700001C0880FCA95EAF70E948C1ECF910C9474
:10288000C61E8BE58C0F833078F4C53A29F0C63A22
:1028900031F083E890E005C081E890E002C082E872
:1028A00090E0CF910C949A1288E58C0F853168F5F1
:1028B000C83A89F0C93A91F0CA3A99F0CB3AA1F0F6
:1028C000CC3AA9F0CD3AB1F0CE3AB9F0CF3AC1F056
:1028D00080E090E017C082EE90E014C089EE90E0B6
:1028E00011C08AEE90E00EC085EB90E00BC086EB45
:1028F00090E008C083EB90E005C084EB90E002C05C
:1029000087EB90E0CF910C94C712CF910895882364
:1029100049F19CEF980F913A20F090E5980F9E3284
:1029200018F40E94371E0DC090E2980F983058F4AA
:10293000877091E001C0990F8A95EAF7892F0E946C
:10294000921E0C94C61E9BE5980F933020F480E0F5
:1029500090E00C949A12885A853120F480E090E03F
:102960000C94C7120895882321F00E948C1E0C94A9
:10297000C61E0895882321F00E94921E0C94C61E44
:1029800008950E94AC1E0E947B1E0E94C61E0E94DB
:10299000CF220E949D2180E090E00E949A1280E068
:1029A00090E00C94C7120E949C1E0C94C114CF920C
:1029B000DF92EF92FF920F931F93CF93DF9300D09C
:1029C00000D01F92CDB7DEB76C010E94171F811196
:1029D00001C385E0F601DE01119601900D928A9502
:1029E000E1F7F601408151812381348121153105C0
:1029F00031F05F3F31F481E04F3F19F403C081E0D3
:102A000001C080E080FDE6C2F601F280E580E2943C
:102A10008FE0E82249835A83FB82722F3D832C8307
:102A20006F2D8D810E94631D8C010E94621D0E948A
:102A3000521CE12FE295EF708E2F90E0FC01E259DD
:102A4000FF4F0C941228812F807F1F70882311F074
:102A50001295107FFF2049F0112309F452C2812FF3
:102A60000E949F1E0E94C61E4CC2802F0E94871487
:102A7000112309F4AFC2812F0E94A51E0F900F9061
:102A80000F900F900F90DF91CF911F910F91FF90BA
:102A9000EF90DF90CF900C94C61E812F807F1F7027
:102AA000803211F01295107F002319F0013009F1E6
:102AB0002BC0FF20A9F0EE2059F1F1E0812FEF1299
:102AC00028C00F900F900F900F900F90DF91CF9133
:102AD0001F910F91FF90EF90DF90CF900C94AF1E5D
:102AE000EE2021F021E0E21609F474C20E94B21E29
:102AF0002DC0FF20E9F085E08E1508F46BC20E941E
:102B0000891E812329F022C0FF20F1F0E11015C0B9
:102B1000812F0F900F900F900F900F90DF91CF911A
:102B20001F910F91FF90EF90DF90CF900C94B31412
:102B300094E09E1508F44EC209C0F601858180FF1D
:102B4000E0C18F708583E4CFE110EEC1812F61C1B8
:102B5000812F86958695837019F08130B9F03AC23D
:102B6000FF2019F0C801937002C080E090E00F9040
:102B70000F900F900F900F90DF91CF911F910F91B9
:102B8000FF90EF90DF90CF900C949A12FF2019F0F5
:102B9000C801937002C080E090E00F900F900F90FA
:102BA0000F900F90DF91CF911F910F91FF90EF90B9
:102BB000DF90CF900C94C712802FFF2019F00E9455
:102BC000B02002C00E9418210F900F900F900F901C
:102BD0000F90DF91CF911F910F91FF90EF90DF90B9
:102BE000CF900C949D21812F837009F070C0F1105B
:102BF000F1C1202F229526952770220F220F602FDA
:102C00006F70862F90E0A0E0B0E06C017D01022E95
:102C100004C0CC0CDD1CEE1CFF1C0A94D2F704FF90
:102C200012C08FE090E0A0E0B0E004C0880F991FD0
:102C3000AA1FBB1F2A95D2F7BC01CD0160957095E4
:102C40008095909503C060E070E0CB0116951695D5
:102C500013701230B1F040F56C297D298E299F291F
:102C6000113031F10F900F900F900F900F90DF9176
:102C7000CF911F910F91FF90EF90DF90CF900C9428
:102C8000771C6C297D298E299F290F900F900F901A
:102C90000F900F90DF91CF911F910F91FF90EF90C8
:102CA000DF90CF900C94911C0E94771CC701B60155
:102CB0000F900F900F900F900F90DF91CF911F9179
:102CC0000F91FF90EF90DF90CF900C945D1CFF2050
:102CD00019F0812F817001C08695882309F47AC18B
:102CE000202F229526952770220F220F602F6F70BC
:102CF000862F90E0A0E0B0E06C017D01022E04C0C0
:102D0000CC0CDD1CEE1CFF1C0A94D2F704FF12C091
:102D10008FE090E0A0E0B0E004C0880F991FAA1FE8
:102D2000BB1F2A95D2F7BC01CD01609570958095A7
:102D3000909503C060E070E0CB0116951695137076
:102D40001230B1F040F56C297D298E299F29113070
:102D500031F10F900F900F900F900F90DF91CF9166
:102D60001F910F91FF90EF90DF90CF900C943E1D3C
:102D70006C297D298E299F290F900F900F900F901D
:102D80000F90DF91CF911F910F91FF90EF90DF9007
:102D9000CF900C94501D0E943E1DC701B6010F90AC
:102DA0000F900F900F900F90DF91CF911F910F9187
:102DB000FF90EF90DF90CF900C942C1D003FC1F15D
:102DC00028F480E4800F803250F096C0023F09F46E
:102DD0005EC008F449C0033F09F46CC08DC0F02FF9
:102DE000F071EF2E812F8F71FF2051F00E94C51CD2
:102DF000802FEE2019F08295807F8BCE8F7089CE48
:102E00000E94E61C802FEE2019F08295807F01C081
:102E10008F700F900F900F900F900F90DF91CF91C8
:102E20001F910F91FF90EF90DF90CF900C94BA1408
:102E3000FF20A9F024E02E1508F4CCC0812F8F715B
:102E40000F900F900F900F900F90DF91CF911F91E7
:102E50000F91FF90EF90DF90CF900C940B1D85E0C9
:102E60008E1508F4B7C0EACFFF2099F0812F8F713B
:102E70000F900F900F900F900F90DF91CF911F91B7
:102E80000F91FF90EF90DF90CF900C94C51CFF2026
:102E900069F3812F8F710F900F900F900F900F900B
:102EA000DF91CF911F910F91FF90EF90DF90CF9026
:102EB0000C94E61CFF2089F0812F8F710F900F90EA
:102EC0000F900F900F90DF91CF911F910F91FF9076
:102ED000EF90DF90CF900C94B01C0F900F900F905C
:102EE0000F900F90DF91CF911F910F91FF90EF9076
:102EF000DF90CF900C94AB1CFF2099F0EE2009F4EA
:102F0000B5CF802F0F900F900F900F900F90DF9103
:102F1000CF911F910F91FF90EF90DF90CF900C9485
:102F20001C14EE2009F4B5CF802F0F900F900F9056
:102F30000F900F90DF91CF911F910F91FF90EF9025
:102F4000DF90CF900C948714412F4F70602FC601F3
:102F50000E942A200F900F900F900F900F90DF91FA
:102F6000CF911F910F91FF90EF90DF90CF900C9435
:102F7000AD1B01112FC0FF2069F10E94D3149FEFF8
:102F8000E0E7F2E09150E040F040E1F700C00000DF
:102F90000F900F900F900F900F90DF91CF911F9196
:102FA0000F91FF90EF90DF90CF900C94D31F412FA3
:102FB0004F70602FC6010F900F900F900F900F90E1
:102FC000DF91CF911F910F91FF90EF90DF90CF9005
:102FD0000C942D200F900F900F900F900F90DF9179
:102FE000CF911F910F91FF90EF90DF90CF900895B8
:102FF0001F93CF93DF9300D000D01F92CDB7DEB7E1
:10300000942F4983252F5A836B837C838D834C8136
:103010005D81452B31F02F3F31F481E09F3F19F462
:1030200003C081E001C080E0182F117080FD31C025
:1030300049815A816B817C818D810E94631D292F7A
:1030400022952F702C3030F42A30A0F422502230F8
:1030500030F022C02C30C9F02F30B9F01DC0853AB5
:1030600028F48430C0F4823028F415C090E2980F20
:10307000983088F0883E30F4803E68F48450813A7D
:1030800058F409C0803F41F406C093FB112710F9A2
:1030900003C010E001C011E0812F0F900F900F903E
:1030A0000F900F90DF91CF911F910895CF93DF93F1
:1030B00000D000D01F92CDB7DEB70F900F900F90C9
:1030C0000F900F90DF91CF910895CF93DF9300D0B1
:1030D00000D000D0CDB7DEB726960FB6F894DEBF8D
:1030E0000FBECDBFDF91CF9108951F93CF93DF9394
:1030F000C091030316E080910403C81799F0D0E053
:103100001C9FF0011D9FF00D1124EB5FFC4F4081CF
:10311000518162817381848195810E946518219615
:10312000C770E9CFDF91CF911F910895409135038A
:1031300050913603609137037091380380913903C1
:1031400090913A030C946518CF9380913A0382953D
:103150008F7009F05FC080913703882309F45AC04B
:1031600080910303B091040370913503A09136035D
:10317000409138035091390391E07F3F09F090E08E
:10318000692FC6E08B1709F445C04115510521F0A0
:10319000AF3F21F020E003C021E001C0262F90E0E6
:1031A00020FD35C0C89FF001C99FF00D1124EB5FD1
:1031B000FC4F21812A132BC02081271328C0228194
:1031C000211125C0238134812417350710F42150A3
:1031D0003109241B350B283C3105C8F420913A03F2
:1031E0002F70206120933A0326E0289FF001299F49
:1031F000F00D1124E65FFC4F80818F708061808329
:1032000085E393E00E94D714CF910C947518019632
:103210008770B8CFCF910895AF92BF92CF92DF92CF
:10322000EF92FF920F931F93CF93DF93CDB7DEB74B
:1032300061970FB6F894DEBF0FBECDBF7C0185E06D
:10324000F701DE011D9601900D928A95E1F7D701F5
:103250004C9111965C9111971296DC9012971396EF
:103260000D911C9114973091350360913603809134
:10327000380390913903009731F06F3F31F421E02A
:103280003F3F19F403C021E001C020E0B22FB1702C
:10329000BB2E20FD6EC1A0903703AA2009F4CCC03C
:1032A00020913A030817190728F0F801E81BF90BD9
:1032B000CF0104C080959095800F911FCC24C394BA
:1032C000883C910580F0C12C207F09F0A1C0702FAF
:1032D000198B088B6D2D89890E94561885E393E020
:1032E0000E94D714BDC0822F807F09F056C05613AC
:1032F00015C0431313C0CD2CD11010C02F70206106
:1033000020933A030E94961885E393E00E94D71415
:1033100080913A03D70115968C935FC10115110571
:1033200031F05F3F31F481E04F3F19F403C081E099
:1033300001C080E080FD03C081E08D2502C080E0F7
:1033400090E0B82FB170CB2E80FF1CC0809103039A
:103350002091040336E0821709F41CC190E0389FE5
:10336000F001399FF00D1124EB5FFC4F6181561382
:1033700006C06081461303C06281D61203C0019665
:103380008770E9CFCD2CDD2009F427C180913A0365
:10339000816080933A03C12C20C1561308C04313A7
:1033A00006C0D11004C080913A03D701B6C04D8742
:1033B0005E87DF86702F198B088B6D2D89890E949F
:1033C000F817882399F1DD2089F120913A03822FA3
:1033D00082958F7090E0029774F080913503909100
:1033E000360398878F8319861B870A872C87CE011F
:1033F00007960E94D71486E0F701A5E3B3E0019099
:103400000D928A95E1F70E94A4180E94961811C0A7
:10341000561781F14D875E87DF86702F198B088BD9
:103420006D2D89890E94F817811138C0C7010E944B
:10343000D714CC24C394D1C00817190708F446C088
:10344000F801E81BF90BCF01883C910508F443C053
:10345000C12C702F198B088B6D2D89890E945618ED
:10346000E5E3F3E086E0DF011D928A95E9F70E942B
:103470009618B3C04313CECFD110CCCF80913A036E
:10348000F7018583C7010E94D71486E0E5E3F3E0E6
:10349000DF011D928A95E9F7CA2C9FC0DD2031F229
:1034A00020913A03822F82958F7090E002970CF45E
:1034B000A2CF80913503909136039A8389831B8232
:1034C0001D830C832E83CE01019693CF809590951A
:1034D000800F911FB9CFCD2CDD2009F4A7CF561353
:1034E00033C0431331C020913A0320FD24C0822F02
:1034F00082958F70482F50E041155105E1F0D701BA
:1035000015962C9315974F30510549F08F5F982FE2
:103510009295907F822F8F70892B15968C93C7017F
:103520000E94D71486E0F701A5E3B3E001900D9265
:103530008A95E1F79CCF86E0F701A5E3B3E001901F
:103540000D928A95E1F749C04D875E87DF86702F1F
:10355000198B088B6D2D89890E94F81781114BCF2B
:1035600080913A03816080933A03C7010E94D71487
:1035700034C0DD2009F45ACF4D875E87DF86702F77
:10358000198B088B6D2D89890E94F817882309F4FF
:103590004DCF31CF702F198B088B6D2D89890E94EB
:1035A000631D292F22952F70223028F49F7039F047
:1035B000811105C00BC0243028F49F7049F4805E4F
:1035C000883020F0C7010E94D714BC2CCB2C05C03A
:1035D000F7019581907F99F7F9CF8C2D61960FB601
:1035E000F894DEBF0FBECDBFDF91CF911F910F9139
:1035F000FF90EF90DF90CF90BF90AF9008951F9312
:10360000CF93DF93CDB7DEB72C970FB6F894DEBF1C
:103610000FBECDBF4F83588769877A878B879C877A
:10362000CE0107960E940C198823D1F09F818885CE
:103630002A853B85232B31F08F3F31F481E09F3F7A
:1036400019F403C081E001C080E080FD47C04F81D4
:10365000588569857A858B859C850E9465183EC052
:1036600086E0FE013796DE01119601900D928A9553
:10367000E1F7FF81E8856A857B856115710531F089
:10368000EF3F31F481E0FF3F19F403C081E001C056
:1036900080E080FD23C02091040330E0C901019641
:1036A000877099274091030350E084179507F1F143
:1036B000F983EA837D836C8396E0929FD001939F88
:1036C000B00D1124AB5FBC4FFE01319601900D92FD
:1036D0009A95E1F7809304030E94751816E0809193
:1036E000030390910403891771F1189FC0011124FD
:1036F0008B5F9C4F0E940C19882329F1E0910303F2
:103700001E9FF0011124EB5FFC4F408151816281CB
:103710007381848195810E9465188091030390E0F4
:1037200001968770992780930303D9CF0E94D31401
:103730001092040310920303E5E3F3E086E0DF0157
:103740001D928A95E9F72C960FB6F894DEBF0FBE4E
:10375000CDBFDF91CF911F910895DF92EF92FF923D
:103760000F931F93CF93DF93FC01892B09F488C03B
:10377000E12CF12CDD24D394EF012196849185373F
:1037800009F460C058F4843708F04EC0843008F063
:1037900068C08130D1F0823071F172C0883709F48D
:1037A0005BC050F4863709F453C0873709F068C00E
:1037B0008E2D0E94991E52C09CE7980F903708F0FA
:1037C0005FC08F770E9487144EC08F010E5F1F4F1E
:1037D000FE01849190E2980F983050F48770FD2D8F
:1037E00001C0FF0F8A95EAF78F2F0E949F1E15C018
:1037F0000E941C1414C08F010E5F1F4FFE018491A4
:1038000090E2980F983068F48770FD2D01C0FF0F8B
:103810008A95EAF78F2F0E94A51E0E94C61EE80116
:1038200022C00E948714FBCFCF010296FE01C491F3
:10383000CC2361F0EFE9FFE03197F1F700C0000021
:10384000C150F6CFCF010296FE01F490EC010BC0FF
:103850000E94891EE82E07C00E949C1E0E94C61E60
:1038600002C00E941C148F2D882341F0EFE9FFE075
:103870003197F1F700C000008150F6CFFE017CCFF8
:10388000DF91CF911F910F91FF90EF90DF900895FE
:1038900060933B0470933C0480933D0490933E04FA
:1038A0000C94141F089560933F0470934004809318
:1038B0004104909342040C94131F0F931F930091A3
:1038C0003F04109140042091410430914204602B48
:1038D000712B822B932B60933F0470934004809351
:1038E0004104909342041F910F910C94131F0F9366
:1038F0001F9300913F0410914004209141043091A6
:103900004204602371238223932360933F047093C6
:10391000400480934104909342041F910F910C94B2
:10392000131F0F931F9300913F04109140042091A7
:1039300041043091420460277127822793276093C6
:103940003F047093400480934104909342041F917C
:103950000F910C94131F60E070E0CB010C94481C95
:103960000F931F9341E050E060E070E08A019B01FB
:1039700004C0000F111F221F331F8A95D2F7C901FF
:10398000B8011F910F910C94481C0F931F9341E0B5
:1039900050E060E070E004C0440F551F661F771FC1
:1039A0008A95D2F780913B0490913C04A0913D040C
:1039B000B0913E048A019B01082B192B2A2B3B2B2B
:1039C000C901B8011F910F910C94481C0F931F93CC
:1039D00041E050E060E070E004C0440F551F661FF6
:1039E000771F8A95D2F74095509560957095809194
:1039F0003B0490913C04A0913D04B0913E048A01A7
:103A00009B01082319232A233B23C901B8011F91D5
:103A10000F910C94481C0F931F9341E050E060E01D
:103A200070E004C0440F551F661F771F8A95D2F7B8
:103A300080913B0490913C04A0913D04B0913E04E0
:103A40008A019B01082719272A273B27C901B801AA
:103A50001F910F910C94481C0F931F9300913B04EE
:103A600010913C0420913D0430913E04602B712B59
:103A7000822B932B1F910F910C94481C0F931F9333
:103A800000913B0410913C0420913D0430913E0490
:103A900060237123822393231F910F910C94481C60
:103AA0000F931F9300913B0410913C0420913D041F
:103AB00030913E0460277127822793271F910F9131
:103AC0000C94481C08958F929F92AF92BF92DF9200
:103AD000EF92FF920F931F93CF93DF9300D000D00C
:103AE0001F92CDB7DEB76B837C838D838A018C8177
:103AF0009D81892B31F01F3F31F481E04F3F19F454
:103B000003C081E001C080E080FF03C080E090E05E
:103B10004DC08B818823D1F180903B0490903C0470
:103B2000A0903D04B0903E0480913F0490914004E9
:103B3000A0914104B0914204882A992AAA2ABB2A5A
:103B40008FE1E82EF12CD501C4010E2C04C0B695EE
:103B5000A795979587950A94D2F780FD06C081E0D6
:103B6000E81AF10880F7D12C07C0DE2CB8018E2DA1
:103B70000E940120019799F388E0189FF001112419
:103B8000E55CFC4FE00FF11DD08209C088E0189F72
:103B9000F0011124E55CFC4FE00FF11DD08009839A
:103BA0001A8369817A818D2D0E9401200F900F90D8
:103BB0000F900F900F90DF91CF911F910F91FF9079
:103BC000EF90DF90BF90AF909F908F90089590916D
:103BD0001001992379F190911101992359F1982FAE
:103BE0009695969596959F31A1F0E0911201F091EE
:103BF0001301E90FF11D877021E030E0A90102C037
:103C0000440F551F8A95E2F7CA019181892B818360
:103C100008959091660490FF29C01F928F9387E8C2
:103C200095E09F938F930E94E2060F900F900F9064
:103C30000F9008952091120130911301F9013296ED
:103C40009FEF40E05191851789F09F3F19F4511182
:103C500001C0942F4F5F4E31A9F79F3F39F0F90112
:103C6000E90FF11D97FDFA958283089508959091CB
:103C70001001992381F190911101992361F1982FFD
:103C80009695969596959F31A9F0E0911201F09145
:103C90001301E90FF11D877021E030E0A90102C096
:103CA000440F551F8A95E2F7CA01809591818923B7
:103CB000818308959091660490FF1CC01F928F939A
:103CC00089E695E09F938F930E94E2060F900F90F4
:103CD0000F900F900895E0911201F09113019F0150
:103CE000225E3F4F9281891301C012823196E21702
:103CF000F307C1F7089581E090E0E0911201F0919F
:103D00001301E80FF91F1082019680329105A9F77F
:103D1000089580916504089590916504892B80939E
:103D200065040895809590916504892380936504C6
:103D30000895809365040895109265040895909104
:103D40006404892B809364040895809590916404A1
:103D500089238093640408951092640408958093E5
:103D600043040895109243040895809112019091A4
:103D70001301FC0131969C01205E3F4F80E0919140
:103D800091118F5FE217F307D1F70895E0911201C7
:103D9000F0911301809165048083E0911201F0910C
:103DA0001301908180916404892B80838091430466
:103DB000882361F0E0911201F09113019081892B29
:103DC00080830E94B51E81111092430480911201DC
:103DD000909113010C94461290934D0180934C01E5
:103DE00008958295982F937344E0949F9001112435
:103DF0008C7C86958695282B822F8575880F2A7A4C
:103E00002695822B08950895CF93DF9300D000D09C
:103E10001F92CDB7DEB70F900F900F900F900F90BD
:103E2000DF91CF910895089508950C949D1380E03B
:103E3000089583B7817F8C6083BF83B7816083BF20
:103E40007894889583B78E7F83BF0895CF930E941F
:103E5000D4130E943D070E94D513C0E08C2F0E940E
:103E60002F07811104C0CF5FC032C1F701C081E0CC
:103E7000CF9108950E9435070C94D3141F920F928E
:103E80000FB60F9211248F939F93AF93BF9380919E
:103E9000670490916804A0916904B0916A04419606
:103EA000A11DB11D8093670490936804A0936904D9
:103EB000B0936A04BF91AF919F918F910F900FBE05
:103EC0000F901F90189582E084BD93E095BD9AEF06
:103ED00097BD80936E0008952FB7F8948091670482
:103EE00090916804A0916904B0916A042FBF08956D
:103EF0002FB7F89460916704709168048091690409
:103F000090916A042FBF0895CF92DF92EF92FF92B3
:103F10000F931F932FB7F894409167045091680452
:103F20006091690470916A042FBF6A017B01EE24DD
:103F3000FF248C0120E030E0C016D106E206F30633
:103F400010F4415051099A01281B390BC9011F91E6
:103F50000F91FF90EF90DF90CF9008951F920F92F6
:103F60000FB60F9211248F939F93AF93BF938091BD
:103F7000670490916804A0916904B0916A04019665
:103F8000A11DB11D8093670490936804A0936904F8
:103F9000B0936A04BF91AF919F918F910F900FBE24
:103FA0000F901F9018950E947C0FF89487E797E771
:103FB000909301088093000887E090EBDC018093E8
:103FC000890490938A04A0938B04B0938C049CE0A2
:103FD00088E10FB6F894A895809360000FBE909387
:103FE0006000FFCFE82FF0E088E0989FE00DF11D22
:103FF0001124E450FF4F9491892F8F7092959F70F8
:104000000895CF93C82FCB010E94F21FE92F90E0B3
:1040100040E1E49F90011124282B392B20383105F1
:1040200019F480E090E014C0E770F0E028E0C29F4F
:10403000E00DF11D112424E0EE0FFF1F2A95E1F79A
:10404000E80FF91FEE0FFF1FE050F849859194919A
:10405000CF91089580E090E00895089580916D04D7
:1040600080FF0BC06091170185E0689FB0011124AB
:1040700075956795759567952BC081FF09C060910F
:10408000170185E0689FB00111247595679520C0E0
:1040900082FF07C06091170185E0689FB00111247D
:1040A00017C090916E049923D1F060911601961774
:1040B00088F72091170185E0289F90011124929F95
:1040C000A001939F500D112470E0CA010E94FE27A9
:1040D0006038710540F46115710519F406C065E09A
:1040E00070E0862F08958FE7089581E0089580910C
:1040F0006D0480FF08C06091150170E075956795AB
:104100007595679521C081FF06C06091150170E02B
:104110007595679519C082FF04C06091150170E024
:1041200010C090916E04992399F060911401961734
:10413000A0F780911501899FC001112470E00E94B1
:10414000FE276038710540F46115710519F406C049
:1041500061E070E0862F08958FE7089581E008956B
:10416000803F21F40E942E20819504C0813F29F4D4
:104170000E942E20809371040895823F21F40E94B2
:104180002E20819504C0833F29F40E942E20809325
:1041900070040895893F19F40E94772005C08A3F72
:1041A00031F40E94772081958093720408958B3FAB
:1041B00021F40E947720819504C08C3F29F40E944D
:1041C0007720809373040895843F21F480916F04D5
:1041D000816017C0853F21F480916F04826011C017
:1041E000863F21F480916F0484600BC0873F21F4E7
:1041F00080916F04886005C0883F31F480916F041E
:10420000806180936F0408958D3F21F480916D0447
:1042100081600BC08E3F21F480916D04826005C0E7
:104220008F3F29F480916D04846080936D0408951C
:10423000803F39F48091710487FF6CC01092710443
:1042400069C0813F29F4809171041816BCF362C0E3
:1042500090917004823F29F497FF5CC01092700423
:1042600059C0833F19F41916CCF354C0893F41F467
:104270008091720418160CF04DC0109272044AC05E
:104280008A3F29F48091720487FF44C0F6CF8B3FA8
:1042900039F48091730487FF3DC0109273043AC0D3
:1042A0008C3F29F4809173041816BCF333C0843F0B
:1042B00021F480916F048E7F17C0853F21F4809197
:1042C0006F048D7F11C0863F21F480916F048B7F36
:1042D0000BC0873F21F480916F04877F05C0883F22
:1042E00031F480916F048F7E80936F0413C08D3FF3
:1042F00021F480916D048E7F0BC08E3F21F480915C
:104300006D048D7F05C08F3F29F480916D048B7FF4
:1043100080936D048091700481110EC080917104AE
:1043200081110AC080917204811106C080917304CA
:10433000811102C010926E0408958091660483FF7B
:104340007EC08CEC95E00E94490680916F041F921C
:104350008F9387EC95E09F938F930E94E20685EC04
:1043600095E00E94490680917004282F082E000CC9
:10437000330B3F938F9382EC95E09F938F930E9432
:10438000E20680EC95E00E94490680917104282F96
:10439000082E000C330B3F938F938DEB95E09F938A
:1043A0008F930E94E2068BEB95E00E944906809174
:1043B0007204282F082E000C330B3F938F9388EB49
:1043C00095E09F938F930E94E20686EB95E00E9412
:1043D000490680917304282F082E000C330B3F935D
:1043E0008F9383EB95E09F938F930E94E20680EB7F
:1043F00095E00E94490680916E041F928F938DEA8A
:1044000095E09F938F930E94E2068BEA95E00E94CD
:10441000490680916D041F928F9388EA95E09F93DF
:104420008F930E94E20685EA95E00E9449068DB7C7
:104430009EB74C960FB6F8949EBF0FBE8DBF8FE609
:1044400094E00E948F120E946C1F90936C048093E2
:104450006B0408951F93CF93DF9380916B04909129
:104460006C040E94841FAC0190916E04992321F08A
:104470002091180130E006C0209119018AE0289FA0
:10448000900111244217530708F485C080917004ED
:10449000C0917104D091720410917304811107C00E
:1044A000C11175C0D11173C0111171C074C09F3F8B
:1044B00019F09F5F90936E04181624F40E942E202A
:1044C000809370048091700487FF05C00E942E20A5
:1044D0008195809370041C1624F40E942E208093F2
:1044E00071048091710487FF05C00E942E20819580
:1044F0008093710460917004662331F1C09171045E
:10450000CC2311F1062E000C770B880B990B0E941F
:10451000052723E333E343E35FE30E9469270E9417
:10452000CD26609370046C2FCC0F770B880B990B02
:104530000E94052723E333E343E35FE30E946927F7
:104540000E94CD26609371041D1624F40E947720EA
:10455000809372048091720487FF05C00E947720C7
:10456000819580937204111624F40E947720809321
:1045700073048091730487FF05C00E9477208195A2
:1045800080937304DF91CF911F910C949D219F3FE5
:1045900009F08FCFA0CFDF91CF911F910895EFE663
:1045A000F4E085E0DF011D928A95E9F710926E0430
:1045B00010926D0408958FEE97E00E9449061F92B5
:1045C00081E08F931F9285E08F9381EA97E09F931C
:1045D0008F930E94E2060F900F900F900F900F9014
:1045E0000F9008958330E9F128F4813061F0823032
:1045F00009F10895853009F462C008F449C0863095
:1046000009F474C0089580911901262F30E0280F15
:10461000311D2F3F310524F4680F6093190103C049
:104620008FEF80931901809119011F928F938AED6A
:1046300096E072C080911801262F30E0280F311DBE
:104640002F3F310524F4680F6093180103C08FEFEA
:1046500080931801809118011F928F9388EC96E047
:104660005BC080911701262F30E0280F311D2F3FAE
:10467000310524F4680F6093170103C08FEF809316
:104680001701809117011F928F9385EB96E044C02C
:1046900080911601262F30E0280F311D2F3F310564
:1046A00024F4680F6093160103C08FEF8093160106
:1046B000809116011F928F9380EA96E02DC0809121
:1046C0001501262F30E0280F311D2F3F310524F42E
:1046D000680F6093150103C08FEF809315018091DF
:1046E00015011F928F9387E896E016C08091140100
:1046F000262F30E0280F311D2F3F310524F4680F9D
:104700006093140103C08FEF809314018091140112
:104710001F928F938CE696E09F938F930E94E20600
:104720000F900F900F900F900895833081F128F42F
:10473000813059F08230D1F00895853009F449C0B4
:10474000B8F1863009F456C00895809119016817B0
:1047500020F4861B8093190102C0109219018091E8
:1047600019011F928F938DE596E054C08091180136
:10477000681720F4861B8093180102C0109218015C
:10478000809118011F928F938BE496E043C0809133
:104790001701681720F4861B8093170102C010923E
:1047A0001701809117011F928F9388E396E032C022
:1047B00080911601681720F4861B8093160102C0B1
:1047C00010921601809116011F928F9383E296E05A
:1047D00021C080911501681720F4861B8093150174
:1047E00002C010921501809115011F928F938AE0EB
:1047F00096E010C080911401681720F4861B809306
:10480000140102C010921401809114011F928F9321
:104810008FEE95E09F938F930E94E2060F900F908A
:104820000F900F900895CF93C82F1F928F9384EF0E
:1048300098E09F938F930E94E20681E090E0A0E0D1
:10484000B0E0BC01CD0104C0660F771F881F991F1F
:10485000CA95D2F70E94531C0F900F900F900F90A3
:10486000CF910C94D314CF938732A8F58E3108F0F2
:104870002BC1803109F49FC0F8F4873009F464C07B
:10488000A8F4863009F024C180916604817F8E7F70
:104890008093660489EF98E00E94490681EE9BE0D0
:1048A0000E94490681E0809375044CC08B30F1F181
:1048B0008E3009F46CC00CC1863109F4B0C020F40C
:1048C000813109F4EDC004C1893109F491C08B3103
:1048D00009F449C0FDC0883349F150F4893209F424
:1048E000F1C0853309F4EEC0873209F0F1C0EAC0A7
:1048F000833409F4E7C028F48A3308F4E9C0895303
:10490000E4C0883409F0E4C00E94D31480ED9BE039
:104910000E9449062FEF83ED90E3215080409040A4
:10492000E1F700C000000E94D31F0CC080E299E0B4
:104930005CC087EB9BE00E94490680916604816021
:1049400080936604C1E0C9C080916604C82FC1701D
:1049500080FFEFCF83EC9BE00E94490680916604C4
:10496000817F8E7F3DC09091660491FBCC27C0F97A
:1049700081E0C827892FC0FB81F980936604CC238E
:1049800019F08AEA9BE027C08CE99BE02EC0909149
:10499000660492FBCC27C0F981E0C827892FC0FBB1
:1049A00082F980936604CC2319F08DE89BE013C054
:1049B0008DE79BE01AC09091660493FBCC27C0F969
:1049C00081E0C827892FC0FB83F980936604CC233C
:1049D00051F081E79BE00E94490680916604816066
:1049E000809366047AC084E69BE00E944906AACFC1
:1049F00085E59BE00E94490681E39BE00E94490611
:104A00008BEE9AE00E94490683EC9AE00E944906E8
:104A100089E79AE00E9449068EE49AE0E6CF80E4B6
:104A20009AE00E9449060E943A121F928F9386E2F2
:104A30009AE09F938F930E94E206809110011F924B
:104A40008F938FE09AE09F938F930E94E20680916C
:104A5000DB021F928F938CEF99E09F938F930E94BC
:104A6000E206809111011F928F9389EE99E09F9346
:104A70008F930E94E2060E94781F9F938F937F93EB
:104A80006F9382ED99E09F938F930E94E2068DB71A
:104A90009EB746960FB6F8949EBF0FBE8DBF52CFFD
:104AA0000E94D314C091110181E0C827C093110165
:104AB000CC2329F088EC99E00E9449060EC08DEBCA
:104AC00099E093CF80E001C08D510E9413243ACF2A
:104AD0008BEB99E00E944906C0E08C2FCF9108959E
:104AE00080E008950C947025CF93C82F80917504B1
:104AF000813081F020F0823009F44FC046C1E0914E
:104B00001201F09113018081823269F0843409F03E
:104B10003EC109C0E0911201F091130180818232FF
:104B200011F0843461F48C2F0E947225811104C02D
:104B30008C2F0E9433242FC081E090E02CC08C2F5A
:104B40000E947025811126C0C431E1F070F4CB3091
:104B500081F0C031D1F40E94DB228CEE98E00E94FB
:104B6000490682E08093750415C0C93259F0C833F4
:104B700061F489EF98E00E94490680EF98E00E9476
:104B8000490608C01092750404C18AEE98E00E949C
:104B90004906FFC081E08170FEC0C43228F5CE31E5
:104BA00008F0C1C0CB30A1F1D0F4C73009F0D3C0B8
:104BB0008EE18093190182E3809318018AE080934B
:104BC000170184E18093160188E08093150188E243
:104BD0008093140180E997E00E944906BFC0C33169
:104BE00049F1C431C1F0B7C0CB3409F4A9C028F4ED
:104BF000C93289F0C83361F0AEC0C13509F49EC036
:104C0000C23509F499C0CE3409F0A5C06AE09EC04F
:104C10000E94DB22A3C080917404882319F01092B3
:104C200074049CC08DE997E00E94490681E080935E
:104C30007504B1C087E797E00E94490685E697E0D2
:104C40000E944906809119011F928F9382E697E096
:104C50009F938F930E94E20680E697E00E944906A8
:104C60008EE497E00E944906809118011F928F936D
:104C70008BE497E09F938F930E94E20689E497E08C
:104C80000E9449068AE397E00E9449068091170135
:104C90001F928F9387E397E09F938F930E94E20682
:104CA00085E397E00E94490684E297E00E94490666
:104CB000809116011F928F9381E297E09F938F93CB
:104CC0000E94E2068FE197E00E9449068AE097E0A1
:104CD0000E944906809115011F928F9387E097E00B
:104CE0009F938F930E94E20685E097E00E94490619
:104CF0008EEE96E00E944906809114011F928F93D8
:104D00008BEE96E09F938F930E94E20689EE96E0E9
:104D10000E9449068DB79EB748960FB6F8949EBF7D
:104D20000FBE8DBF1BC0CE51EC2FF0E0EF5BFE4FEE
:104D300080818093740412C061E003C061E006C00A
:104D40006AE0809174040E94F22208C08091740489
:104D50000E94952303C08EE897E013C080917404ED
:104D6000882369F01F928F9388E897E09F938F9331
:104D70000E94E2060F900F900F900F9004C085E8FC
:104D800097E00E94490681E006C01092750480E019
:104D900002C080E000CFCF9108950E94D42668948D
:104DA000B1110C94632708950E94482788F09F57FB
:104DB00098F0B92F9927B751B0F0E1F0660F771F3F
:104DC000881F991F1AF0BA95C9F714C0B13091F035
:104DD0000E946227B1E008950C946227672F782F14
:104DE0008827B85F39F0B93FCCF3869577956795FA
:104DF000B395D9F73EF490958095709561957F4F66
:104E00008F4F9F4F0895E89409C097FB3EF490950B
:104E10008095709561957F4F8F4F9F4F9923A9F093
:104E2000F92F96E9BB279395F69587957795679522
:104E3000B795F111F8CFFAF4BB0F11F460FF1BC066
:104E40006F5F7F4F8F4F9F4F16C0882311F096E9F9
:104E500011C0772321F09EE8872F762F05C06623A7
:104E600071F096E8862F70E060E02AF09A95660F60
:104E7000771F881FDAF7880F9695879597F9089519
:104E800057FD9058440F551F59F05F3F71F04795FB
:104E9000880F97FB991F61F09F3F79F087950895E0
:104EA000121613061406551FF2CF4695F1DF08C0FF
:104EB000161617061806991FF1CF8695710561051C
:104EC00008940895E894BB2766277727CB0197F9C4
:104ED00008950E947C270C94ED270E94DF2738F06C
:104EE0000E94E62720F0952311F00C94D6270C940D
:104EF000DC2711240C9463270E94402770F3959FB0
:104F0000C1F3950F50E0551F629FF001729FBB27C0
:104F1000F00DB11D639FAA27F00DB11DAA1F649F5C
:104F20006627B00DA11D661F829F2227B00DA11D0F
:104F3000621F739FB00DA11D621F839FA00D611D95
:104F4000221F749F3327A00D611D231F849F600DB6
:104F5000211D822F762F6A2F11249F5750409AF0DF
:104F6000F1F088234AF0EE0FFF1FBB1F661F771F6B
:104F7000881F91505040A9F79E3F510580F00C9436
:104F8000D6270C9463275F3FE4F3983ED4F38695CD
:104F900077956795B795F795E7959F5FC1F7FE2BD6
:104FA000880F911D9695879597F9089597F99F67B2
:104FB00080E870E060E008959FEF80EC08950024A1
:104FC0000A941616170618060906089500240A946E
:104FD00012161306140605060895092E0394000CF4
:104FE00011F4882352F0BB0F40F4BF2B11F460FF83
:104FF00004C06F5F7F4F8F4F9F4F089597FB072E21
:1050000016F4009407D077FD09D00E94182807FCF9
:1050100005D03EF4909581959F4F089570956195C8
:105020007F4F0895EE0FFF1F0590F491E02D099436
:10503000AA1BBB1B51E107C0AA1FBB1FA617B707BE
:1050400010F0A61BB70B881F991F5A95A9F78095DA
:105050009095BC01CD010895A0E0B0E0E2E3F8E254
:105060000C94E32AAE014B5F5F4FFA01619171919D
:10507000AF0180918504909186040E944228E2E06D
:105080000C94FF2AABE0B0E0E8E4F8E20C94D32AF9
:105090006C017B018A01FC0117821682838181FFEA
:1050A000CCC1CE0101963C01F6019381F70193FD3D
:1050B000859193FF81917F01882309F4BAC18532DC
:1050C00039F493FD859193FF81917F01853229F415
:1050D000B60190E00E94392AE7CF912C212C312C87
:1050E000FFE1F315D8F08B3279F038F4803279F0A3
:1050F0008332A1F4232D20611DC08D3261F08033F5
:1051000069F4232D216016C0832D8260382EE32D93
:10511000E4603E2E2AC0F32DF8601DC037FC2DC080
:1051200020ED280F2A3040F08E32B9F436FC81C1D0
:10513000232D2064322E19C036FE06C08AE0989EC8
:10514000200D1124922E11C0EAE02E9E200D112474
:10515000222EF32DF0623F2E08C08C3621F4832DD1
:105160008068382E02C0883641F4F70193FD85919E
:1051700093FF81917F018111B3CF982F9F7D95542B
:10518000933028F40C5F1F4F9FE399830DC0833643
:1051900031F0833771F0833509F059C021C0F8012F
:1051A000808189830E5F1F4F88248394912C530143
:1051B00013C02801F2E04F0E511CF801A080B1800D
:1051C00036FE03C0692D70E002C06FEF7FEFC501AE
:1051D0000E942E2A4C018201F32DFF773F2E16C02C
:1051E000280122E0420E511CF801A080B18036FE59
:1051F00003C0692D70E002C06FEF7FEFC5010E9410
:10520000232A4C01F32DF0683F2E820133FC1BC092
:10521000822D90E088169906B0F4B60180E290E005
:105220000E94392A2A94F4CFF50137FC859137FE84
:1052300081915F01B60190E00E94392A21102A94E1
:1052400021E0821A91088114910471F7E8C0843634
:1052500011F0893641F5F80137FE07C06081718190
:10526000828193810C5F1F4F08C060817181072E7E
:10527000000C880B990B0E5F1F4FF32DFF763F2E0E
:1052800097FF09C090958095709561957F4F8F4FDE
:105290009F4FF0683F2E2AE030E0A3010E94752A5C
:1052A000882E861845C0853731F4232D2F7EB22EE7
:1052B0002AE030E025C0932D997FB92E8F36C1F0BA
:1052C00018F4883579F0B5C0803719F0883721F0A7
:1052D000B0C0E92FE061BE2EB4FE0DC0FB2DF4601E
:1052E000BF2E09C034FE0AC0292F2660B22E06C088
:1052F00028E030E005C020E130E002C020E132E0EB
:10530000F801B7FE07C060817181828193810C5FD3
:105310001F4F06C06081718180E090E00E5F1F4FDB
:10532000A3010E94752A882E8618FB2DFF773F2E39
:1053300036FE0DC0232D2E7FA22E891458F434FE84
:105340000BC032FC09C0832D8E7EA82E05C0B82C60
:10535000A32C03C0B82C01C0B92CA4FE0FC0FE01C1
:10536000E80DF11D8081803321F49A2D997EA92EBC
:1053700009C0A2FE06C0B394B39404C08A2D8678F7
:1053800009F0B394A3FC11C0A0FE06C0B21488F4C7
:10539000280C922C9B180EC0B21460F4B60180E267
:1053A00090E00E94392AB394F7CFB21418F42B1866
:1053B00002C0982C212CA4FE10C0B60180E390E01E
:1053C0000E94392AA2FE17C0A1FC03C088E790E022
:1053D00002C088E590E0B6010CC08A2D867859F0AD
:1053E000A1FE02C08BE201C080E2A7FC8DE2B60103
:1053F00090E00E94392A891438F4B60180E390E0E5
:105400000E94392A9A94F7CF8A94F301E80DF11D8E
:105410008081B60190E00E94392A8110F5CF2220C8
:1054200009F442CEB60180E290E00E94392A2A9423
:10543000F6CFF6018681978102C08FEF9FEF2B9602
:10544000E2E10C94EF2AFC010590615070400110DC
:10545000D8F7809590958E0F9F1F0895FC0161509D
:10546000704001900110D8F7809590958E0F9F1F86
:1054700008950F931F93CF93DF93FB01238121FDA9
:1054800003C08FEF9FEF2CC022FF16C046815781CB
:10549000248135814217530744F4A081B1819D01D5
:1054A0002F5F3F4F318320838C93268137812F5F7D
:1054B0003F4F3783268314C08B01EC01FB0100842E
:1054C000F185E02D0995892BE1F6D80116968D918D
:1054D0009C911797019617969C938E931697CE01E1
:1054E000DF91CF911F910F910895FA01AA272830DB
:1054F00051F1203181F1E8946F936E7F6E5F7F4FA1
:105500008F4F9F4FAF4FB1E03ED0B4E03CD0670F1C
:10551000781F891F9A1FA11D680F791F8A1F911D6F
:10552000A11D6A0F711D811D911DA11D20D009F4BF
:1055300068943F912AE0269F11243019305D319301
:10554000DEF6CF010895462F4770405D4193B3E0EA
:105550000FD0C9F7F6CF462F4F70405D4A3318F091
:10556000495D31FD4052419302D0A9F7EACFB4E042
:10557000A6959795879577956795BA95C9F70097FA
:105580006105710508959B01AC010A2E069457959B
:10559000479537952795BA95C9F7620F731F841FF2
:1055A000951FA01D08952F923F924F925F926F9288
:1055B0007F928F929F92AF92BF92CF92DF92EF92A3
:1055C000FF920F931F93CF93DF93CDB7DEB7CA1B24
:1055D000DB0B0FB6F894DEBF0FBECDBF09942A884F
:1055E000398848885F846E847D848C849B84AA84F7
:1055F000B984C884DF80EE80FD800C811B81AA8184
:10560000B981CE0FD11D0FB6F894DEBF0FBECDBF4E
:08561000ED010895F894FFCFAD
:1056180001BA010000FF3C0ACC0AA90A730A3F0A32
:10562800010144042808140A321E4F4B004E47005B
:105638004241542025730A00404D362239D1048452
:10564800044E042C04F30366037F039803B103D1CB
:0C56580003010203040506070809000016
:106800008800EA44E944E244040005000600070069
:10681000080009000A000B000C000D000E000F001C
:1068200010001100120013001400150016001700CC
:10683000180019001A001B001C001D001E001F007C
:10684000200021002200230024002500260027002C
:10685000280029002A002B002C002D002E002F00DC
:10686000300031003200330034003500360037008C
:10687000380039003A003B003C003D003E003F003C
:1068800040004100420043004400450046004700EC
:10689000480049004A004B004C004D004E004F009C
:1068A000500051005200530054005500560057004C
:1068B000580059005A005B005C005D005E005F00FC
:1068C00060006100620063006400F1A18500670060
:1068D000680069006A006B006C006D006E006F005C
:1068E0007000710072007300890087008A008B00BD
:1068F000E000E100E200E300E400E500E600E7007C
:106900000100010001000100EA4401000100E2442D
:106910000100010001000100460001004A004B0097
:106920004D0001004700480001000100E94401005A
:106930000100010001000100010001003A003B00DC
:106940003C003D003E003F0040004100420043004B
:10695000010035004C0039000100440045005200A0
:1069600049000100010050004F0029004E00510075
:10697000010001000100010001000100010001000F
:1069800001000100010001000100010001000100FF
:1069900001000100010001000100010001000100EF
:1069A0004E004D0001000100010001000100010046
:1069B00001000100010001000100010001000100CF
:1069C00001000100010001000100010001000100BF
:1069D00001000100010001000100010001000100AF
:1069E0000100010001000100490001000100010057
:1069F00001000100010001004A004B0001000100FC
:00000001FF
