:100000000C9475050C94BD050C94AB060C94BD05C1
:100010000C94BD050C94BD050C94BD050C94BD0558
:100020000C94BD050C94BD050C94B00D0C94820E7F
:100030000C94901D0C94BD050C94BD050C94BD054D
:100040000C94BD050C94BD050C94BD050C94BD0528
:100050000C94BD050C94041E0C94BD050C94BD05B8
:100060000C94BD050C94BD050C94BD050C94BD0508
:100070000C94BD050C94BD050C94BD050C94BD05F8
:100080000C94BD050C94BD050C94BD050C94BD05E8
:100090000C94BD050C94BD050C94BD050C94BD05D8
:1000A0000C94BD050C94BD050C94BD05EF0E110F0D
:1000B0000410110F0410560F790F0410CE0FE10F2A
:1000C0005913591383138313DE13121420162016A9
:1000D0002914201614151415DA152016EF150D160F
:1000E0002CA100291E1F20212223242526272D2E66
:1000F0002A2B141A0815171C180C12132F3028E07D
:10010000041607090A0B0D0E0F333435E1311D1BA0
:100110000619051110363738E555E2C0393A3B3C2F
:100120003D3E3F4041424353475F6061565C5D5EE8
:1001300057595A5B62630000000000000000000095
:1001400000000000000000000000000000000000AF
:10015000000000000000000000000000000000009F
:10016000000000291E1F20212223242526272D2EB2
:100170002A2B29490815171C4D4A12132F3028E045
:10018000041607090A5051524F2A4C35E1311D1B04
:10019000061905114E4B3738E555E22C393A3B3CF0
:1001A0003D3E3F4041424353475F6061565C5D5E68
:1001B00057595A5B62630000000000000000000015
:1001C000000000000000000000000000000000002F
:1001D000000000000000000000000000000000001F
:1001E000000046756C6C002530325820000A4B65C3
:1001F00079626F6172642073746172742E0A000AEE
:1002000055534220636F6E666967757265642E0A86
:10021000000A0A544D4B3A30366337656132392B48
:100220002F4C5546410A0A002C0358005400200068
:100230006B006500790062006F006100720064006D
:10024000200063006F006E0076006500720074008D
:100250006500720000000E0374002E006D002E0079
:100260006B002E0000000403090409028D00050143
:1002700000A032090400000103010100092111015D
:1002800000012240000705810308000A090401005B
:100290000103010200092111010001224D0007059F
:1002A000820308000A09040200010300000009217A
:1002B000110100012236000705830308000A090422
:1002C00003000203000000092111010001222200A5
:1002D0000705840320000107050403200001090429
:1002E000040001030000000921110100012239006E
:1002F000070585032000011201100100000008ED30
:10030000FE126501000102000105010906A10105B7
:100310000719E029E71500250195087501810205F7
:10032000081901290595057501910295017503913B
:10033000010507190029F71500250195F8750181B8
:1003400002C00631FF0974A1010975150026FF00DE
:100350009520750881020976150026FF0095207505
:10036000089102C005010980A1018502160100263D
:1003700037001A81002AB700751095018100C00569
:100380000C0901A1018503160100269C021A010037
:100390002A9C02751095018100C005010902A10186
:1003A0000901A10005091901290515002501950577
:1003B000750181029501750381010501093009313B
:1003C0001581257F95027508810609381581257FDD
:1003D000950175088106050C0A38021581257F955F
:1003E0000175088106C0C005010906A101050719AC
:1003F000E029E71500250195087501810295017531
:1004000008810105081901290595057501910295D5
:1004100001750391010507190029FF150026FF004A
:10042000950675088100C0636F6E73756D65723ACD
:1004300020253034580A0073797374656D3A20258D
:100440003034580A000A002530325820006B657994
:10045000626F6172643A20004C45443A2025303284
:10046000580A00253032583A202530386225730A60
:1004700000722F632030313233343536370A00644E
:10048000656C5F6B65795F6269743A2063616E27A2
:10049000742064656C3A20253032580A0061646427
:1004A0005F6B65795F6269743A2063616E277420BF
:1004B0006164643A20253032580A00290A00257503
:1004C000002F002575005D280025640020002564AC
:1004D00000200025640020002564007C00253032C7
:1004E00058006D6F7573656B6579205B62746E7C07
:1004F000782079207620685D287265702F61636CA2
:10050000293A205B006D6B5F776865656C5F746985
:100510006D655F746F5F6D6178203D2025640A0012
:100520006D6B5F776865656C5F6D61785F73706533
:100530006564203D2025640A006D6B5F74696D65FC
:100540005F746F5F6D6178203D2025640A006D6BDC
:100550005F6D61785F7370656564203D2025640A76
:10056000006D6B5F696E74657276616C203D20254D
:10057000640A006D6B5F64656C6179203D202564C1
:100580000A006D6B5F776865656C5F74696D655FA8
:10059000746F5F6D6178203D2025640A006D6B5F8C
:1005A000776865656C5F6D61785F73706565642001
:1005B0003D2025640A006D6B5F74696D655F746F23
:1005C0005F6D6178203D2025640A006D6B5F6D6171
:1005D000785F7370656564203D2025640A006D6B4B
:1005E0005F696E74657276616C203D2025640A0037
:1005F0006D6B5F64656C6179203D2025640A000A9B
:1006000000257500363A20776865656C5F74696D02
:10061000655F746F5F6D61783A20000A0025750090
:10062000353A20776865656C5F6D61785F737065DA
:1006300065643A20000A00257500343A2074696D1B
:10064000655F746F5F6D61783A20000A0025750060
:10065000333A206D61785F73706565643A20000AF3
:1006600000257500323A20696E74657276616C28D7
:100670006D73293A20000A00257500313A2064651F
:100680006C6179282A31306D73293A20000A092DCE
:100690002056616C756573202D0A004D3E004D2576
:1006A000643E20003F007365742064656661756C6C
:1006B000740A00433E200077686572652064656CAB
:1006C00074613A20637572736F723D25642C2077D4
:1006D0006865656C3D25640A5365652068747470AF
:1006E0003A2F2F656E2E77696B6970656469612E8C
:1006F0006F72672F77696B692F4D6F7573655F6BCD
:100700006579730A000A092D204D6F7573656B6555
:1007100079202D0A4553432F713A09717569740A7E
:10072000313A0964656C6179282A31306D73290A80
:10073000323A09696E74657276616C286D73290AA4
:10074000333A096D61785F73706565640A343A09FC
:1007500074696D655F746F5F6D61780A353A09770A
:100760006865656C5F6D61785F73706565640A3696
:100770003A09776865656C5F74696D655F746F5F72
:100780006D61780A0A703A097072696E7420766138
:100790006C7565730A643A097365742064656661F3
:1007A000756C74730A75703A092B310A646F776E31
:1007B0003A092D310A706775703A092B31300A7089
:1007C00067646F776E3A092D31300A0A7370656578
:1007D00064203D2064656C7461202A206D61785F1F
:1007E0007370656564202A202872657065617420C5
:1007F0002F2074696D655F746F5F6D6178290A00E1
:100800003F004D3E2000433E20004C25640A000A74
:10081000092D20436F6E736F6C65202D0A4553437D
:100820002F713A09717569740A6D3A096D6F7573A4
:10083000656B65790A000A092D204D61676963209F
:100840002D0A643A0964656275670A783A09646535
:10085000627567206D61747269780A6B3A09646524
:10086000627567206B6579626F6172640A6D3A091F
:100870006465627567206D6F7573650A763A0976EF
:10088000657273696F6E0A733A0973746174757374
:100890000A633A09636F6E736F6C65206D6F6465F0
:1008A0000A302D343A096C61796572302D3428464E
:1008B00031302D4634290A506175733A09626F6FE1
:1008C000746C6F616465720A6E3A094E4B524F0A3E
:1008D000003F004E4B524F3A206F66660A004E4B67
:1008E000524F3A206F6E0A0074696D65725F7265CF
:1008F0006164333228293A202530346C580A006B61
:100900006579626F6172645F6E6B726F3A20255811
:100910000A006B6579626F6172645F69646C653A45
:100920002025580A006B6579626F6172645F70728E
:100930006F746F636F6C3A2025580A00686F737488
:100940005F6B6579626F6172645F6C65647328299F
:100950003A2025580A000A092D20537461747573D2
:10096000202D0A004743433A20352E342E302041B3
:1009700056522D4C4942433A20322E302E302041DF
:1009800056525F415243483A20617672350A004F11
:100990005054494F4E533A204C554641204D4F55E7
:1009A00053454B45592045585452414B45592043D6
:1009B0004F4E534F4C4520434F4D4D414E44204EDA
:1009C0004B524F20343039360A004255494C443A94
:1009D0002030366337656132392B202831363A3181
:1009E000393A3239204E6F76203236203230313962
:1009F000290A005649443A2030784645454428742F
:100A00002E6D2E6B2E29205049443A2030783635F1
:100A10003132285854206B6579626F6172642063AB
:100A20006F6E76657274657229205645523A203091
:100A300078303030310A00444553433A20636F6EBA
:100A400076657274205854206B6579626F617264A8
:100A500020746F205553420A000A092D20566572F2
:100A600073696F6E202D0A000A6D6F7573653A20E9
:100A70006F66660A000A6D6F7573653A206F6E0ABD
:100A8000000A6B6579626F6172643A206F66660A6C
:100A9000000A6B6579626F6172643A206F6E0A00BA
:100AA0000A6D61747269783A206F66660A000A6D91
:100AB00061747269783A206F6E0A000A6465627523
:100AC000673A206F6E0A000A64656275673A206FA4
:100AD00066660A000A0A626F6F746C6F6164657201
:100AE0002E2E2E2000433E20000011241FBECFEFEB
:100AF000DAE0DEBFCDBF04B603FE28C08091ED036F
:100B00009091EE03A091EF03B091F0038730904BEA
:100B1000A740B04BD9F41092ED031092EE0310925F
:100B2000EF031092F00314BE0FB6F894A8958091CD
:100B30006000886180936000109260000FBE109288
:100B4000010810920008E0E0F8E3099511E0A0E048
:100B5000B1E0EEE1FEE402C005900D92AA38B107C3
:100B6000D9F723E0AAE8B1E001C01D92AD3EB2077B
:100B7000E1F70E94770A0C940D270C940000FF9374
:100B8000EF93E0918A01F0918B01309709F009957C
:100B9000EF91FF910895FC018591803011F0EFDF16
:100BA000FBCF0895FF27E0E230E247FF0CC04195FC
:100BB00097FF09C0EDE26095709580959095611D55
:100BC000711D811D911D27FF02C0219530E350E268
:100BD000AA27660F771F881F991FAA1FA41710F056
:100BE000A41B63955A95A9F7AA3008F0A95FA05DE8
:100BF000AF93F395611571058105910541F7ED32CC
:100C000011F4EF93F395F21718F43F93F395FBCF9C
:100C10008F91B5DFFA95E1F70895E991F991859102
:100C2000803021F0853219F0AADFF9CF089520E055
:100C3000E89455915532C1F3503311F468945591AD
:100C40005A3348F4505390F3220F022E220F220FF2
:100C5000200D250FF4CF0EF42195899199915336EB
:100C600019F3533729F1533559F1BC0188279927D6
:100C7000E8945C3621F489919991689455915436A1
:100C800039F446EF7EF077FF0DC08FEF9FEF0AC07B
:100C900055374AE039F0583540E121F0523642E00C
:100CA00009F00895FF93EF937DDFEF91FF91B7CFA8
:100CB000FF93EF93FC0181918030B9F360DFFBCFAC
:100CC000FF93EF9368DFF1CFDF93CF93CDB7DEB71C
:100CD0002596A3DFCF91DF910895E9E6F0E08081CA
:100CE00088608083E9982F98279A2FEF89E698E10A
:100CF000215080409040E1F700C0000027985898AC
:100D0000509A5998519A2FEF89EF90E021508040E6
:100D10009040E1F700C000005198599A5098589AB5
:100D2000E19AE99A0895909103018091020189174F
:100D300081F0E0910001F0910101E90FF11D808146
:100D40009F5F209104019223909303015098589A39
:100D5000089580E008951F920F920FB60F9211240C
:100D60002F933F934F935F936F937F938F939F93B3
:100D7000AF93BF93EF93FF9329B1217090918D01B1
:100D8000992319F0993078F407C0222309F44EC052
:100D900081E080938D014AC080918C01869521115C
:100DA000806880938C0181E0890F80938D01983059
:100DB000E9F58091020190E0AC014F5F5F4F309107
:100DC0000401232F30E0242335234091030150E018
:100DD0002417350791F02091000130910101F901AC
:100DE000E80FF91F20918C012083809102018F5F11
:100DF000909104018923809302018091020190E087
:100E000001962091040130E0822393232091030175
:100E100030E08217930731F45898509A82EE91E0AF
:100E20000E94CB0510928D0110928C01FF91EF91E1
:100E3000BF91AF919F918F917F916F915F914F91F2
:100E40003F912F910F900FBE0F901F901895CF9349
:100E5000DF93D82FD770C82FC695C695C6956D2F2E
:100E60008C2F0E94871181110DC0EC2FF0E0E1560C
:100E7000FE4F81E090E001C0880FDA95EAF790819B
:100E8000892B8083DF91CF910895CF93DF93D82F63
:100E9000D770C82FC695C695C6956D2F8C2F0E940A
:100EA0008711882371F0EC2FF0E0E156FE4F81E0CE
:100EB00090E001C0880FDA95EAF780959081892348
:100EC0008083DF91CF9108958091CF0381608093DB
:100ED000CF030E946D06EFE9F1E0119281E0EF3A55
:100EE000F807D9F70895CF930E949306C82F882357
:100EF00009F472C08091CF0380FF0CC01F92CF9382
:100F000087EE91E09F938F930E9464060F900F905D
:100F10000F900F9080919E01823009F443C028F415
:100F2000882351F08130B9F053C0833009F444C0B4
:100F3000843009F447C04CC0C03E21F0C13E31F4BA
:100F400082E037C081E080939E0147C08C2FC7FFAD
:100F500036C08F773AC0C633D9F118F4CA3229F4B3
:100F600037C0CA3AA9F1C63B99F1C7FD0DC0CC51B3
:100F7000C83430F4EC2FF0E0E25EFE4F808101C017
:100F800080E00E94270724C0EC2FEF77EC51E83473
:100F900028F4F0E0E25EFE4F808101C080E00E9414
:100FA000450716C0CD3121F0CD3991F484E001C060
:100FB00083E080939E010EC0C53451F485E50E9404
:100FC000270708C0C53421F485E50E94450702C003
:100FD00010929E0181E001C080E0CF910895E82F3A
:100FE000F0E0E156FE4F80810895EFE9F1E01192C3
:100FF00081E0EF3AF807D9F7089508958091D30278
:101000000895CF93DF9300D01F92CDB7DEB79C0138
:101010008091E403843019F593E099833B832A831C
:101020009093E9008FEF9091E800815095FD06C004
:1010300095ED9A95F1F700008111F5CF8091E800C8
:1010400085FF0DC040E050E063E070E0CE01019606
:101050000E94A40B8091E8008E778093E8000F90A7
:101060000F900F90DF91CF910895CF93DF9300D031
:101070001F92CDB7DEB72091E403243031F522E092
:101080002983805891099B838A8383E08093E900B8
:101090008FEF9091E800815095FD06C095ED9A95EF
:1010A000F1F700008111F5CF8091E80085FF0DC0B8
:1010B00040E050E063E070E0CE0101960E94A40B96
:1010C0008091E8008E778093E8000F900F900F904A
:1010D000DF91CF9108952091E4032430F1F422E0D0
:1010E0002093E9002FEF3091E800215035FD06C034
:1010F00035ED3A95F1F700002111F5CF2091E80088
:1011000025FF0BC040E050E065E070E00E94A40BBA
:101110008091E8008E778093E8000895CF93DF9365
:101120002091E403243009F04AC0EC0180911401BD
:101130008823E1F0809115018823C1F085E0809338
:10114000E90081E8815049F09091E80095FD05C0E3
:101150009AE29A95F1F700C0F5CF8091E80085FFFB
:101160002EC040E050E060E270E019C081E0809362
:10117000E90081E8815059F09091E80095FD07C0A1
:10118000EFE3F1E03197F1F700C00000F3CF809179
:10119000E80085FF14C040E050E068E070E0CE0158
:1011A0000E94A40B8091E8008E778093E80080E293
:1011B000FE01A3EBB2E001900D928A95E1F7DF9179
:1011C000CF910895CF93C091B101C1110BC00E947E
:1011D000CE1D643C79408105910520F081E080932B
:1011E000B101C1E08C2FCF910895CF93C82F0E94F9
:1011F000E208882309F448C00FB607FE45C0809175
:10120000E403843009F040C08091E9008F702091A0
:10121000EC00922F917020FD90E8892B94E0909340
:10122000E9009091EB0090FF2CC09091EE0097FFA9
:1012300028C09091080120910701291709F447C09F
:101240002091E80025FF1DC0E0910501F091060105
:10125000E90FF11D30819F5F209109019223909346
:1012600008013093F1009091E80095FDE2CF909154
:10127000E80090FFDECF9091E8009E779093E80021
:10128000D8CF8F708093E9008091070190E0AC0186
:101290004F5F5F4F30910901232F30E02423352326
:1012A0004091080150E024173507D1F02091050145
:1012B00030910601F901E80FF91FC0838091070101
:1012C0008F5F9091090189238093070109C0909154
:1012D000E80095FFD6CFC093F1008F708093E900AE
:1012E00080E0CF9108958091E303811109C00E94AD
:1012F000350D0E94920D8091E20084608093E2009F
:1013000008951092E30308950895089542E061EC72
:1013100081E00E94AE0C42E061EC82E00E94AE0CE3
:1013200042E061EC83E00E94AE0C42E261EC84E0BA
:101330000E94AE0C42E261EC85E00C94AE0C809110
:10134000E603833009F455C030F4813071F0823007
:1013500009F48EC008958A3009F47AC08B3009F4FC
:1013600060C0893009F09CC020C08091E503813ABB
:1013700009F096C08091E800877F8093E800809113
:10138000E9039091EA03892B21F460E283EB92E078
:1013900003C060E080E090E070E00E94EF0B80917D
:1013A000E8008B778093E80008958091E50381320F
:1013B00009F076C08091E9039091EA03009719F053
:1013C000049709F06DC08091E800877F8093E80062
:1013D0008091E80082FD05C08091E4038111F8CF7F
:1013E0005FC08091F1008093D3028091E8008B77F9
:1013F00053C08091E503813A09F052C08091E9031E
:101400009091EA03892B09F04BC08091E800877F17
:101410008093E8008091E80080FFFCCF8091140168
:1014200036C08091E5038132D9F58091E90390912E
:10143000EA03892BA9F58091E800877F8093E80073
:101440000E94E30C8091E703809314010C9409132C
:101450008091E503813221F58091E800877F8093B8
:10146000E8000E94E30C8091E8038093D402089581
:101470008091E503813AA1F48091E800877F809311
:10148000E8008091E80080FFFCCF8091D402809337
:10149000F1008091E8008E778093E8000C94E30CD3
:1014A00008958091D3028093B2011092D3020E94DA
:1014B000F5070C9409130C94510A0E944F1D80915A
:1014C000E203882329F00E94781D81110C948E0B71
:1014D00008950E948C1D8091B2018093D3020895DB
:1014E0000C94690A08950C94720A0C94720ACF93B2
:1014F00084B7877F84BF0FB6F894A8958091600069
:10150000886180936000109260000FBE90E080E8D8
:101510000FB6F89480936100909361000FBE85EF41
:1015200098E00E94221D8AE091E00E941C1081E157
:1015300092E00E94CB050E94750A0E94DB100E9477
:10154000350D0E94920D8091E20084608093E2004C
:1015500078940E94DD108091E403843019F00E9499
:10156000720AF9CF8FEF91E00E94CB050E94730AB7
:101570008DEE91E00E94CB05C4E08091E4038530BC
:1015800019F40E945D0AF9CF0E94E1102091E40055
:101590003091E5008091AF019091B0012817390793
:1015A00061F38091E4009091E5009093B001809305
:1015B000AF010E94E208882301F38091E4038430A4
:1015C000E1F68091E9008F702091EC00922F9170EC
:1015D00020FD90E8892BC093E9009091EB0090FFEB
:1015E00043C09091EE0097FF3FC090910801209179
:1015F0000701291709F12091E80025FF1DC0E0919E
:101600000501F0910601E90FF11D30819F5F2091E6
:1016100009019223909308013093F1009091E80022
:1016200095FDE3CF9091E80090FFDFCF9091E80027
:101630009E779093E800D9CF9091F3002091F2002B
:1016400030E0392B232B81F09091E80090FF0CC003
:101650009091E80095FF03C01092F100F9CF9091AE
:10166000E8009E779093E8008F708093E90085CF23
:10167000292F332723303105C9F060F4213031059B
:1016800081F02230310509F041C08DE890E02AE672
:1016900032E040C021323105E1F02232310531F132
:1016A00035C082E190E027EF32E034C099278130E5
:1016B000910549F028F0029749F5E8E2F2E005C00B
:1016C000E6E6F2E002C0E6E5F2E0849190E09F01F8
:1016D00021C06530D8F4E62FF0E0EE0FFF1FEB5885
:1016E000FE4F2081318189E090E014C0653070F4B4
:1016F00070E0FB01EE0FFF1FE559FE4F20813181A5
:10170000FB01EA59FE4F808190E004C080E090E048
:1017100020E030E0FA0131832083089580E189BD23
:1017200082E189BD09B400FEFDCF8091D8008F7D94
:101730008093D8008091E00082608093E0008091E7
:10174000E00081FDFCCF0895CF92DF92EF92FF92EF
:101750000F931F93CF93DF93EC018B017A010E94CB
:10176000020D811133C0E114F10439F0F7018081D9
:101770009181081B190BC80FD91FC12CD12C011541
:10178000110519F18091E80085FD16C08091E800EF
:101790008E778093E800E114F10449F0F70180812D
:1017A0009181C80ED91ED182C08285E00FC00E94EF
:1017B000020D882321F30AC089918093F100015022
:1017C0001109FFEFCF1ADF0ADACF80E0DF91CF9166
:1017D0001F910F91FF90EF90DF90CF90089520918F
:1017E000EB033091EC032617370748F061157105BC
:1017F00039F42091E8002E772093E80001C0B90168
:10180000FC0120E06115710579F18091E4038823E2
:10181000F1F18530F1F18091E80083FD3CC08091C9
:10182000E80082FD2EC08091E80080FFEBCF209180
:10183000F3008091F20090E0922B6115710551F058
:101840008830910538F421912093F100615071099D
:101850000196F3CF21E0089709F020E08091E8009D
:101860008E778093E800CECF2111CFCF0AC0809130
:10187000E403882361F0853061F08091E80083FD06
:101880000AC08091E80082FFF2CF80E0089582E0F4
:10189000089583E0089581E008952091EB0330914D
:1018A000EC032617370748F06115710539F42091CC
:1018B000E8002E772093E80001C0B901FC0120E088
:1018C0006115710591F18091E403882309F440C00A
:1018D000853009F43FC08091E80083FD3DC08091D0
:1018E000E80082FD2FC08091E80080FFE9CF2091C1
:1018F000F3008091F20090E0922B6115710559F090
:101900008830910540F424912093F1003196615084
:1019100071090196F2CF21E0089709F020E080914B
:10192000E8008E778093E800CBCF2111CCCF0AC09E
:101930008091E403882361F0853061F08091E800B4
:1019400083FD0AC08091E80082FFF2CF80E0089515
:1019500082E0089583E0089581E00895982F9730FC
:1019600068F59093E900981739F07091EC00209198
:10197000ED005091F00003C0242F762F50E021FDA0
:1019800002C09F5FECCF3091EB003E7F3093EB00C5
:101990003091ED003D7F3093ED003091EB003160F0
:1019A0003093EB007093EC002093ED005093F00027
:1019B0002091EE0027FDE5CF80E008958F708093A1
:1019C000E90081E008958091E50387FF11C08091CF
:1019D000E80082FD05C08091E4038111F8CF11C0B9
:1019E0008091E8008B770BC08091E403882349F055
:1019F0008091E80080FFF8CF8091E8008E77809397
:101A0000E80008952091E4003091E50095E64091CA
:101A1000EC00842F817040FF23C08091E80080FD9E
:101A20001DC08091E403882399F0853099F080915E
:101A3000EB0085FD11C04091E4005091E5002417B2
:101A4000350729F3915011F09A01E1CF84E0089510
:101A500082E0089583E0089581E0089580E008958C
:101A60004091E80042FFDDCF08950E94A30D0E943F
:101A7000AB0DE0EEF0E0808181608083E8EDF0E086
:101A800080818F77808319BCA7EDB0E08C918E7F29
:101A90008C9380818F7E80831092E30308950F934F
:101AA0001F93CF93DF930E94A30D0E94AB0DC8ED4F
:101AB000D0E088818F778883888180688883888157
:101AC0008F7D888319BC1092E4031092E00310927A
:101AD000E2031092E10300EE10E0F80180818B7FB9
:101AE000808388818160888342E060E080E00E949A
:101AF000AE0CE1EEF0E080818E7F8083E2EEF0E0DC
:101B0000808181608083808188608083F80180810A
:101B10008E7F8083888180618883DF91CF911F9140
:101B20000F910895E8EDF0E080818F7E8083E7EDEE
:101B3000F0E080818160808384E082BF81E08093D7
:101B4000E3030C944F0DE8EDF0E080818E7F8083FD
:101B50001092E20008951092DA001092E1000895C8
:101B60001F920F920FB60F9211242F933F934F9312
:101B70005F936F937F938F939F93AF93BF93EF93F5
:101B8000FF938091E10082FF0BC08091E20082FF11
:101B900007C08091E1008B7F8093E1000E9485095E
:101BA0008091DA0080FF1FC08091D80080FF1BC0A9
:101BB0008091DA008E7F8093DA008091D90080FFD7
:101BC0000DC080E189BD82E189BD09B400FEFDCF71
:101BD00081E08093E4030E94730905C019BC109250
:101BE000E4030E9481098091E10080FF19C0809187
:101BF000E20080FF15C08091E2008E7F8093E200BA
:101C00008091E20080618093E2008091D800806240
:101C10008093D80019BC85E08093E4030E945B0A9E
:101C20008091E10084FF30C08091E20084FF2CC0ED
:101C300080E189BD82E189BD09B400FEFDCF8091BC
:101C4000D8008F7D8093D8008091E1008F7E8093B3
:101C5000E1008091E2008F7E8093E2008091E200BB
:101C600081608093E2008091E003882311F084E09A
:101C700007C08091E30087FD02C081E001C083E0DE
:101C80008093E4030E94700A8091E10083FF29C0E1
:101C90008091E20083FF25C08091E100877F8093DF
:101CA000E10082E08093E4031092E0038091E10080
:101CB0008E7F8093E1008091E2008E7F8093E2002E
:101CC0008091E20080618093E20042E060E080E089
:101CD0000E94AE0C8091F00088608093F0000E941A
:101CE0008409FF91EF91BF91AF919F918F917F9167
:101CF0006F915F914F913F912F910F900FBE0F9079
:101D00001F9018951F920F920FB60F9211242F93C8
:101D10003F934F935F936F937F938F939F93AF9373
:101D2000BF93CF93DF93EF93FF93C091E900CF7000
:101D30008091EC00D82FD17080FDD0E81092E9009E
:101D40008091F000877F8093F00078940E94C60E07
:101D50001092E9008091F00088608093F000CD2B14
:101D6000CF70C093E900FF91EF91DF91CF91BF91C8
:101D7000AF919F918F917F916F915F914F913F9123
:101D80002F910F900FBE0F901F9018951F93CF9318
:101D9000DF93CDB7DEB7AA970FB6F894DEBF0FBEBC
:101DA000CDBFE5EEF3E08091F100819323E0ED3EBD
:101DB000F207C9F70E949F098091E80083FF24C1C0
:101DC0008091E5039091E603492F50E04A30510598
:101DD00008F01AC1FA01EA5AFF4F0C94F326803832
:101DE00081F0823809F010C18091E9038F708093EF
:101DF000E9008091EB0085FB882780F91092E900CB
:101E000006C08091E1039091E2039111826090916C
:101E1000E800977F9093E8008093F1001092F10022
:101E2000C8C0282F2D7F09F0EFC0882319F0823019
:101E300061F0EAC08091E703813009F0E5C093309A
:101E400009F080E08093E2032BC08091E7038111C9
:101E500027C08091E9038F7009F4D6C08093E90010
:101E60002091EB0020FF1CC0933021F48091EB0007
:101E7000806214C09091EB0090619093EB0021E0A0
:101E800030E0A90102C0440F551F8A95E2F7409344
:101E9000EA001092EA008091EB0088608093EB00EA
:101EA0001092E9008091E800877F86C08111ACC064
:101EB0001091E7031F778091E3008078812B809356
:101EC000E3008091E800877F8093E8000E94E30CA4
:101ED0008091E80080FFFCCF8091E30080688093D0
:101EE000E300111102C082E001C083E08093E403AB
:101EF0008BC08058823008F087C08091E7039091B2
:101F0000E8038C3D53E0950779F583E08A838AE204
:101F100089834FB7F894DE01139620E03EE051E24A
:101F2000E32FF0E050935700E49120FF03C0E295C7
:101F3000EF703F5FEF708E2F90E0EA3010F0C796A1
:101F400001C0C0968D939D932F5F243149F74FBFF9
:101F50008091E800877F8093E8006AE270E0CE011C
:101F600001960E94EF0B14C0AE014F5F5F4F60916E
:101F7000E9030E94380BBC01892B09F445C09091FC
:101F8000E800977F9093E80089819A810E944D0C28
:101F90008091E8008B778093E80036C08038A1F507
:101FA0008091E800877F8093E8008091E003809330
:101FB000F1008091E8008E778093E8000E94E30CA6
:101FC00023C0811121C08091E7039091E8039927F4
:101FD0000297D4F48091E800877F8093E800809195
:101FE000E7038093E0030E94E30C8091E0038111FA
:101FF00006C08091E30087FD02C081E001C084E05B
:102000008093E4030E9486098091E80083FF0AC060
:102010008091E800877F8093E8008091EB008062E8
:102020008093EB00AA960FB6F894DEBF0FBECDBF2B
:10203000DF91CF911F9108959093DA028093D90296
:102040000895E091D902F091DA02309721F00190E1
:10205000F081E02D099480E00895EF92FF920F93B4
:102060001F93CF93DF93E091D902F091DA0230977A
:10207000B1F18C010280F381E02D09958091CF03AD
:1020800082FF2DC080FF04C08DE494E00E94CB0548
:10209000E80110E287E4E82E84E0F82E8091CF0377
:1020A00080FF0BC088811F928F93FF92EF920E9456
:1020B00064060F900F900F900F9011502196111100
:1020C000EDCF8091CF0380FF0AC085E494E0DF91DB
:1020D000CF911F910F91FF90EF900C94CB05DF9162
:1020E000CF911F910F91FF90EF900895E091D90249
:1020F000F091DA02309721F00480F581E02D099407
:102100000895CF93DF932091D7023091D8022817FA
:10211000390709F19093D8028093D702E091D90250
:10212000F091DA023097B9F0EC010680F781E02DEA
:1021300009958091CF0382FF0EC080FF0CC0DF9312
:10214000CF9387E394E09F938F930E9464060F9050
:102150000F900F900F90DF91CF910895CF93DF9361
:102160002091D5023091D6022817390709F19093B2
:10217000D6028093D502E091D902F091DA0230972D
:10218000B9F0EC010084F185E02D09958091CF0331
:1021900082FF0EC080FF0CC0DF93CF9387E294E0F4
:1021A0009F938F930E9464060F900F900F900F9053
:1021B000DF91CF9108950C9486110E94B91D0C9463
:1021C0006407BF92CF92DF92EF92FF920F931F931B
:1021D000CF93DF9300D000D01F92CDB7DEB70E941F
:1021E00073070CED12E0F12C8F2D0E94EF07B82E33
:1021F000F801C080C82639F4F3940F5F1F4FF0E157
:10220000FF12F2CF30C08091CF0381FD0E949B115D
:10221000D12CEE24E3948C2D8E21F9F0D982FA8210
:1022200091E08B2D8E2109F490E09B830E94C21DCA
:102230008160782F9D838C8349815A816B818D8148
:102240000E94D11149815A816B817C818D810E94CC
:102250003A1DF80180818E258083D394EE0CF8E03E
:10226000DF12D9CFC9CF8FEF89838A831B820E9467
:10227000C21D8160782F9D838C8349815A816B8137
:102280008D810E94D1110E94391D0E940D210E9452
:1022900021109091DB02891741F10E942110809357
:1022A000DB029091CF0392FF0EC090FF0CC01F92F3
:1022B0008F9388E594E09F938F930E9464060F901C
:1022C0000F900F900F908091DB020F900F900F9066
:1022D0000F900F90DF91CF911F910F91FF90EF9092
:1022E000DF90CF90BF900C944B1D0F900F900F90EC
:1022F0000F900F90DF91CF911F910F91FF90EF9072
:10230000DF90CF90BF9008950C94FD070895CF9370
:10231000C62F0E94EF0721E030E002C0220F331FDA
:10232000CA95E2F790E02823392381E0232B09F4B2
:1023300080E0CF910895EF92FF920F931F93CF9378
:10234000DF9381E794E00E94CB05C0E0D0E08FE707
:10235000E82E81E0F82E03E614E08C2F0E94EF07B0
:102360000E94271DFF92EF921F928F93DF93CF93CE
:102370001F930F930E94640621968DB79EB708960F
:102380000FB6F8949EBF0FBE8DBFC031D10529F79F
:10239000DF91CF911F910F91FF90EF9008950895D5
:1023A0000895CF93DF93CDB7DEB72B970FB6F89490
:1023B000DEBF0FBECDBF942F4F83252F588769876F
:1023C0007A878B874A855B85452B31F02F3F31F427
:1023D00081E09F3F19F403C081E001C080E080FDEF
:1023E00007C04F81588569857A858B850E943A1D83
:1023F000DE01119686E0FD0111928A95E9F785E0EC
:10240000FE01379601900D928A95E1F749815A8134
:102410006B817C818D819E810E9435192B960FB630
:10242000F894DEBF0FBECDBFDF91CF910895CF935B
:10243000882309F4A4C0C82F8CEF8C0F813A48F48C
:102440008C2F0E94572481119AC08C2F0E941D1C32
:102450000CC080E28C0F883058F4C77081E001C056
:10246000880FCA95EAF70E94C21CCF910C94FC1CFD
:102470008BE58C0F833078F4C53A29F0C63A31F0F9
:1024800083E890E005C081E890E002C082E890E037
:10249000CF910C94811088E58C0F853108F06FC0C6
:1024A000C83A61F1C93A69F1CA3A71F1CB3A79F1A6
:1024B000CC3A81F1CD3A89F1CE3A91F1CF3A99F106
:1024C000C13BA1F1C03BA9F1C23BB1F1C33BB9F1A2
:1024D000C43BC1F1C53BC9F1C63BD1F1C73BD9F102
:1024E000C83BE1F1C93BE9F1CA3BF1F1CB3BF9F162
:1024F000CC3B09F43FC080E090E03EC082EE90E02B
:102500003BC089EE90E038C08AEE90E035C085EBA4
:1025100090E032C086EB90E02FC083EB90E02CC0BF
:1025200084EB90E029C087EB90E026C08CEC90E033
:1025300023C08DEC90E020C083E891E01DC08AE8C4
:1025400091E01AC082E991E017C084E991E014C0DB
:1025500081E292E011C083E292E00EC084E292E058
:102560000BC085E292E008C086E292E005C087E2F7
:1025700092E002C08AE292E0CF910C94AE10CF912B
:102580000895882329F19CEF980F913A18F40E943E
:102590006D1C0DC090E2980F983058F4877091E050
:1025A00001C0990F8A95EAF7892F0E94C81C0C94E4
:1025B000FC1C9BE5980F933020F480E090E00C9495
:1025C0008110885A853120F480E090E00C94AE10A0
:1025D0000895882321F00E94C21C0C94FC1C0895CD
:1025E000882321F00E94C81C0C94FC1C08950E94B2
:1025F000E21C0E94B11C0E94FC1C0E94B2210E949D
:10260000802080E090E00E94811080E090E00C94B7
:10261000AE100E94D21C0C94F712CF92DF92EF9270
:10262000FF920F931F93CF93DF9300D000D01F92A0
:10263000CDB7DEB76C010E944D1D811101C385E04D
:10264000F601DE01119601900D928A95E1F7F601EF
:1026500040815181238134812115310531F05F3F63
:1026600031F481E04F3F19F403C081E001C080E004
:1026700080FDE6C2F601F280E580E2948FE0E82278
:1026800049835A83FB82722F3D832C836F2D8D816A
:102690000E94991B8C010E94981B0E94881AE12FAE
:1026A000E295EF708E2F90E0FC01E05AFF4F0C9402
:1026B000F326812F807F1F70882311F01295107FE1
:1026C000FF2049F0112309F452C2812F0E94D51C2A
:1026D0000E94FC1C4CC2802F0E94C112112309F4DD
:1026E000AFC2812F0E94DB1C0F900F900F900F90B4
:1026F0000F90DF91CF911F910F91FF90EF90DF909E
:10270000CF900C94FC1C812F807F1F70803211F0C1
:102710001295107F002319F0013009F12BC0FF2022
:10272000A9F0EE2059F1F1E0812FEF1228C00F90AF
:102730000F900F900F900F90DF91CF911F910F91FD
:10274000FF90EF90DF90CF900C94E51CEE2021F0ED
:1027500021E0E21609F474C20E94E81C2DC0FF209B
:10276000E9F085E08E1508F46BC20E94BF1C81233E
:1027700029F022C0FF20F1F0E11015C0812F0F9049
:102780000F900F900F900F90DF91CF911F910F91AD
:10279000FF90EF90DF90CF900C94E91294E09E159B
:1027A00008F44EC209C0F601858180FFE0C18F7038
:1027B0008583E4CFE110EEC1812F61C1812F869521
:1027C0008695837019F08130B9F03AC2FF2019F074
:1027D000C801937002C080E090E00F900F900F90BE
:1027E0000F900F90DF91CF911F910F91FF90EF907D
:1027F000DF90CF900C948110FF2019F0C8019370E6
:1028000002C080E090E00F900F900F900F900F901B
:10281000DF91CF911F910F91FF90EF90DF90CF90BC
:102820000C94AE10802FFF2019F00E94931F02C05D
:102830000E94FB1F0F900F900F900F900F90DF9151
:10284000CF911F910F91FF90EF90DF90CF900C945C
:102850008020812F837009F070C0F110F1C1202F0A
:10286000229526952770220F220F602F6F70862FDA
:1028700090E0A0E0B0E06C017D01022E04C0CC0C21
:10288000DD1CEE1CFF1C0A94D2F704FF12C08FE07F
:1028900090E0A0E0B0E004C0880F991FAA1FBB1F02
:1028A0002A95D2F7BC01CD016095709580959095E1
:1028B00003C060E070E0CB011695169513701230DE
:1028C000B1F040F56C297D298E299F29113031F115
:1028D0000F900F900F900F900F90DF91CF911F915D
:1028E0000F91FF90EF90DF90CF900C94AD1A6C2970
:1028F0007D298E299F290F900F900F900F900F9098
:10290000DF91CF911F910F91FF90EF90DF90CF90CB
:102910000C94C71A0E94AD1AC701B6010F900F9010
:102920000F900F900F90DF91CF911F910F91FF901B
:10293000EF90DF90CF900C94931AFF2019F0812F25
:10294000817001C08695882309F47AC1202F2295D1
:1029500026952770220F220F602F6F70862F90E030
:10296000A0E0B0E06C017D01022E04C0CC0CDD1CA7
:10297000EE1CFF1C0A94D2F704FF12C08FE090E017
:10298000A0E0B0E004C0880F991FAA1FBB1F2A95C2
:10299000D2F7BC01CD01609570958095909503C0EC
:1029A00060E070E0CB011695169513701230B1F00F
:1029B00040F56C297D298E299F29113031F10F9026
:1029C0000F900F900F900F90DF91CF911F910F916B
:1029D000FF90EF90DF90CF900C94741B6C297D29B1
:1029E0008E299F290F900F900F900F900F90DF91DD
:1029F000CF911F910F91FF90EF90DF90CF900C94AB
:102A0000861B0E94741BC701B6010F900F900F9098
:102A10000F900F90DF91CF911F910F91FF90EF904A
:102A2000DF90CF900C94621B003FC1F128F480E44A
:102A3000800F803250F096C0023F09F45EC008F467
:102A400049C0033F09F46CC08DC0F02FF071EF2E28
:102A5000812F8F71FF2051F00E94FB1A802FEE20F2
:102A600019F08295807F8BCE8F7089CE0E941C1BBF
:102A7000802FEE2019F08295807F01C08F700F901B
:102A80000F900F900F900F90DF91CF911F910F91AA
:102A9000FF90EF90DF90CF900C94F012FF20A9F000
:102AA00024E02E1508F4CCC0812F8F710F900F9069
:102AB0000F900F900F90DF91CF911F910F91FF908A
:102AC000EF90DF90CF900C94411B85E08E1508F4B9
:102AD000B7C0EACFFF2099F0812F8F710F900F9030
:102AE0000F900F900F90DF91CF911F910F91FF905A
:102AF000EF90DF90CF900C94FB1AFF2069F3812FA9
:102B00008F710F900F900F900F900F90DF91CF91DA
:102B10001F910F91FF90EF90DF90CF900C941C1BB2
:102B2000FF2089F0812F8F710F900F900F900F90E1
:102B30000F90DF91CF911F910F91FF90EF90DF9059
:102B4000CF900C94E61A0F900F900F900F900F906B
:102B5000DF91CF911F910F91FF90EF90DF90CF9079
:102B60000C94E11AFF2099F0EE2009F4B5CF802FE4
:102B70000F900F900F900F900F90DF91CF911F91BA
:102B80000F91FF90EF90DF90CF900C941712EE20F2
:102B900009F4B5CF802F0F900F900F900F900F90EA
:102BA000DF91CF911F910F91FF90EF90DF90CF9029
:102BB0000C94C112412F4F70602FC6010E94481E15
:102BC0000F900F900F900F900F90DF91CF911F916A
:102BD0000F91FF90EF90DF90CF900C94E3190111CB
:102BE0002FC0FF2069F10E9409139FEFE0E7F2E098
:102BF0009150E040F040E1F700C000000F900F90CE
:102C00000F900F900F90DF91CF911F910F91FF9038
:102C1000EF90DF90CF900C94291E412F4F70602FC2
:102C2000C6010F900F900F900F900F90DF91CF91F2
:102C30001F910F91FF90EF90DF90CF900C944B1E5F
:102C40000F900F900F900F900F90DF91CF911F91E9
:102C50000F91FF90EF90DF90CF9008951F93CF9347
:102C6000DF9300D000D01F92CDB7DEB7942F4983F9
:102C7000252F5A836B837C838D834C815D81452B0B
:102C800031F02F3F31F481E09F3F19F403C081E020
:102C900001C080E0182F117080FD31C049815A8138
:102CA0006B817C818D810E94991B292F22952F7029
:102CB0002C3030F42A30A0F42250223030F022C0E0
:102CC0002C30C9F02F30B9F01DC0853A28F484307B
:102CD000C0F4823028F415C090E2980F983088F044
:102CE000883E30F4803E68F48450813A58F409C03C
:102CF000803F41F406C093FB112710F903C010E098
:102D000001C011E0812F0F900F900F900F900F9046
:102D1000DF91CF911F910895CF93DF9300D000D022
:102D20001F92CDB7DEB70F900F900F900F900F90BE
:102D3000DF91CF910895CF93DF9300D000D000D0E2
:102D4000CDB7DEB726960FB6F894DEBF0FBECDBF67
:102D5000DF91CF9108951F93CF93DF93C091EC0241
:102D600016E08091ED02C81799F0D0E01C9FF001A9
:102D70001D9FF00D1124E251FD4F40815181628170
:102D80007381848195810E949B162196C770E9CF3B
:102D9000DF91CF911F91089540911E0350911F0321
:102DA000609120037091210380912203909123036D
:102DB0000C949B16CF938091230382958F7009F01A
:102DC0005FC080912003882309F45AC08091EC02EF
:102DD000B091ED0270911E03A0911F034091210359
:102DE0005091220391E07F3F09F090E0692FC6E007
:102DF0008B1709F445C04115510521F0AF3F21F073
:102E000020E003C021E001C0262F90E020FD35C066
:102E1000C89FF001C99FF00D1124E251FD4F21819F
:102E20002A132BC02081271328C02281211125C0FD
:102E3000238134812417350710F421503109241BD4
:102E4000350B283C3105C8F4209123032F702061F5
:102E50002093230326E0289FF001299FF00D1124E1
:102E6000ED50FD4F80818F70806180838EE193E013
:102E70000E940D13CF910C94AB1601968770B8CFBA
:102E8000CF910895AF92BF92CF92DF92EF92FF92CF
:102E90000F931F93CF93DF93CDB7DEB761970FB634
:102EA000F894DEBF0FBECDBF7C0185E0F701DE01E7
:102EB0001D9601900D928A95E1F7D7014C911196DC
:102EC0005C9111971296DC90129713960D911C91BC
:102ED000149730911E0360911F03809121039091FC
:102EE0002203009731F06F3F31F421E03F3F19F4A6
:102EF00003C021E001C020E0B22FB170BB2E20FD45
:102F00006EC1A0902003AA2009F4CCC02091230315
:102F10000817190728F0F801E81BF90BCF0104C0C6
:102F200080959095800F911FCC24C394883C910587
:102F300080F0C12C207F09F0A1C0702F198B088B65
:102F40006D2D89890E948C168EE193E00E940D13ED
:102F5000BDC0822F807F09F056C0561315C04313A1
:102F600013C0CD2CD11010C02F70206120932303EB
:102F70000E94CC168EE193E00E940D1380912303F2
:102F8000D70115968C935FC10115110531F05F3F94
:102F900031F481E04F3F19F403C081E001C080E0CB
:102FA00080FD03C081E08D2502C080E090E0B82F55
:102FB000B170CB2E80FF1CC08091EC022091ED02FD
:102FC00036E0821709F41CC190E0389FF001399F68
:102FD000F00D1124E251FD4F6181561306C060814E
:102FE000461303C06281D61203C001968770E9CFF1
:102FF000CD2CDD2009F427C18091230381608093CB
:103000002303C12C20C1561308C0431306C0D1109E
:1030100004C080912303D701B6C04D875E87DF8649
:10302000702F198B088B6D2D89890E942E1688238D
:1030300099F1DD2089F120912303822F82958F70F1
:1030400090E0029774F080911E0390911F0398877F
:103050008F8319861B870A872C87CE0107960E94CB
:103060000D1386E0F701AEE1B3E001900D928A9571
:10307000E1F70E94DA160E94CC1611C0561781F1B2
:103080004D875E87DF86702F198B088B6D2D8989A0
:103090000E942E16811138C0C7010E940D13CC2446
:1030A000C394D1C00817190708F446C0F801E81BFB
:1030B000F90BCF01883C910508F443C0C12C702F57
:1030C000198B088B6D2D89890E948C16EEE1F3E037
:1030D00086E0DF011D928A95E9F70E94CC16B3C005
:1030E0004313CECFD110CCCF80912303F70185833A
:1030F000C7010E940D1386E0EEE1F3E0DF011D92AF
:103100008A95E9F7CA2C9FC0DD2031F22091230374
:10311000822F82958F7090E002970CF4A2CF80915D
:103120001E0390911F039A8389831B821D830C8346
:103130002E83CE01019693CF80959095800F911F9D
:10314000B9CFCD2CDD2009F4A7CF561333C04313DC
:1031500031C02091230320FD24C0822F82958F70DF
:10316000482F50E041155105E1F0D70115962C93F9
:1031700015974F30510549F08F5F982F9295907FAA
:10318000822F8F70892B15968C93C7010E940D1387
:1031900086E0F701AEE1B3E001900D928A95E1F788
:1031A0009CCF86E0F701AEE1B3E001900D928A95E5
:1031B000E1F749C04D875E87DF86702F198B088B3A
:1031C0006D2D89890E942E1681114BCF809123038A
:1031D000816080932303C7010E940D1334C0DD205A
:1031E00009F45ACF4D875E87DF86702F198B088BC5
:1031F0006D2D89890E942E16882309F44DCF31CF79
:10320000702F198B088B6D2D89890E94991B292F8E
:1032100022952F70223028F49F7039F0811105C05B
:103220000BC0243028F49F7049F4805E883020F071
:10323000C7010E940D13BC2CCB2C05C0F701958152
:10324000907F99F7F9CF8C2D61960FB6F894DEBF79
:103250000FBECDBFDF91CF911F910F91FF90EF90E7
:10326000DF90CF90BF90AF9008951F93CF93DF93DF
:10327000CDB7DEB72C970FB6F894DEBF0FBECDBF2B
:103280004F83588769877A878B879C87CE010796FB
:103290000E9442178823D1F09F8188852A853B852B
:1032A000232B31F08F3F31F481E09F3F19F403C0AD
:1032B00081E001C080E080FD47C04F81588569856D
:1032C0007A858B859C850E949B163EC086E0FE0118
:1032D0003796DE01119601900D928A95E1F7FF81F4
:1032E000E8856A857B856115710531F0EF3F31F422
:1032F00081E0FF3F19F403C081E001C080E080FD60
:1033000023C02091ED0230E0C90101968770992712
:103310004091EC0250E084179507F1F1F983EA83BC
:103320007D836C8396E0929FD001939FB00D112412
:10333000A251BD4FFE01319601900D929A95E1F791
:103340008093ED020E94AB1616E08091EC02909102
:10335000ED02891771F1189FC001112482519D4F10
:103360000E944217882329F1E091EC021E9FF00190
:103370001124E251FD4F408151816281738184812A
:1033800095810E949B168091EC0290E001968770D7
:1033900099278093EC02D9CF0E9409131092ED0275
:1033A0001092EC02EEE1F3E086E0DF011D928A95D7
:1033B000E9F72C960FB6F894DEBF0FBECDBFDF91B4
:1033C000CF911F910895DF92EF92FF920F931F9379
:1033D000CF93DF93FC01892B09F488C0E12CF12CF9
:1033E000DD24D394EF0121968491853709F460C0E0
:1033F00058F4843708F04EC0843008F068C081303B
:10340000D1F0823071F172C0883709F45BC050F49A
:10341000863709F453C0873709F068C08E2D0E94A3
:10342000CF1C52C09CE7980F903708F05FC08F7791
:103430000E94C1124EC08F010E5F1F4FFE0184918A
:1034400090E2980F983050F48770FD2D01C0FF0F67
:103450008A95EAF78F2F0E94D51C15C00E9417127B
:1034600014C08F010E5F1F4FFE01849190E2980FF0
:10347000983068F48770FD2D01C0FF0F8A95EAF738
:103480008F2F0E94DB1C0E94FC1CE80122C00E94BE
:10349000C112FBCFCF010296FE01C491CC2361F093
:1034A000EFE9FFE03197F1F700C00000C150F6CF1F
:1034B000CF010296FE01F490EC010BC00E94BF1CEC
:1034C000E82E07C00E94D21C0E94FC1C02C00E9471
:1034D00017128F2D882341F0EFE9FFE03197F1F7C4
:1034E00000C000008150F6CFFE017CCFDF91CF916C
:1034F0001F910F91FF90EF90DF9008956093A403C8
:103500007093A5038093A6039093A7030C944A1D80
:1035100008956093A8037093A9038093AA039093DE
:10352000AB030C94491D0F931F930091A8031091B6
:10353000A9032091AA033091AB03602B712B822B3E
:10354000932B6093A8037093A9038093AA0390938D
:10355000AB031F910F910C94491D0F931F93009182
:10356000A8031091A9032091AA033091AB03602313
:103570007123822393236093A8037093A9038093FC
:10358000AA039093AB031F910F910C94491D0F93C5
:103590001F930091A8031091A9032091AA033091D1
:1035A000AB0360277127822793276093A80370934A
:1035B000A9038093AA039093AB031F910F910C94DE
:1035C000491D60E070E0CB010C947E1A0F931F93AD
:1035D00041E050E060E070E08A019B0104C0000F10
:1035E000111F221F331F8A95D2F7C901B8011F91FD
:1035F0000F910C947E1A0F931F9341E050E060E00E
:1036000070E004C0440F551F661F771F8A95D2F7DC
:103610008091A4039091A503A091A603B091A70364
:103620008A019B01082B192B2A2B3B2BC901B801BE
:103630001F910F910C947E1A0F931F9341E050E05D
:1036400060E070E004C0440F551F661F771F8A9525
:10365000D2F740955095609570958091A403909114
:10366000A503A091A603B091A7038A019B0108239B
:1036700019232A233B23C901B8011F910F910C94F0
:103680007E1A0F931F9341E050E060E070E004C0A9
:10369000440F551F661F771F8A95D2F78091A403A8
:1036A0009091A503A091A603B091A7038A019B0165
:1036B000082719272A273B27C901B8011F910F9115
:1036C0000C947E1A0F931F930091A4031091A503ED
:1036D0002091A6033091A703602B712B822B932B93
:1036E0001F910F910C947E1A0F931F930091A403C6
:1036F0001091A5032091A6033091A70360237123A5
:10370000822393231F910F910C947E1A0F931F9382
:103710000091A4031091A5032091A6033091A70363
:1037200060277127822793271F910F910C947E1A8F
:1037300008958F929F92AF92BF92DF92EF92FF9285
:103740000F931F93CF93DF9300D000D01F92CDB77C
:10375000DEB76B837C838D838A018C819D81892B6D
:1037600031F01F3F31F481E04F3F19F403C081E095
:1037700001C080E080FF03C080E090E04DC08B81FD
:103780008823D1F18090A4039090A503A090A60374
:10379000B090A7038091A8039091A903A091AA03D8
:1037A000B091AB03882A992AAA2ABB2A8FE1E82E76
:1037B000F12CD501C4010E2C04C0B695A7959795A0
:1037C00087950A94D2F780FD06C081E0E81AF108D7
:1037D00080F7D12C07C0DE2CB8018E2D0E94671E09
:1037E000019799F388E0189FF0011124EC5DFC4FDC
:1037F000E00FF11DD08209C088E0189FF00111246C
:10380000EC5DFC4FE00FF11DD08009831A836981C4
:103810007A818D2D0E94671E0F900F900F900F9050
:103820000F90DF91CF911F910F91FF90EF90DF905C
:10383000BF90AF909F908F9008959091140199231D
:1038400079F190911501992359F1982F96959695B4
:1038500096959F31A1F0E0911601F0911701E90FC3
:10386000F11D877021E030E0A90102C0440F551F0F
:103870008A95E2F7CA019181892B818308959091FD
:10388000CF0390FF29C01F928F938DE994E09F93FF
:103890008F930E9464060F900F900F900F900895E1
:1038A0002091160130911701F90132969FEF40E007
:1038B0005191851789F09F3F19F4511101C0942F40
:1038C0004F5F4E31A9F79F3F39F0F901E90FF11D24
:1038D00097FDFA9582830895089590911401992394
:1038E00081F190911501992361F1982F9695969504
:1038F00096959F31A9F0E0911601F0911701E90F1B
:10390000F11D877021E030E0A90102C0440F551F6E
:103910008A95E2F7CA018095918189238183089570
:103920009091CF0390FF1CC01F928F938FE794E07C
:103930009F938F930E9464060F900F900F900F90AB
:103940000895E0911601F09117019F01225E3F4F0B
:103950009281891301C012823196E217F307C1F7F1
:10396000089581E090E0E0911601F0911701E80FD1
:10397000F91F1082019680329105A9F70895809170
:10398000CE0308959091CE03892B8093CE030895A2
:1039900080959091CE0389238093CE0308958093E0
:1039A000CE0308951092CE0308959091CD03892BF4
:1039B0008093CD03089580959091CD0389238093C2
:1039C000CD0308951092CD0308958093AC0308951C
:1039D0001092AC0308958091160190911701FC019B
:1039E00031969C01205E3F4F80E0919191118F5F55
:1039F000E217F307D1F70895E0911601F09117014E
:103A00008091CE038083E0911601F091170190819F
:103A10008091CD03892B80838091AC03882361F052
:103A2000E0911601F09117019081892B80830E940B
:103A3000EB1C81111092AC0380911601909117013B
:103A40000C942D1090938B0180938A010895829598
:103A5000982F937344E0949F900111248C7C869559
:103A60008695282B822F8575880F2A7A2695822B9A
:103A700008950895CF93DF9300D000D01F92CDB763
:103A8000DEB70F900F900F900F900F90DF91CF91B6
:103A90000895089508950C94841180E0089580910C
:103AA000E403843021F11092D00320E488E190E017
:103AB0000FB6F894A895809360000FBE2093600025
:103AC00083B7817F846083BF83B7816083BF78942D
:103AD000889583B78E7F83BF0FB6F894A8958091A1
:103AE0006000886180936000109260000FBE0895AE
:103AF000CF930E94CF110E9473070E94D011C0E0A3
:103B00008C2F0E94EF07811104C0CF5FC031C1F735
:103B100001C081E0CF9108950E94F5070C9409132C
:103B20001F920F920FB60F9211248F939F93AF9312
:103B3000BF938091D003811113C08091D1039091E4
:103B4000D203A091D303B091D4034196A11DB11D1E
:103B50008093D1039093D203A093D303B093D40363
:103B6000BF91AF919F918F910F900FBE0F901F90BB
:103B7000189582E084BD93E095BD9AEF97BD809340
:103B80006E0008952FB7F8948091D1039091D203DD
:103B9000A091D303B091D4032FBF08952FB7F89409
:103BA0006091D1037091D2038091D3039091D4039B
:103BB0002FBF0895CF92DF92EF92FF920F931F9342
:103BC0002FB7F8944091D1035091D2036091D30361
:103BD0007091D4032FBF6A017B01EE24FF248C0176
:103BE00020E030E0C016D106E206F30610F44150A2
:103BF00051099A01281B390BC9011F910F91FF90A0
:103C0000EF90DF90CF9008951F920F920FB60F9212
:103C100011248F939F93AF93BF938091D103909181
:103C2000D203A091D303B091D4030196A11DB11D7D
:103C30008093D1039093D203A093D303B093D40382
:103C4000BF91AF919F918F910F900FBE0F901F90DA
:103C500018950E94350DF89487E797E7909301082F
:103C60008093000887E090EBDC018093ED03909354
:103C7000EE03A093EF03B093F0039CE088E10FB64E
:103C8000F894A895809360000FBE90936000FFCFDA
:103C900080E090E008950895E72FF0E090E1899F9B
:103CA000E00DF11D112483E0EE0FFF1F8A95E1F76F
:103CB000E60FF11DEE51FF4F84910895E82FF0E0DB
:103CC000EE0FFF1FE05AF0408591949108950E94F5
:103CD0004C1E90E4980F903218F40E945E1E0895D6
:103CE0008D3B50F4883A48F5853AD0F48430A8F4F6
:103CF000813009F492C08EC0883E40F4803E68F462
:103D00008F3B09F087C020E030EE89C0803F08F487
:103D100081C0282F30E0306582C0282F30E07FC07E
:103D2000853A29F0863A31F023E830E478C021E87A
:103D300030E475C022E830E472C0883A61F1893A13
:103D400069F18A3A71F18B3A79F18C3A81F18D3AC5
:103D500089F18E3A91F18F3A99F1813BA1F1803B43
:103D6000A9F1823BB1F1833BB9F1843BC1F1853BC1
:103D7000C9F1863BD1F1873BD9F1883BE1F1893B21
:103D8000E9F18A3BF1F18B3BF9F18C3B09F43FC03F
:103D900020E034E444C022EE34E441C029EE34E4AF
:103DA0003EC02AEE34E43BC025EB34E438C026EBB9
:103DB00034E435C023EB34E432C024EB34E42FC0C8
:103DC00027EB34E42CC02CEC34E429C02DEC34E493
:103DD00026C023E835E423C02AE835E420C022E9E0
:103DE00035E41DC024E935E41AC021E236E417C0E9
:103DF00023E236E414C024E236E411C025E236E4BE
:103E00000EC026E236E40BC027E236E408C02AE200
:103E100036E405C020E030E002C021E030E0C90116
:103E200008958091D70380FF0BC060911B0185E04E
:103E3000689FB001112475956795759567952BC09E
:103E400081FF09C060911B0185E0689FB0011124CA
:103E50007595679520C082FF07C060911B0185E0C2
:103E6000689FB001112417C09091D8039923D1F015
:103E700060911A01961788F720911B0185E0289F11
:103E800090011124929FA001939F500D112470E086
:103E9000CA010E94DF266038710540F46115710582
:103EA00019F406C065E070E0862F08958FE7089545
:103EB00081E008958091D70380FF08C060911901C7
:103EC00070E0759567957595679521C081FF06C06F
:103ED0006091190170E07595679519C082FF04C063
:103EE0006091190170E010C09091D803992399F066
:103EF000609118019617A0F780911901899FC00160
:103F0000112470E00E94DF266038710540F46115CD
:103F1000710519F406C061E070E0862F08958FE7FF
:103F2000089581E00895803F21F40E94111F81953A
:103F300004C0813F29F40E94111F8093DB03089580
:103F4000823F21F40E94111F819504C0833F29F410
:103F50000E94111F8093DA030895893F19F40E948B
:103F60005A1F05C08A3F31F40E945A1F81958093E1
:103F7000DC0308958B3F21F40E945A1F819504C0F1
:103F80008C3F29F40E945A1F8093DD030895843FDB
:103F900021F48091D903816017C0853F21F480917D
:103FA000D903826011C0863F21F48091D9038460D7
:103FB0000BC0873F21F48091D903886005C0883FFA
:103FC00031F48091D90380618093D90308958D3FA6
:103FD00021F48091D70381600BC08E3F21F4809142
:103FE000D703826005C08F3F29F48091D703846096
:103FF0008093D7030895803F39F48091DB0387FFD6
:104000006CC01092DB0369C0813F29F48091DB030F
:104010001816BCF362C09091DA03823F29F497FF2F
:104020005CC01092DA0359C0833F19F41916CCF31F
:1040300054C0893F41F48091DC0318160CF04DC048
:104040001092DC034AC08A3F29F48091DC0387FF89
:1040500044C0F6CF8B3F39F48091DD0387FF3DC02C
:104060001092DD033AC08C3F29F48091DD031816CD
:10407000BCF333C0843F21F48091D9038E7F17C0F5
:10408000853F21F48091D9038D7F11C0863F21F4B3
:104090008091D9038B7F0BC0873F21F48091D90396
:1040A000877F05C0883F31F48091D9038F7E80934C
:1040B000D90313C08D3F21F48091D7038E7F0BC0AD
:1040C0008E3F21F48091D7038D7F05C08F3F29F467
:1040D0008091D7038B7F8093D7038091DA0381117E
:1040E0000EC08091DB0381110AC08091DC03811135
:1040F00006C08091DD03811102C01092D80308959B
:104100008091CF0383FF7EC082EE94E00E94CB05B6
:104110008091D9031F928F938DED94E09F938F939D
:104120000E9464068BED94E00E94CB058091DA0337
:10413000282F082E000C330B3F938F9388ED94E0CB
:104140009F938F930E94640686ED94E00E94CB05B6
:104150008091DB03282F082E000C330B3F938F93A5
:1041600083ED94E09F938F930E94640681ED94E029
:104170000E94CB058091DC03282F082E000C330B06
:104180003F938F938EEC94E09F938F930E946406ED
:104190008CEC94E00E94CB058091DD03282F082E43
:1041A000000C330B3F938F9389EC94E09F938F9394
:1041B0000E94640686EC94E00E94CB058091D803AF
:1041C0001F928F9383EC94E09F938F930E946406D9
:1041D00081EC94E00E94CB058091D7031F928F93CE
:1041E0008EEB94E09F938F930E9464068BEB94E098
:1041F0000E94CB058DB79EB74C960FB6F8949EBF24
:104200000FBE8DBF89ED93E00E9476100E94C21D03
:104210009093D6038093D50308951F93CF93DF9394
:104220008091D5039091D6030E94DA1DAC01909144
:10423000D803992321F020911C0130E006C0209181
:104240001D018AE0289F900111244217530708F4AA
:1042500085C08091DA03C091DB03D091DC0310911B
:10426000DD03811107C0C11175C0D11173C01111D7
:1042700071C074C09F3F19F09F5F9093D8031816C8
:1042800024F40E94111F8093DA038091DA0387FFE0
:1042900005C00E94111F81958093DA031C1624F437
:1042A0000E94111F8093DB038091DB0387FF05C011
:1042B0000E94111F81958093DB036091DA036623CE
:1042C00031F1C091DB03CC2311F1062E000C770BEA
:1042D000880B990B0E94E62523E333E343E35FE376
:1042E0000E944A260E94AE256093DA036C2FCC0F01
:1042F000770B880B990B0E94E62523E333E343E316
:104300005FE30E944A260E94AE256093DB031D16E0
:1043100024F40E945A1F8093DC038091DC0387FF02
:1043200005C00E945A1F81958093DC03111624F466
:104330000E945A1F8093DD038091DD0387FF05C033
:104340000E945A1F81958093DD03DF91CF911F91C9
:104350000C9480209F3F09F08FCFA0CFDF91CF91A9
:104360001F910895E9EDF3E085E0DF011D928A9544
:10437000E9F71092D8031092D703089585E097E0EB
:104380000E94CB051F9281E08F931F9285E08F934F
:1043900087EB96E09F938F930E9464060F900F9097
:1043A0000F900F900F900F9008958330E9F128F44B
:1043B000813061F0823009F10895853009F462C0DE
:1043C00008F449C0863009F474C0089580911D0135
:1043D000262F30E0280F311D2F3F310524F4680FC0
:1043E00060931D0103C08FEF80931D0180911D011B
:1043F0001F928F9380EF95E072C080911C01262F51
:1044000030E0280F311D2F3F310524F4680F6093F1
:104410001C0103C08FEF80931C0180911C011F922F
:104420008F938EED95E05BC080911B01262F30E0CD
:10443000280F311D2F3F310524F4680F60931B01B5
:1044400003C08FEF80931B0180911B011F928F93FC
:104450008BEC95E044C080911A01262F30E0280FA4
:10446000311D2F3F310524F4680F60931A0103C0FA
:104470008FEF80931A0180911A011F928F9386EB20
:1044800095E02DC080911901262F30E0280F311DB5
:104490002F3F310524F4680F6093190103C08FEF9B
:1044A00080931901809119011F928F938DE995E0F6
:1044B00016C080911801262F30E0280F311D2F3FA4
:1044C000310524F4680F6093180103C08FEF8093C7
:1044D0001801809118011F928F9382E895E09F93B5
:1044E0008F930E9464060F900F900F900F90089585
:1044F000833081F128F4813059F08230D1F0089571
:10450000853009F449C0B8F1863009F456C00895E1
:1045100080911D01681720F4861B80931D0102C045
:1045200010921D0180911D011F928F9383E795E0EA
:1045300054C080911C01681720F4861B80931C01D5
:1045400002C010921C0180911C011F928F9381E682
:1045500095E043C080911B01681720F4861B80936F
:104560001B0102C010921B0180911B011F928F93AF
:104570008EE495E032C080911A01681720F4861B02
:1045800080931A0102C010921A0180911A011F92A1
:104590008F9389E395E021C080911901681720F479
:1045A000861B8093190102C0109219018091190194
:1045B0001F928F9380E295E010C0809118016817D8
:1045C00020F4861B8093180102C01092180180917C
:1045D00018011F928F9385E095E09F938F930E941F
:1045E00064060F900F900F900F900895CF93C82FEF
:1045F0001F928F938AE098E09F938F930E946406A6
:1046000081E090E0A0E0B0E0BC01CD0104C0660F05
:10461000771F881F991FCA95D2F70E94891A0F9099
:104620000F900F900F90CF910C940913CF93873276
:10463000A8F58E3108F02BC1803109F49FC0F8F441
:10464000873009F464C0A8F4863009F024C1809151
:10465000CF03817F8E7F8093CF038FE098E00E940D
:10466000CB0585EE9AE00E94CB0581E08093DF03C5
:104670004CC08B30F1F18E3009F46CC00CC1863126
:1046800009F4B0C020F4813109F4EDC004C18931CE
:1046900009F491C08B3109F449C0FDC0883349F158
:1046A00050F4893209F4F1C0853309F4EEC0873241
:1046B00009F0F1C0EAC0833409F4E7C028F48A3372
:1046C00008F4E9C08953E4C0883409F0E4C00E94CA
:1046D000091384ED9AE00E94CB052FEF83ED90E360
:1046E000215080409040E1F700C000000E94291E48
:1046F0000CC086E398E05CC08BEB9AE00E94CB058F
:104700008091CF0381608093CF03C1E0C9C08091C5
:10471000CF03C82FC17080FFEFCF87EC9AE00E94D3
:10472000CB058091CF03817F8E7F3DC09091CF03D9
:1047300091FBCC27C0F981E0C827892FC0FB81F904
:104740008093CF03CC2319F08EEA9AE027C080EA49
:104750009AE02EC09091CF0392FBCC27C0F981E064
:10476000C827892FC0FB82F98093CF03CC2319F08F
:1047700081E99AE013C081E89AE01AC09091CF03D2
:1047800093FBCC27C0F981E0C827892FC0FB83F9B0
:104790008093CF03CC2351F085E79AE00E94CB05AC
:1047A0008091CF0381608093CF037AC088E69AE03E
:1047B0000E94CB05AACF89E59AE00E94CB0587E34A
:1047C0009AE00E94CB0583EF99E00E94CB058AEC2A
:1047D00099E00E94CB058FE899E00E94CB0584E622
:1047E00099E0E6CF86E599E00E94CB050E94211072
:1047F0001F928F938CE399E09F938F930E9464069E
:10480000809114011F928F9385E299E09F938F937B
:104810000E9464068091D4021F928F9382E199E0F6
:104820009F938F930E946406809115011F928F932E
:104830008FEF98E09F938F930E9464060E94CE1D95
:104840009F938F937F936F9388EE98E09F938F93BE
:104850000E9464068DB79EB746960FB6F8949EBF29
:104860000FBE8DBF52CF0E940913C091150181E088
:10487000C827C0931501CC2329F08EED98E00E9443
:10488000CB050EC083ED98E093CF80E001C08D5141
:104890000E94F6223ACF81ED98E00E94CB05C0E05D
:1048A0008C2FCF91089580E008950C945324CF93DA
:1048B000C82F8091DF03813079F020F0823009F435
:1048C0004DC044C1E0911601F091170180818152E1
:1048D000823008F03DC108C0E0911601F091170147
:1048E00080818152823060F48C2F0E945524811186
:1048F00004C08C2F0E9416232FC081E090E02CC0B2
:104900008C2F0E945324811126C0C431E1F070F431
:10491000CB3081F0C031D1F40E94BE2182E098E01A
:104920000E94CB0582E08093DF0315C0C93259F0A5
:10493000C83361F48FE098E00E94CB0586E098E0F0
:104940000E94CB0508C01092DF0304C180E098E00C
:104950000E94CB05FFC081E08170FEC0C43228F503
:10496000CE3108F0C1C0CB30A1F1D0F4C73009F08E
:10497000D3C08EE180931D0182E380931C018AE005
:1049800080931B0184E180931A0188E080931901D0
:1049900088E28093180186EA96E00E94CB05BFC0AA
:1049A000C33149F1C431C1F0B7C0CB3409F4A9C057
:1049B00028F4C93289F0C83361F0AEC0C13509F4BA
:1049C0009EC0C23509F499C0CE3409F0A5C06AE092
:1049D0009EC00E94BE21A3C08091DE03882319F0EF
:1049E0001092DE039CC083EB96E00E94CB0581E031
:1049F0008093DF03B1C08DE896E00E94CB058BE782
:104A000096E00E94CB0580911D011F928F9388E74D
:104A100096E09F938F930E94640686E796E00E943B
:104A2000CB0584E696E00E94CB0580911C011F9285
:104A30008F9381E696E09F938F930E9464068FE5A3
:104A400096E00E94CB0580E596E00E94CB05809120
:104A50001B011F928F938DE496E09F938F930E948A
:104A600064068BE496E00E94CB058AE396E00E9400
:104A7000CB0580911A011F928F9387E396E09F9355
:104A80008F930E94640685E396E00E94CB0580E246
:104A900096E00E94CB05809119011F928F938DE1C2
:104AA00096E09F938F930E9464068BE196E00E94AC
:104AB000CB0584E096E00E94CB05809118011F92FF
:104AC0008F9381E096E09F938F930E9464068FEF0F
:104AD00095E00E94CB058DB79EB748960FB6F89427
:104AE0009EBF0FBE8DBF1BC0CE51EC2FF0E0E05833
:104AF000FE4F80818093DE0312C061E003C061E05D
:104B000006C06AE08091DE030E94D52108C0809132
:104B1000DE030E94782203C084EA96E013C08091ED
:104B2000DE03882369F01F928F938EE996E09F93AE
:104B30008F930E9464060F900F900F900F9004C007
:104B40008BE996E00E94CB0581E006C01092DF035E
:104B500080E002C080E000CFCF9108950E94B5258B
:104B60006894B1110C94442608950E94292688F077
:104B70009F5798F0B92F9927B751B0F0E1F0660F21
:104B8000771F881F991F1AF0BA95C9F714C0B13062
:104B900091F00E944326B1E008950C944326672FBC
:104BA000782F8827B85F39F0B93FCCF38695779591
:104BB0006795B395D9F73EF490958095709561957A
:104BC0007F4F8F4F9F4F0895E89409C097FB3EF4A5
:104BD00090958095709561957F4F8F4F9F4F99234A
:104BE000A9F0F92F96E9BB279395F69587957795C8
:104BF0006795B795F111F8CFFAF4BB0F11F460FF88
:104C00001BC06F5F7F4F8F4F9F4F16C0882311F0DF
:104C100096E911C0772321F09EE8872F762F05C0F3
:104C2000662371F096E8862F70E060E02AF09A958E
:104C3000660F771F881FDAF7880F9695879597F983
:104C4000089557FD9058440F551F59F05F3F71F07C
:104C50004795880F97FB991F61F09F3F79F08795E3
:104C60000895121613061406551FF2CF4695F1DF6C
:104C700008C0161617061806991FF1CF86957105FC
:104C8000610508940895E894BB2766277727CB0130
:104C900097F908950E945D260C94CE260E94C026A6
:104CA00038F00E94C72620F0952311F00C94B72607
:104CB0000C94BD2611240C9444260E94212670F3E6
:104CC000959FC1F3950F50E0551F629FF001729FB1
:104CD000BB27F00DB11D639FAA27F00DB11DAA1FC0
:104CE000649F6627B00DA11D661F829F2227B00D0D
:104CF000A11D621F739FB00DA11D621F839FA00D98
:104D0000611D221F749F3327A00D611D231F849FE7
:104D1000600D211D822F762F6A2F11249F5750403E
:104D20009AF0F1F088234AF0EE0FFF1FBB1F661FB9
:104D3000771F881F91505040A9F79E3F510580F082
:104D40000C94B7260C9444265F3FE4F3983ED4F3CA
:104D5000869577956795B795F795E7959F5FC1F726
:104D6000FE2B880F911D9695879597F9089597F9D1
:104D70009F6780E870E060E008959FEF80EC089501
:104D800000240A941616170618060906089500242A
:104D90000A9412161306140605060895092E0394A4
:104DA000000C11F4882352F0BB0F40F4BF2B11F418
:104DB00060FF04C06F5F7F4F8F4F9F4F089597FB39
:104DC000072E16F4009407D077FD09D00E94F9262B
:104DD00007FC05D03EF4909581959F4F08957095FE
:104DE00061957F4F0895EE0FFF1F0590F491E02D20
:104DF0000994AA1BBB1B51E107C0AA1FBB1FA61722
:104E0000B70710F0A61BB70B881F991F5A95A9F773
:0E4E100080959095BC01CD010895F894FFCFD8
:104E1E008E0100000FB3010000FFFE078E086B0825
:104E2E00350801080101AD032808140A321E6F7AF5
:104E3E000000000000000000000000000000000064
:104E4E00000000000000007F00547C000000000005
:104E5E0000000000000000005574607700610063E0
:104E6E00007562787172000000000000005A5B5CF1
:104E7E005D5E0000005F404D362239E7039A036401
:104E8E0003420309037C029502AE02C702E7020049
:0A4E9E0001020304050607080900DD
:00000001FF
